:020000040800F2
:10000000980900204D020008851600087D1600089A
:100010008116000885140008DF1C0008000000009D
:10002000000000000000000000000000611800084F
:10003000A515000800000000151700087919000830
:1000400067020008670200086702000867020008EC
:1000500067020008670200086702000867020008DC
:1000600067020008670200086702000867020008CC
:1000700067020008670200086702000867020008BC
:1000800067020008670200086702000867020008AC
:10009000670200086702000867020008670200089C
:1000A000670200086702000867020008670200088C
:1000B000670200086702000867020008670200087C
:1000C000670200086702000867020008670200086C
:1000D00067020008151A00089D1A00086702000848
:1000E000670200086702000867020008670200084C
:1000F000670200086702000867020008670200083C
:10010000670200086702000867020008670200082B
:10011000670200086702000867020008670200081B
:10012000670200086702000867020008670200080B
:1001300067020008670200086702000867020008FB
:1001400067020008670200086702000867020008EB
:1001500067020008670200086702000867020008DB
:1001600067020008670200086702000867020008CB
:1001700067020008670200086702000867020008BB
:10018000670200086702000800F002F800F04FF86C
:100190000AA090E8000C82448344AAF10107DA45E2
:1001A00001D100F044F8AFF2090EBAE80F0013F0E5
:1001B000010F18BFFB1A43F001031847B4240000D5
:1001C000D4240000103A24BF78C878C1FAD8520766
:1001D00024BF30C830C144BF04680C6070470000C1
:1001E0000023002400250026103A28BF78C1FBD840
:1001F000520728BF30C148BF0B607047662902F024
:10020000EB81642900F08E80732900F0EA830020DE
:1002100070471FB502F0DBF900F0FAFB0400002084
:10022000002102F047F9E0601FBD10B510BD00F0DD
:10023000F3FC1146FFF7EDFF01F0C6FE00F011FDE3
:1002400003B4FFF7F2FF03BC01F06AFD09488047E1
:1002500009480047FEE7FEE7FEE7FEE7FEE7FEE7A8
:10026000FEE7FEE7FEE7FEE704480549054A064BC0
:10027000704700007D1900088901000898030020DC
:10028000980900209805002098050020704700007C
:100290000FB4044910B503AA029800F0A7FB10BCE4
:1002A0005DF814FB580000200FB41CB5074B06AADC
:1002B0007B4469460090059800F069FB0020694680
:1002C00000F078FB1CBC5DF814FB00000107000087
:1002D00070B50C460546012A05D02878800600D561
:1002E000EA69002302E0012305E05B1C934202D28D
:1002F000E05C0028F9D1A869E618C01AA861286A4C
:10030000184428622846AFF3008004E0D5E90121B3
:1003100014F8010B9047B442F8D32846AFF300809D
:1003200070BD00002DE9F0410646002410687529D3
:10033000314616A510D0AFF30080002802DA404203
:1003400013A507E031688A0701D512A502E0490725
:1003500004D511A5012401E0AFF3008000210A2299
:1003600006F1240709E0B0FBF2FCB0FBF2F302FB5C
:100370001C00303078541846491C0028F3D123461D
:100380002A463046BDE8F04100F093B80000000076
:100390002D0000002B000000200000002DE9F04798
:1003A0004FF0000A89460446C0F820A02046E168C4
:1003B0008847002876D0252806D0D4E90121904727
:1003C000206A401C2062F1E7E1682046002588474A
:1003D000C4F81CA006460027C4F818A02A2E09D08D
:1003E000304601F096FC38B304EB8708303EC8F87D
:1003F000186019E059F8041B204604EB870291614C
:10040000E1688847012F064618D1E069002820DA04
:1004100025F020051DE0D8F8180000EB800006EB61
:1004200040003038C8F818002046E1688847064682
:1004300001F06FFC0028EED1012F0AD02E2E08D13A
:100440002046E16888477F1C0646022F45F02005BC
:10045000C4DBA069002803DA404245F00105A06131
:10046000E80701D025F01005B6B1A6F14100192822
:1004700002D8203645F400654A46314620462560BC
:100480004D46FFF7BBFE58B1012806D0ED1D25F003
:10049000070000F1080989E704E005F1040985E790
:1004A00030468AE7206ABDE8F0877047704770479A
:1004B00070472DE9F0470D4699469246044600F1F3
:1004C00024080168880604D5E06921F01001216044
:1004D00000E00120A84201DD471B00E00027A169E0
:1004E0007A1902EB0900081AA0612078C00602D42C
:1004F0002046AFF30080002608E0D4E901211AF875
:1005000006009047206A401C761C20624E45F4DBB2
:100510002078C0060AD52046AFF3008006E0D4E973
:10052000012130209047206A401C2062381EA7F12C
:100530000107F4DC07E0D4E9012118F80500904731
:10054000206A401C2062281EA5F10105F3DC20462C
:10055000AFF300802078000602D50220BDE8F087C6
:100560000120FBE770472DE9FF4F0C461E464FF078
:10057000FF378BB0D2E90001DDF860800A908A462F
:10058000C1F30A5505B93D46002108464FF0000069
:10059000BAF1000F00F4400005DA00EB80004FF4E0
:1005A000400101EA50004FEA9059B9F1010F00DD16
:1005B000B9460A9850EA4A000ED044F61050A5F207
:1005C000FF3545432F14B8F1000F1ED07542291E88
:1005D0001EDDC9F100021CE0B8F1010F4FF0000070
:1005E00001D0302103E0F24305E02154401CB04229
:1005F000FBDB30460022002121540B99C1F8088012
:10060000C1E900200FB0BDE8F08FBD1B6D1CDEE717
:100610004A4600DA694206A800F084FA06AB93E87D
:10062000070003AB83E8070050460A9900F062FB1D
:100630008DE80700A0F500501F3800900398002DAA
:100640000ADD42F21F014A460844002303A9039031
:10065000684600F0CBFD09E0A0F500504A461F387F
:10066000002303A90390684600F0D5FD8DE807003C
:100670000004000C03D04FF0FF30410800E01046AA
:10068000B8F1000F03D00022009215461EE0751E3F
:1006900005D400F0C1F9303262556D1EF9D5B3466C
:1006A0000122084302D000227F1C04E02078302879
:1006B00001D100227F1E002A099784D01DE0112D50
:1006C00007DA00F0A9F9303262556D1C50EA0102D8
:1006D000F5D1084302D00098C8B10EE00021681E91
:1006E00005E0235C625C63542254401E491C814235
:1006F000F7DBAB46A81B401E0990002004F80B0056
:100700000B98099AC0F80880C0E9002B7AE71126F7
:100710004FF0000857E72DE9F04F88460446D21DF8
:1007200022F0070191B0D1E90001CDE90A0101F001
:10073000D8FA02460B98C00F01D02D2007E02068A0
:10074000810701D52B2002E0202101EAC000032A05
:10075000099001D0072A05DB03464146204600F0F8
:10076000A1F90BE12078800601D5E06900E00620C0
:10077000B8F1650F814606D0B8F1660F18D0B8F110
:10078000670F70D131E00020B9F1110F009001DB4B
:10079000112301E009F101030AAA01A90CA8FFF73E
:1007A000E2FEDDE90C70002609F10105834647E011
:1007B00001204B4600904FF000470AAA01A90CA85F
:1007C000FFF7D1FEDDE90DB00C995D46002610B9AA
:1007D00009F101000D18B9EB050003D4C0F1FF3693
:1007E00009F10105A5EB09002BE0B9F1010F01DAD0
:1007F0004FF001090020B9F1110F0090484601DDCA
:10080000112300E003460AAA01A90CA8FFF7ABFEDA
:10081000DDE90C704D4600268346207800070AD497
:10082000AB4500DA5D4601A8012D04DD411911F840
:10083000011C302907D04F4502DA17F1040F04DA02
:10084000012082460FE06D1EEEE7002F02DCED1B5B
:100850003E4403E0781CA84200DD7D1CB81B00F17B
:10086000010A4FF000472078000703D4AA4501DBB6
:100870004FF0FF3A0021B7F1004F0DF143088DF81A
:10088000431024D002202B23002F01DA7F422D2396
:100890000A21021EA0F1010000DC5FB197FBF1FC10
:1008A00097FBF1F201FB1C7C17460CF1300C08F8A9
:1008B00001CDEEE7A8F1010003702188090501D5FB
:1008C000452100E06521A0F1010800F8011C09980C
:1008D0000FA9A1EB0807FF1D00B10120411901EB91
:1008E000EA70A1693844081A401EA0612078C00649
:1008F00002D42046AFF30080099828B1D4E9012141
:100900009047206A401C20622078C00622D52046ED
:10091000AFF300801EE0002E04DBB34502DD01A82A
:10092000805D00E03020D4E901219047206A401C1E
:100930002062761CAAF101005FEA000A0AD100F0E9
:1009400067F8C0680168405CD4E901219047206ADB
:10095000401C2062281EA5F10105DCDC07E0D4E97B
:10096000012118F8010B9047206A401C2062381EB4
:10097000A7F10107F3DC2046AFF30080032011B09C
:1009800041E6000001694A1C02610878704700B521
:100990008FB0CDE901310021059105497944CDE9B8
:1009A000031011466846FFF7F9FC0FB000BD0000C8
:1009B000E5FFFFFF0A6802F8010B0A60704710B5F7
:1009C000436913B1AFF3008001E0FFF781FC012020
:1009D00010BD127800F124010A7000224A70012231
:1009E000EDE711684FF0FF32E9E70000074B70B503
:1009F0000D467B44FFF7CBFF0446284600F004F980
:100A000010B14FF0FF3070BD204670BDB71500002B
:100A1000004870475403002030B5B0F10A024FEA95
:100A2000900E71F100034EEA817EB0EB0E0061EB97
:100A300091014FEA101E4EEA017E10EB0E0041EBD1
:100A400011114FEA102E4EEA016E10EB0E0041EB31
:100A500011214FEA104E4EEA014E10EB0E0041EB11
:100A60001141401841F100014FEAD00040EA4170C5
:100A70004FEAD10110EB80054FEA810444EA9074FB
:100A800044EB01046D1944EB0404521BA3414FF0E5
:100A9000000348BF0A3200D530BD401C41F10001BF
:100AA00030BD00002DE9F0411F46044603260168D1
:100AB000072A01F4006004DB08B116A505E016A5BD
:100AC00003E008B115A500E015A521F01000206095
:100AD000A069C01EA0610FB1401EA0612046AFF307
:100AE00000804FB1D4E9012138469047206A401C6C
:100AF0002062C01C206206E0206AFAE7D4E90121E6
:100B000015F8010B9047761EF8D22046AFF300800F
:100B1000BDE8F0814E414E006E616E00494E4600C8
:100B2000696E66002DE9F047814616468AB0354861
:100B300078440DC88DE80D0032487844801C03AC21
:100B40000DC884E80D0041F69B300844372190FB26
:100B5000F1F290FBF1F5A5F1800501FB12041B3CBD
:100B600002D56442012000E00020DFF898A0804612
:100B70000027FA44AAF1BE0A0EE0E0070AD0324686
:100B8000684607EB470101230AEB810100F043FBB4
:100B90008DE8070064107F1C002CEED1194F7F44B4
:100BA000AE3F19E0E80715D007EB04100DF1180A65
:100BB00090E80E008AE80E00C068F04201D1981952
:100BC00008903246012306A903A800F024FB03ABDA
:100BD00083E807006D10641C002DE3D14FF0010382
:100BE00032466946B8F1000F03A802D000F0FEFAC1
:100BF00001E000F010FBC9E90001C9F808200AB0C3
:100C0000BDE8F087241B0000007B00F080007047E7
:100C100000487047340300207546FFF7F9FFAE46E1
:100C200005006946534620F00700854618B020B5F8
:100C3000FFF71AFBBDE820404FF000064FF0000719
:100C40004FF000084FF0000B21F00701AC46ACE874
:100C5000C009ACE8C009ACE8C009ACE8C0098D46E1
:100C6000704710B50446AFF300802046BDE8104041
:100C7000FFF7E6BA4FF0013C50F8042B51F8043B63
:100C80009A4221D1A2EB0C03934313EACC1317D160
:100C900050F8042B51F8043B9A4215D1A2EB0C03F7
:100CA000934313EACC130BD150F8042B51F8043BB7
:100CB0009A4209D1A2EB0C03934313EACC13DBD085
:100CC0004FF00000704700BFD01A01BAB1FA81F1AD
:100CD00001F0180122FA01F0CB40C1F12001DBB292
:100CE000C0B2C01A2CFA01F3D11A914311EAC31110
:100CF000E6D170475FEA400C08BF91F0000F4FEA61
:100D00008C234FEAC12243EA51514FEA1C5018BFCD
:100D100000F5F0404FEA300018BF41F000415FEAB3
:100D20006C5C00F02980BCF1FF3F08BF40F08040C0
:100D30007047130C06BF12044FF0100C4FF0000C5C
:100D4000130E04BF12020CF1080C130F04BF1201A2
:100D50000CF1040C930F04BF92000CF1020CD30FA2
:100D600004BF52000CF1010C11464FF00002A0F13B
:100D70001F00A0EB0C00704711F0004F08BF704738
:100D800031F000413FF4D5AF0B0C06BF09044FF022
:100D9000100C4FF0000C0B0E04BF09020CF1080CF4
:100DA0000B0F04BF09010CF1040C8B0F04BF890069
:100DB0000CF1020CCB0F04BF49000CF1010CCCF17B
:100DC0002003A0EB0C0022FA03F302FA0CF241EA32
:100DD000030100F10100704720F07F4C80EA03001E
:100DE00023F07F47ACEB070303F57C5300F0004092
:100DF00003F1FF032DE980494FEA154B09B44FEA8F
:100E0000144325EA0B4E24EA03480FF2042606EBAE
:100E1000132749083E785FEA320203FB0667C7F5ED
:100E2000000707FB06F64FEA54374FEAD64606F1AD
:100E3000020607FB066CCCF1005C4FEA1C472CEA6B
:100E4000074C07FB06F40CFB06F504EB15464FEACE
:100E5000961634BF00204FF000404FEAD13706FB12
:100E600007FC4FEA1C4C0CFB0BF7D21B03FB0CF7E7
:100E700061EB07010CFB0EF7B0EB074072EB17427A
:100E80000CFB08F734BFA2EB0742B2EB074261EB61
:100E900017414FEA0C444FEA910706FB07FC4FEA63
:100EA0001C4C0CFB0BF7B0EBC74072EB573203FB4B
:100EB0000CF734BFA2EBC742B2EBC74261EB57312C
:100EC0000CFB0EF7B0EBC70072EB57720CFB08F788
:100ED00034BFA2EBC702B2EBC70261EB5771039FAD
:100EE0004FEA816141EA921104EBCC044FEAD13719
:100EF0004FEA826206FB07FC42EA90124FEA8060EA
:100F00004FEA1C4C0CFB0BF7D21B03FB0CF761EBFD
:100F100007010CFB0EF7B0EB074072EB17420CFB1E
:100F200008F734BFA2EB0742B2EB074261EB17416F
:100F30004FEA8C554FEA910704EB9C2406FB07FC13
:100F40004FEA1C4C0CFB0BF7B0EBC74072EB57326F
:100F500003FB0CF734BFA2EBC742B2EBC74261EB15
:100F600057310CFB0EF7B0EBC70072EB57720CFB5E
:100F700008F734BFA2EBC702B2EBC70261EB5771AF
:100F800015EB4C254FEA816141EA92114FEA8262EA
:100F90004FEAD13742EA901206FB07FC44F1000405
:100FA0004FEA80604FEA1C4C0CFB0BF7D21B03FB93
:100FB0000CF761EB07010CFB0EF7B0EB074072EB8F
:100FC00017420CFB08F734BFA2EB0742B2EB074213
:100FD00061EB174115EB1C154FEA813141EA924153
:100FE0004FEA823242EA90424FEA80304FEA0C7672
:100FF00044F1000448EA03434EEA0B484FF0000E68
:10100000B2EB080C71EB030724BF624639464EEB86
:101010000E0E4FF0000B0018524149414BEB0B0BE9
:10102000B2EB080C71EB03077BF1000B24BF6246A7
:1010300039464EEB0E0E4FF0000B0018524149415D
:101040004BEB0B0BB2EB080C71EB03077BF1000BC6
:1010500024BF624639464EEB0E0E51EA020718BF16
:1010600046F0010616EB0E7655F1000254F1000130
:1010700003D5BDE88901BDE80088BDE88901BDE868
:101080000048B619524141EB0101A3F10103704739
:1010900080807F7E7D7C7B7A7978777676757473B5
:1010A000727171706F6E6E6D6C6C6B6A6A69686874
:1010B000676666656464636362616160605F5F5E0A
:1010C0005E5D5D5C5C5B5B5A5A5959585857575680
:1010D00056555555545453535252525151505050E5
:1010E0004F4F4F4E4E4D4D4D4C4C4C4B4B4B4A4A37
:1010F0004A4949494848484747474746464645457B
:1011000045444444444343434342424242414141B3
:10111000002B9C4630D477002BD01CB54FEA370704
:1011200003B44FF010004FF01001BAF1000F06D0D9
:10113000BCF1000FDCBF40F0080040F008014FF0A8
:1011400000000FBCBDE810400BF1010BBBF1010F1B
:1011500008BF5FEA170722BF12F1010211F1010176
:101160004FF0004143F1000300F0004043EA00006B
:101170007047F9D35708D0E746EA064613F1400F07
:101180004FEA16461FDD13F1200FDFBF16430A4654
:10119000002120335B42BED0C3F1200746EA064659
:1011A00002FA07F74FEA164646EA0706C3F1200798
:1011B00022FA03F201FA07F721FA03F14FF00003D4
:1011C00042EA0702A7E746EA020646EA06464FEA6F
:1011D000164646EA0106BCBF46EA0646360C4FF004
:1011E00000034FF000024FF0000194E72DE9804C1E
:1011F0009A46934670B491E8380007C831EA400C2B
:1012000048BF34EA430C03D5FFF7E6FDFFF780FF44
:10121000F0BCBDE8008C2DE9804C9A46934670B432
:1012200091E8380007C810F0804F08BF13F0804FD6
:1012300003D100F005F8FFF76BFFF0BCBDE8008CB0
:1012400020F07F4780EA030023F07F4C07EB0C037C
:10125000A3F57C5300F00040A3F1FE0392F0000FD1
:1012600000F0B38095F0000F00F077802DE9014980
:101270004FEA11404FEA144621EA004800FB06FC01
:1012800024EA064708FB06F607FB08F800FB07F709
:1012900018EB06484CEB164C4FEA124B18EB07487C
:1012A0004FEA15464CEB174022EA0B4E0BFB06FCAF
:1012B00025EA06470EFB06F607FB0EFE0BFB07F7BB
:1012C0001EEB064E4CEB164C4FF000061EEB074E85
:1012D0004CEB174B18EB0B0840F1000018EB0E0B12
:1012E00058EB000840F100008F1A4FF000013CBF9E
:1012F000C943661B14BFB5EB040C00213CBFC943B6
:10130000F61B4FEA17444EEA8E0E27EA04454FEAD1
:101310001C4704FB07622CEA074C05FB07F70CFB94
:1013200005F604FB0CFC16EB074642EB174216EBE6
:101330000C4642EB1C421BEB060658EB02024141F5
:1013400046EA9E0601D5BDE80189B619524141EB36
:101350000101A3F10103BDE801894FEA14454FEAF9
:10136000114724EA054621EA074C05FB07F406FB72
:1013700007F70CFB06F105FB0CFC11EB074144EBF6
:1013800017444FEA124711EB0C4144EB1C4422EA8C
:10139000074C05FB07F206FB07F70CFB06F605FBFF
:1013A0000CFC16EB074642EB174216EB0C4642EBE1
:1013B0001C456A1854F1000148BF7047B6195241E4
:1013C00041EB0101A3F10103704795F0000F37D005
:1013D0004FEA11424FEA144721EA024624EA074C39
:1013E00002FB07F106FB07F70CFB06F402FB0CFC03
:1013F00014EB074441EB17414FEA154714EB0C443B
:1014000041EB1C4125EA074C02FB07F506FB07F7F9
:101410000CFB06F602FB0CFC16EB074645EB1745EA
:1014200016EB0C4645EB1C42121951F1000148BF66
:101430007047B619524141EB0101A3F10103704716
:101440004FEA14454FEA114724EA054621EA074CC2
:1014500005FB07F106FB07F70CFB06F24FF0000651
:1014600005FB0CFC12EB074241EB174112EB0C425F
:1014700051EB1C4148BF7047921841EB0101A3F1A9
:101480000103704700BFFEE73A490A780978491C12
:10149000384B1970384988540978552903D00021F0
:1014A0001A4611707047334909780B2900DAF9E7B9
:1014B0003149497850390A2956D2DFE801F0050D43
:1014C000151D252D353D454D2C492B4A921C136881
:1014D0000B6052684A6047E02949274A921C13680A
:1014E0000B6052684A603FE02649234A921C136809
:1014F0000B6052684A6037E023491F4A921C136808
:101500000B6052684A602FE020491B4A921C136806
:101510000B6052684A6027E01D49174A921C136805
:101520000B6052684A601FE01A49134A921C136804
:101530000B6052684A6017E017490F4A921C136803
:101540000B6052684A600FE014490B4A921C136802
:101550000B6052684A6007E01149074A921C136801
:101560000B6052684A6000BF00BF0021014A117041
:1015700000BF97E75000002070000020000000200E
:10158000080000201000002018000020200000208B
:1015900028000020300000203800002040000020FB
:1015A000480000207047F0B50A46002100230024BF
:1015B00000BF3DE0012505FA01F3156805EA0304C3
:1015C0009C4234D105684F000326BE40B5430560F8
:1015D00015794E00B5400668354305601579012D33
:1015E00002D01579022D16D185684F000326BE4022
:1015F000B543856055794E00B540866835438560B2
:10160000456801268E40B5434560456896798E4011
:10161000B6B235434560C5684F000326BE40B543AA
:10162000C560D5794E00B540C6683543C560491CD4
:101630001029BFD3F0BDF0B5002300244D07ED0EF7
:1016400002FA05F3CE1000F1200555F826504E079A
:10165000F70E0F26BE40B543CF1000F1200646F826
:101660002750CE1000F1200555F8265045EA030416
:10167000CE1000F1200545F82640F0BD00BFFEE782
:1016800000BFFEE77047000070B5002100230F2265
:10169000C4781CB3174C246804F4E064C4F5E06417
:1016A000C4F30721C1F10404E3B20A4144789C4029
:1016B000E1B28478144021430C07210E0E4C0578CA
:1016C0006155047804F01F050124AC4005786D11C4
:1016D000AD0005F1E025C5F8004109E0047804F00B
:1016E0001F050124AC40054D0678761145F82640CB
:1016F00070BD00000CED00E000E400E080E100E0DF
:1017000002490143024A1160704700000000FA05D7
:101710000CED00E07047000029B1064A1268024350
:10172000044B1A6004E0034A12688243014B1A60BA
:10173000704700003038024029B1064A126802435F
:10174000044B1A6004E0034A12688243014B1A609A
:10175000704700004038024029B1064A126802432F
:10176000044B1A6004E0034A12688243014B1A607A
:101770007047000044380240F0B5002100220024E8
:10178000022500260223324F3F6807F00C0121B1E9
:10179000042905D0082937D105E02E4F076036E02F
:1017A0002D4F076033E02A4F3F1F3F68C7F3805635
:1017B000274F3F1F3F6807F03F036EB1264FB7FB2F
:1017C000F3F7DFF88CC0ACF1040CDCF800C0CCF30C
:1017D000881C07FB0CF40CE01E4FB7FBF3F7DFF897
:1017E00070C0ACF1040CDCF800C0CCF3881C07FB23
:1017F0000CF4174F3F1F3F68C7F301477F1C7D0064
:10180000B4FBF5F7076002E0124F076000BF00BFAE
:101810000F4F3F6807F0F0010909104F7A5C076825
:10182000D74047600A4F3F6807F4E051890A0B4FE1
:101830007A5C4768D7408760054F3F6807F460418E
:10184000490B064F7A5C4768D740C760F0BD00007F
:10185000083802400024F40000127A0060000020E2
:10186000704700000CB500200190009034480068DB
:1018700040F480303249086000BF3148006800F40D
:10188000003000900198401C0190009818B9019810
:10189000B0F5A04FF1D12A48006800F4003010B133
:1018A0000120009001E0002000900098012846D11E
:1018B00023484030006840F08050214940310860A2
:1018C0002048006840F440401E4908601C48083029
:1018D00000681B49083108600846006840F4004071
:1018E00008600846006840F4A05008601648091FC8
:1018F0000860081F006840F08070091F086000BF82
:101900000F48006800F000700028F9D040F2057020
:101910000E4908600A480830006820F003000849B2
:10192000083108600846006840F00200086000BF07
:1019300003480830006800F00C000828F8D10CBDFE
:10194000003802400070004008544007003C02404C
:10195000042808D14FF0E021096941F004014FF05B
:10196000E022116107E04FF0E021096921F0040154
:101970004FF0E022116170477047000010B5154824
:10198000006840F47000134908601348006840F094
:1019900001001149086000200F49083108600E4815
:1019A00000680E4908400C4908600D48091D086090
:1019B000081F006820F48020091F086000200649E5
:1019C0000C310860FFF74EFF4FF00060014980398D
:1019D000086010BD88ED00E000380240FFFFF6FE11
:1019E0001030002410B50446074801780078401CE8
:1019F000054A107005484454012240F227710448FA
:101A000000F0D5F810BD00005F0000203202002079
:101A10000044004010B540F225511D4800F09DF8EB
:101A200010B31B4800F052F9C4B21A48008800F401
:101A30000040C8B91748008800F4804060B10A2C03
:101A400003D000201349088020E01248008840F4A9
:101A500000401049088019E00D2C06D10D4800887F
:101A600040F480400B49088010E00A480088C0F329
:101A70000D0009490C5407480088401C054908809E
:101A800008460088C72801DD0020088010BD00003E
:101A9000001001405C0000206A01002010B540F2F7
:101AA00027711C4800F059F8E0B11B480278007813
:101AB000401C194B18701948815C164800F00BF94E
:101AC00040F22771134800F02DF8134800781449AC
:101AD0000978884217D1002240F227710D4800F0A2
:101AE00066F810E040F225510A4800F036F850B18F
:101AF0000849091D0988C8B2FFF7C6FC40F2255104
:101B0000044800F00FF84FF45871024800F00AF84A
:101B100010BD0000004400405E00002032020020A2
:101B20005F00002010B50022002340F66A14A14295
:101B300000D100BF0A1201249440A3B2DC43048008
:101B400010BD21B1828942F40052828104E0828971
:101B50004DF6FF731A408281704770B5024600242B
:101B600000230025002040F66A16B14200D100BFD4
:101B7000C1F3421501F01F03012606FA03F3012DFC
:101B800002D19689334006E0022D02D1168A3340F5
:101B900001E0968A33400C12012606FA04F41688F6
:101BA000344013B10CB1012000E0002070BDF0B54D
:101BB0000346002400260025002040F66A17B9429B
:101BC00000D100BF1846C1F3421401F01F060127DF
:101BD00007FA06F5012C01D10C3004E0022C01D1EA
:101BE000103000E014301AB107682F43076002E09C
:101BF0000768AF430760F0BD2DE9FF4705460E4675
:101C00000024A14600BFA046B08900B100BF2C8AC5
:101C100024F44054F08804432C82AC8941F20C60D7
:101C20008443B08831890843718908430443AC81F7
:101C3000AC8A24F44074B0890443AC826846FFF750
:101C40009BFD2048854202D01F48854202D1DDF825
:101C50000C9001E0DDF80890A88900F4004040B144
:101C600009EBC90000EB091031684900B0FBF1F73E
:101C700007E009EBC90000EB091031688900B0FBEF
:101C8000F1F76420B7FBF0F004012009642101FBA7
:101C90001078A88900F4004040B1322000EBC80061
:101CA000B0FBF1F000F00700044308E0322000EB45
:101CB00008106421B0FBF1F000F00F0004432C8108
:101CC000BDE8FF87001001400014014001468888EC
:101CD000C0F308007047C1F308028280704700BF5C
:101CE000FEE703B401984100009850EAC12018BFF4
:101CF00004204A0D18BF40F0010040F2FF72B2EB21
:101D0000515F08BF40F00200012808BF052002B063
:101D1000704730380A2801D20120704700207047F0
:101D2000014600BF704700002DE9FC414FF000085C
:101D30000026002700250024FF208DF80000AA209F
:101D40008DF8010005208DF8020000208DF80300B9
:101D50008DF8040000BF04E01DF80400FFF742FE08
:101D6000641C052CF8DB642000F0DEF8FF208DF801
:101D70000000AA208DF8010006208DF80200002046
:101D80008DF803008DF80400002404E01DF8040021
:101D9000FFF728FE641C052CF8DB642000F0C4F873
:101DA000FF208DF80000AA208DF8010007208DF893
:101DB000020000208DF803008DF80400002404E0E8
:101DC0001DF80400FFF70EFE641C052CF8DB6420F0
:101DD00000F0AAF84FF0000810E01E2000F0A4F870
:101DE0004148B0F9000006443F48B0F902000744FA
:101DF0003D48B0F90400054408F10108B8F1640F4A
:101E0000EBDB642096FBF0F697FBF0F795FBF0F523
:101E1000A5F50065FF208DF80000AA208DF80100CF
:101E200005208DF80200F0B28DF80300300A8DF81D
:101E30000400002404E01DF80400FFF7D3FD641C37
:101E4000052CF8DB642000F06FF8FF208DF800000F
:101E5000AA208DF8010006208DF80200F8B28DF856
:101E60000300380A8DF80400002404E01DF8040083
:101E7000FFF7B8FD641C052CF8DB642000F054F873
:101E8000FF208DF80000AA208DF8010007208DF8B2
:101E90000200E8B28DF80300280A8DF8040000243F
:101EA00004E01DF80400FFF79DFD641C052CF8DB21
:101EB000642000F039F8FF208DF80000AA208DF88A
:101EC000010000208DF802008DF803008DF8040059
:101ED000002404E01DF80400FFF784FD641C052CB9
:101EE000F8DBBDE8FC8100000800002010B50446C6
:101EF0006FF00400FFF72CFDE11704EB5171C1F303
:101F0000C701074A11701046007800EB4001C1EB91
:101F1000C0104FF6FF7101EAC0000249088010BDF1
:101F2000520000205400002070B504464FF40770A2
:101F300094FBF0F0C6B24FF4077094FBF0F100FB95
:101F4000114085B205E04FF4077000F009F8701EEB
:101F5000C6B2002EF7D115B1284600F001F870BDC9
:101F60000146114A12884A434FF0E0235A61002289
:101F70009A611A46126942F001021A6100BF4FF0DD
:101F8000E022106900F001021AB100F48032002A48
:101F9000F5D04FF0E022126922F001024FF0E02369
:101FA0001A6100229A6170475400002000BF054A60
:101FB000128802F04002002AF9D0C2B2014B9A8086
:101FC00070470000001001402DED068BA0B04FF4CB
:101FD000A060FFF795FBA820FFF788FF4FF4E130E2
:101FE00000F012FA4FF4165000F0B8F94FF47A707E
:101FF000FFF79AFFFFF798FE53E14FF4FA70FFF7EF
:1020000093FFA848C08800EE100AB8EE400A9FED82
:10201000A61AC0EE010AA348407900EE100AB8EEF5
:10202000400A30EE800A10EE104A204600F05EFAB8
:1020300041EC180B8DED048B9A4800799949C978C9
:10204000984A9278CDE90021029096484378027828
:1020500096A107A8FEF728F907A99CA0FEF718F992
:102060000A20FFF761FF9A48B0F9040000EE100A59
:10207000B8EEC00ADFED970A80EE201AB3EE000A30
:1020800021EE000A10EE104A204600F02FFA41EC33
:10209000180B8F48B0F9020000EE100AB8EEC00A23
:1020A0009FED8C1AC0EE010AB3EE000A20EE800A02
:1020B00010EE104A204600F019FA41EC190B844842
:1020C000B0F9000000EE100AB8EEC00ADFED810A98
:1020D00080EE201AB3EE000A21EE000A10EE104A3C
:1020E000204600F003FA41EC1A0B8DED028B8DEDCA
:1020F000009B53EC1A2B78A107A8FEF7D5F807A987
:1021000072A0FEF7C5F80A20FFF70EFF7848B0F975
:10211000040000EE100AF8EEC00A9FED6E1A80EE81
:10212000810ADFED740A20EE200A10EE104A2046E4
:1021300000F0DCF941EC180B6D48B0F9020000EE3C
:10214000100AB8EEC00A9FED631AC0EE010A9FEDB7
:10215000690A20EE800A10EE104A204600F0C6F907
:1021600041EC190B6248B0F9000000EE100AF8EEDD
:10217000C00A9FED581A80EE810ADFED5E0A20EE5C
:10218000200A10EE104A204600F0B0F941EC1A0B7C
:102190008DED028B8DED009B53EC1A2B56A107A8F9
:1021A000FEF782F807A949A0FEF772F80A20FFF7A8
:1021B000BBFE5748B0F9040000EE100AB8EEC00AA2
:1021C0009FED441AC0EE010A9FED520A20EE800AEC
:1021D00010EE104A204600F089F941EC180B4C48EB
:1021E000B0F9020000EE100AB8EEC00A9FED391AED
:1021F000C0EE010A9FED470A20EE800A10EE104A59
:10220000204600F073F941EC190B4148B0F9000089
:1022100000EE100AB8EEC00A9FED2E1AC0EE010AB9
:102220009FED3C0A20EE800A10EE104A204600F096
:102230005DF941EC1A0B8DED028B8DED009B53EC9B
:102240001A2B35A107A8FEF72FF807A91FA0FEF744
:102250001FF80A20FFF768FE3548B0F90400009027
:102260003348B0F90230B0F9002032A107A8FEF7D8
:102270001BF807A915A0FEF70BF81548B0F90400E4
:1022800000901348B0F90230B0F900202DA107A842
:10229000FEF70AF807A90DA0FDF7FAFF0A20FFF7DD
:1022A00043FEAAE60000002000007A4454696D65F0
:1022B0003A323025642D25642D25642025643A2585
:1022C000643A252E33660D0A0000000025730000D5
:1022D00008000020000000474163633A252E336662
:1022E00020252E336620252E33660D0A00000000BF
:1022F000100000200000FA444779726F3A252E330F
:102300006620252E336620252E33660D0A00000038
:102310001800002000003443416E676C653A252E9A
:10232000336620252E336620252E33660D0A0000E5
:10233000200000204D61673A256420256420256433
:102340000D0A00004163635F4F726967696E616CDB
:102350003A25642025642025640D0A0010B588B054
:10236000044601210846FFF7D7F901214804FFF789
:10237000E3F9072202212248FFF75DF90722032132
:102380001F48FFF758F90C20059002208DF818001F
:102390008DF8190000208DF81A0001208DF81B001F
:1023A00005A91748FFF7FFF801940020ADF80800D1
:1023B000ADF80A00ADF80C00ADF810000C20ADF837
:1023C0000E0001A90F48FFF717FC26208DF81C000E
:1023D00000208DF81D0003208DF81E0001208DF8CF
:1023E0001F0007A8FFF750F9012240F225510548C8
:1023F000FFF7DDFB01210348FFF7A3FB08B010BD89
:10240000000002400044004010B588B0044601219D
:102410000846FFF781F901211020FFF79DF90722F7
:1024200009212248FFF707F907220A211F48FFF771
:1024300002F94FF4C060069002208DF81C008DF860
:102440001D0000208DF81E0001208DF81F0006A938
:102450001648FFF7A8F802940020ADF80C00ADF87C
:102460000E00ADF81000ADF814000C20ADF812000D
:1024700002A90F48FFF7C0FB01210D48FFF761FBE0
:10248000012240F225510A48FFF791FB25208DF8E3
:10249000040003208DF805008DF8060001208DF85A
:1024A000070001A8FFF7F0F808B010BD00000240D7
:1024B0000010014010B500290AD00878002807D084
:1024C00005487844FEF7D6FB002801D0002010BD57
:1024D0000248784410BD0000CE010000C601000093
:1024E0000808A0F500114FEA3101704743004FEA98
:1024F000D30C4FEA3C0C43401FBF40070CF1605126
:1025000013F0FE4F70471CF0006F03D100200CF059
:10251000004170470CF0004343EA507010B540EAA8
:10252000CC0000F00EF800BF000000924FEA00015E
:10253000FFF7D6BF4FF000414FF00000A1F500219A
:1025400070470EF1020E2EF0030E5EF8044B24428B
:1025500004D44FEA4102B2F17F4F11D84FEA400351
:10256000B3F17F4F0CD80ED14FEAD07CB2F17F4F40
:102570000CEB4C0C0CF1020C08BF4CEBD17C04E0D2
:102580004FF0080C01E04FEAD17C0CEB4C0324FA2D
:1025900003F404F00704B4F1040C06D20EEB840C2F
:1025A000BDE810404CF0010C6047DFE80CF0070874
:1025B00002024FF00040A0F5800010BD0846420026
:1025C00018BFD2F1807288BF00F0004010BD4FF0FC
:1025D0004070E1EE100A7047FEF79DB8024000001F
:1025E000000000A00000000005400000000000C83E
:1025F000000000000C4000000000409C00000000B3
:10260000194000000020BCBE000000003440000063
:10261000BFC91B8E00000004B5400000504BCFD056
:102620006607E2CF010000006C4100003E8251AA23
:10263000DFEEA73401000000D9420000DCB5A0E2C3
:102640003A301F97FFFFFFFFB4450000FD25A0C8EB
:10265000E9A3C14FFFFFFFFFFF3F00000000008024
:1026600000000000FF3F00000000008000000000AC
:10267000AC2600080000002070000000C401000823
:102680001C2700087000002028090000E001000855
:102690001C00000043000000F8FFFFFF0C000000DA
:1026A0000E0000000F0000002E00000000000000DF
:1026B000000000000000000000000000000000001A
:1026C000000000000000000000000000000000000A
:1026D00000000000000000000000000000000000FA
:1026E00000000000000000000000000000000000EA
:1026F00000000000000000000000000000000000DA
:1027000000000000000000000000000000000000C9
:0C2710000102030401020304060708098B
:040000050800018965
:00000001FF
