:020000040800F2
:1000000060270020C1010008C53F0008CB3400086C
:10001000A93F00085B0A00086D56000800000000B8
:10002000000000000000000000000000894B0008F4
:10003000E50E000800000000C54000083F4F000822
:10004000DB010008DB010008DB010008DB01000820
:10005000DB010008DB010008DB010008DB01000810
:10006000DB010008DB010008DB010008DB01000800
:10007000E10D0008ED0D0008F90D0008DB01000896
:10008000DB010008050E0008DB010008DB010008A9
:10009000DB010008DB010008DB010008DB010008D0
:1000A000DB010008DB010008DB010008DB010008C0
:1000B000DB010008DB010008DB010008DB010008B0
:1000C000DB010008DB010008DB010008DB010008A0
:1000D000DB010008DB010008DB01000855560008C1
:1000E000DB010008DB010008DB010008DB01000880
:1000F000DB010008DB010008DB010008DB01000870
:10010000DB01000801410008DB010008DB010008F9
:10011000FD500008DB01000829500008DB01000841
:10012000DB010008110E0008DB0100081D0E0008AD
:10013000DB010008DB010008DB010008DB0100082F
:10014000DB010008DB010008DB010008DB0100081F
:10015000DB010008290E0008350E00086156000872
:10016000DB010008DB010008DB010008DB010008FF
:10017000DB010008DB010008DB01000800000000D3
:10018000DB010008A1100008095100081551000802
:10019000DB010008DB010008DB010008DB010008CF
:1001A0000000000000000000DB010008DFF80CD0B8
:1001B00000F0E4FB0048004795820008602700201B
:1001C0000648804706480047FEE7FEE7FEE7FEE7F1
:1001D000FEE7FEE7FEE7FEE7FEE7FEE7D54F000895
:1001E000AD010008D0ED060A90ED070A002930EEB7
:1001F000801A90ED080A31EE001A80ED001AB0EE78
:10020000001A51EE400AC0ED010A80ED020A08BF53
:1002100070470021C1600161416170472DE9F05FC5
:100220000546002092469B46884606468146402465
:100230001BE0284641464746224600F080FA5346D6
:100240005A46C01A914110D311461846224600F072
:1002500067FA2D1A67EB01084F462246012000215C
:1002600000F05EFA17EB00094E41201EA4F10104D4
:10027000DFDC484631462A464346BDE8F09F40EA67
:1002800001039B0703D009E008C9121F08C0042A14
:10029000FAD203E011F8013B00F8013B521EF9D2FB
:1002A0007047D2B201E000F8012B491EFBD2704723
:1002B0000022F6E710B513460A4604461946FFF732
:1002C000F0FF204610BD2DE9FE4F804681EA030075
:1002D000C00F0C46009021F0004123F00045B8EB20
:1002E0000200A94105D24046214690461C460B46D5
:1002F000024623F00040104347D0270DC7F30A0001
:10030000C3F30A510290401A019040286BDAC3F3FC
:10031000130040F4801B0098924620B10023D2EBDA
:10032000030A63EB0B0B01985946C0F1400250469B
:1003300000F0F6F906460D4650465946019A00F07F
:100340000EFA10EB08006141002487EA115284EA9A
:10035000E7731A4340D0009A62B3019A012A4FEA28
:10036000075215DC001B61EB02014FF0004202EA6C
:100370000752CDE90042001C41F5801132462B4660
:1003800000F045FA03B0BDE8F08F40462146F9E79A
:10039000001B61EB0201001C41F5801300185B415A
:1003A0002018A2F5001747EB030140EAD570B619F3
:1003B0006D4111E06D084FEA360645EAC0754FEA17
:1003C0000752001B61EB0201001C41F58011490836
:1003D0004FEA30000019514132462B4603B0BDE8C8
:1003E000F04F00F005BA0098012240000023D0EB46
:1003F000020263EBE073009821464FEAE074B8EB29
:10040000000061EB0401E9E783F000435BE781F062
:10041000004158E72DE9FE4F81EA030404F000444F
:1004200021F0004100944FF0000B23F0004350EA0C
:1004300001045ED052EA03045BD0C3F30A54C1F353
:100440000A552C44A4F2F3340194A0FB0254C1F3E6
:10045000130141F48011C3F3130343F4801301FB30
:10046000024400FB034E840A970A44EA815447EA97
:100470008357A4FB076802958D0A05FB07854FEAA1
:10048000932C04FB0C542705029D4FEA065847EABB
:100490001637B5EB08056EEB070C870E920E47EA90
:1004A000811742EA8312A7FB0201B6EB0B0164EB52
:1004B00000042B0D43EA0C335E1844EB1C50DA4663
:1004C0005146E7FB0201C5F313044FEA0B3343EA3D
:1004D00014534FEA0432019C43EA0603A4F10C04CE
:1004E0000294009CCDE900B400F091F903B0BDE89E
:1004F000F08F00200146F9E72DE9F04D81EA030471
:1005000004F0004B21F0004514464FF0000A23F0A0
:10051000004150EA050220D054EA01021DD0C5F383
:100520000A570246C5F31303C1F31300C1F30A5679
:1005300040F4801543F48013A7EB0608101BD64641
:1005400008F2FD3873EB050002D308F1010801E061
:1005500092185B41B8F1000F03DA00200146BDE8B4
:10056000F08D00204FF48011064684460EE0171BE4
:1005700073EB050705D3121B63EB050306434CEA37
:10058000010C49084FEA300092185B4150EA01071C
:10059000EDD152EA030012D082EA040083EA050199
:1005A000084305D0101BAB4106D20122002306E010
:1005B00000224FF0004302E06FF0010253101AEBEB
:1005C00006004CEB085110EB0A0041EB0B01BDE8B3
:1005D000F04D00F00DB90EB5C10F80EAE07008448F
:1005E000CA07002140F233438DE80E000A460B464D
:1005F00000F00DF903B000BD70B5C1F30A5201F06F
:1006000000450024C1F3130140F2FF3341F480118F
:100610009A4201DA002070BD40F233439A42A2F2BE
:10062000334203DC524200F08AF800E090402C4351
:10063000F1D0404270BD00F0004230F000400AD0DE
:10064000C10D01F56071C0F3160042EA0151C20804
:1006500040071143704700200146704730B5041E23
:1006600071F1000404DB4FF00044404264EB0101EF
:10067000141E73F1000405DB1C464FF00043524288
:1006800063EB04038B4208BF824230BD30B5041EC9
:1006900071F1000404DB4FF00044404264EB0101BF
:1006A000141E73F1000405DB1C464FF00043524258
:1006B00063EB0403994208BF904230BD01F0004350
:1006C00030B421F0004150EA010206D00A0DA2F533
:1006D0006072C1F31301002A02DC30BC00207047B5
:1006E000440F44EAC104C100E01830BC00EBC25022
:1006F00000F047B830B50B46014600202022012407
:1007000009E021FA02F59D4205D303FA02F5491BDF
:1007100004FA02F52844151EA2F10102F1DC30BDF5
:10072000202A04DB203A00FA02F1002070479140B1
:10073000C2F1200320FA03F3194390407047202AA6
:1007400004DB203A21FA02F00021704721FA02F37B
:10075000D040C2F120029140084319467047202A38
:1007600006DBCB17203A41FA02F043EAE07306E0D9
:1007700041FA02F3D040C2F12002914008431946E9
:1007800070470029A8BF7047401C490008BF20F0EF
:100790000100704710B4B0FA80FC00FA0CF050EA87
:1007A000010404BF10BC704749B1CCF1200421FA08
:1007B00004F411FA0CF118BF012121430843A3EB03
:1007C0000C01CB1D4FEA00614FEA102042BF002010
:1007D00010BC704700EBC35010440029A4BF10BCEC
:1007E0007047401C490008BF20F0010010BC704752
:1007F00010B5141E73F1000408DA401C41F1000129
:1008000092185B411A4301D120F0010010BD2DE97F
:10081000F04D92469B4611B1B1FA81F202E0B0FA76
:1008200080F220329046FFF77BFF04460F4640EAF5
:100830000A0041EA0B0153465A46084313D01146B9
:1008400053EA010019D0C8F140025046FFF777FF84
:1008500005460E46504659464246FFF761FF08439B
:1008600005D0012004E020463946BDE8F08D002087
:10087000054346EAE0762C4337430A986305E40AC9
:10088000A0EB08000022FD0A44EA47540A3002D5D2
:1008900000200146E9E7010510196941DDE9084535
:1008A00000196941BDE8F04DA2E72DE9F04D0023A4
:1008B0001A461B1A8A4103DB00200146BDE8F08D71
:1008C000C1F30A52C1F3130141F480154FF0000B3C
:1008D000D10702D100186D41521E0027044640F294
:1008E000FF11384601EB620A3E4680460246002070
:1008F0004FF48011FFF723FFC2197141BB1846EB7B
:100900000100B4EB030C75EB000C04D3E41A65EBA7
:10091000000517460E46241908F101006D41804676
:100920003428E3DDF91946EB0600091BA84103D280
:100930004FF0FF32134601E0002213461BEB070085
:1009400046EB0A51BDE8F04DFFF752BFC1F30A5222
:10095000C1F3130140F2FF3341F480119A4202DAED
:1009600000200146704740F233439A42A2F23342DC
:1009700002DC5242FFF7E3BEFFF7D2BE064C074D42
:1009800006E0E06840F0010394E80700984710345F
:10099000AC42F6D3FFF70EFC689400088894000878
:1009A0000EB540F2334102910021CDE900110A4613
:1009B0000B46FFF72CFF03B000BD7047014601480E
:1009C00001F07ABB4C05002010B5044801F086FB0D
:1009D000042801D0012010BD002010BD4C050020CE
:1009E00038B501208DF800009DF80000012801D0E5
:1009F000012038BD064801F06BFC040006D14FF41D
:100A00000061034801F02EFA00B10124204638BDF0
:100A10004C05002038B50024009313460A460146D1
:100A2000034801F033FD00B10124204638BD000029
:100A30004C0500207047000038B500240093134691
:100A40000A460146034801F003FE00B10124204696
:100A500038BD00004C0500207047FEE710B52DEDB5
:100A6000088BB0EE43BAF0EE63BAB0EE428AF0EE15
:100A7000628AB0EE41AAF0EE61AA00F097F9B0EEFA
:100A8000409AF0EE609AB0EE4A0AF0EE6A0A00F080
:100A90008DF9B0EE40AAF0EE60AAB0EE480AF0EE92
:100AA000680A00F083F9B0EE408AF0EE608AB0EE9A
:100AB0004B0AF0EE6B0A00F079F953EC102B51EC75
:100AC0001A0BFFF7A1FC41EC100B05F081FAB0EE18
:100AD00040AAF0EE60AA53EC182B51EC190BFFF76B
:100AE00093FC41EC100B05F073FAB0EE40BAF0EE57
:100AF00060BAB0EE4A0AF0EE6A0A02F0E7FCB0EE25
:100B000040AAF0EE60AAB0EE480AF0EE680A05F0DE
:100B1000FBF9B0EE408AF0EE608AB0EE490AF0EEE2
:100B2000690A05F0F1F953EC182B51EC100BFFF7A3
:100B300071FC53EC1A2BFFF76DFC41EC180BB0EE77
:100B40004B0AF0EE6B0A02F0C1FC53EC182B51EC8F
:100B5000100BFFF7B8FB41EC100B05F0A9FA04F0FD
:100B6000BFFD9FED061B51EC100B53EC112BFFF753
:100B700051FCBDEC088B41EC100B10BD0000004097
:100B8000104E684103480021017041706421024801
:100B9000FFF78EBB78000020181100200A46094993
:100BA00010B5CB78012B0BD10023CB700146064842
:100BB00002F076FB002803D0BDE8104000F093B9A6
:100BC00010BD0000780000202808002010B500F0BB
:100BD000A7F8BDE8104000F0D1B8000010B5104CE7
:100BE000AA212170552161700D21A1700221E170AF
:100BF0000188A1804188E18081882181C18861814B
:100C00000189A1814089E0810E21A01C06F060FDD0
:100C100020822046BDE810401221FFF7BFBF000030
:100C20008C100020034908688860C8600020887420
:100C300070470000A01000202DE9F0413048807C72
:100C400008B1FFF7EFFF2E4F002578372D4C00F04D
:100C50005BF8002851D000F077F80646A078052808
:100C600047D2DFE800F003070E192500AA2EEED1C7
:100C7000012002E0552E02D10220A070E7E7A57006
:100C8000E5E7FFF77FFF2670657060783918401C34
:100C900060700E700320F0E760783918401C6070B7
:100CA0000E7061782078401C8142D0D10420E4E7A6
:100CB00060783918401C60700E7061782078C01C14
:100CC0008142C4D1207821783844407839448978E9
:100CD00040EA012621780A48491C783006F0F8FCE1
:100CE000B04203D12178781C06F018FDFFF74AFFC7
:100CF000C5E7A570FFF746FFA9E7BDE8F081000052
:100D0000A01000207800002010B5044808F087F8F3
:100D100008B1002010BD012010BD0000A01000206F
:100D200002496422A1F1140008F070B8B410002048
:100D300010B5044808F073F808B1002010BD012078
:100D400010BD0000A010002010B5024808F06FF898
:100D500010BD0000A010002010B50146014808F0A9
:100D600077F810BDA010002010B5FFF7E1FF0028B4
:100D700003D0BDE81040FFF75FBF10BD012202495C
:100D8000024802F0BDB900007F00002028080020C2
:100D9000024801210171C079FFF7DEBF7800002011
:100DA00001490120C8707047780000209FED081BA2
:100DB00010B553EC112B51EC100BFFF72BFB9FEDF3
:100DC000061B53EC112BFFF797FB41EC100B10BDEA
:100DD00000000060FB210940000000000080664028
:100DE000014800F0F9B9000088090020014800F02E
:100DF000F3B9000068080020014800F0EDB90000D8
:100E0000C8080020014800F0E7B9000028090020C8
:100E1000014800F0E1B90000480A0020014800F054
:100E2000DBB9000030060020014800F0D5B9000011
:100E3000D0050020014800F0CFB90000E8090020EB
:100E400001681823CAB2103AB2FBF3F2054B6FF3F4
:100E50000901032A9B5CC36500D9091D8165084609
:100E600070470000A490000810B5014600208B696F
:100E70008A6A4FF0C07453B1B3F5005F15D072B1F8
:100E8000012A0CD0022A0AD0032A09D104E01AB19F
:100E9000012A06D0022A03D1C96AC90100D501205E
:100EA00010BDC96AA142FAD010BD002AF7D0012AAC
:100EB000F2D0022AF3D0032AF3D010BD30B5046873
:100EC000256825F480252560046863608368402BCD
:100ED000036803D099600068C26030BD9A60006802
:100EE000C16030BD7047FEE770B540F2DC522DEDB9
:100EF000048BC189914240D28188941EA142404B0B
:100F0000404A04880AD203EB5403194411808188B3
:100F10000088A1EB500000F2EE2009E0A1EB5401A3
:100F200001F2EE2111808188008803EB5000084413
:100F3000508010884FF4FA635188984203D9081AF8
:100F400000F5FA600CE0994203D9401A00F5FA6006
:100F500010E04FF47A73984207D2081A00F57A70BD
:100F600050801380BDEC048B70BD9942FAD2401AB8
:100F700000F57A7010805380F4E7234E9FED238BA9
:100F8000244D30780028EDD095ED000B53EC182B54
:100F900051EC100BFFF762FB2CD095ED020B53ECDC
:100FA000182B51EC100BFFF759FB23D01A4804689B
:100FB0006069FFF710FB9FED199B53EC192BFFF7AE
:100FC0009BFA41EC180B2069FFF705FB53EC192B3A
:100FD000FFF792FA95EC040B41EC120BB0EE483A95
:100FE000F0EE683AFFF73AFD0E4880ED020B07F08D
:100FF000ADFB01E002F0DAFF00203070B2E7000044
:1010000012FDFFFFE017002000010020000000009B
:1010100000000000F0170020580000200000000031
:10102000D01263410000002010B5FFF79DFE074875
:101030000178012909D1002101700548FFF754FF0B
:10104000BDE810400348FFF7C9BD10BD7E00002079
:10105000D0170020E0170020002200F001B80000A7
:1010600030B50E4B054601205C7A002C14D1587A1D
:101070001C54587A03EB800045605D7A03F1080048
:101080002A54587A421C5A72303008703A204870FC
:101090002F208870CC70002030BD00002C23002051
:1010A0007047000010B503F071FDBDE8104001224B
:1010B0000149024802F024B8380000202807002027
:1010C00010B500F021F80023BDE8104047F230527F
:1010D0001946014806F0DEB93C00002003490868C3
:1010E0008860C8600020887470470000B80A00203B
:1010F00010B5044807F093FE08B1002010BD012090
:1011000010BD0000B80A002003494FF4A062A1F10D
:10111000140007F07BBE0000CC0A00200148807C50
:1011200070470000B80A002010B5024807F07FFEA3
:1011300010BD0000B80A0020034810B5017803482C
:1011400007F086FE10BD000038000020B80A00201D
:1011500090F83510022903D08021416501207047A5
:10116000052180F835100068016821F00101016057
:101170000020704770B504002BD094F83500022889
:1011800026D02068016821F0010101602068002557
:10119000056020684560206885602068C56020681B
:1011A00005612168212048612046FFF749FEE5637B
:1011B00025646564A564E564256594F85C203F2199
:1011C00091408160656584F8355084F83450002082
:1011D00070BD012070BD00002DE9F84304464FF0BA
:1011E0000009CDF8009063484FF41651A56D0068D2
:1011F000B0FBF1F72E6894F85C20082101FA02F0A8
:1012000030420FD02068026852070BD5026822F0E6
:101210000402026094F85C008140A960606D40F0B7
:101220000100606594F85C104FF0010808FA01F0C5
:10123000304208D021684969090604D5A860606D6C
:1012400040F00200606594F85C1004208840304251
:1012500008D021680968890704D5A860606D40F04E
:101260000400606594F85C1010208840304218D06B
:1012700021680968090714D5A86020680168490336
:1012800004D50068000308D5A16C07E00168C90512
:1012900003D4016821F008010160216C09B12046E6
:1012A000884794F85C1020208840304231D0216873
:1012B0000968C9062DD5A86094F83500052820686E
:1012C000016806D0490347D5006800031DD4616C4E
:1012D0001CE021F0160101602068416921F08001C5
:1012E0004161206C08B9A06C20B12068016821F030
:1012F0000801016094F85C103F208840A86084F8E1
:10130000349084F83580216D1FE0E16B09B12046EF
:101310008847606D00282BD0606DC00714D0052071
:1013200084F835002068016821F00101016000980F
:10133000401C0090B84203D820680068C007F6D16E
:1013400084F8349084F83580E16C002910D001B025
:101350002046BDE8F04308470168C905D5D40168B7
:1013600021F01001016084F8349084F83580CCE7D6
:10137000BDE8F883D80000202DE9F041044600F0D4
:1013800049FA05465CB1002684F83460022084F8EE
:1013900035002068016821F0010101600DE00120A5
:1013A000BDE8F08100F036FA401B052805D9202061
:1013B0006065032084F83500F2E720680068C00704
:1013C000F0D121680A6820480240D4E9010318439B
:1013D000D4E903352B43184363691843A3691843C1
:1013E000E3691843236A18431043626A042A03D14D
:1013F000D4E90B231A431043086020684069656AEA
:1014000020F0070128460D43012704280CD1A06ACB
:101410000543E06A40B12046FFF726FD20B1402099
:10142000606584F83570BAE7206845612046FFF7AB
:1014300007FD94F85C203F2191408160666584F847
:1014400035700020ACE700003F8010F02DE9F0413E
:101450000446866D90F83400002501280DD0012047
:1014600084F8340094F835700020012F07D084F8F8
:10147000340002252846BDE8F0810220FBE7022760
:1014800084F8357060652046FFF718FD94F85C100D
:101490003F208840B0602068016841F0160101607B
:1014A0002068416941F080014161206C20B12068D1
:1014B000016841F0080101602068016841F0010104
:1014C0000160D7E770B5044600F0A4F90546601C3A
:1014D00002D004480078044400F09CF9401BA0426C
:1014E000FAD370BDDC0000202DE9F04FDFF800A139
:1014F000894600224FF0010B4FF00F0C0BFA02F659
:1015000009EA0603B3426ED122F003045444D4F82E
:10151000081895072F0F0CFA07F505EA0108354959
:10152000884201D100212DE03349884201D10121B7
:1015300028E03249884201D1022123E03049884223
:1015400001D103211EE02F49884201D1042119E075
:101550002D49884201D1052114E02C49884201D14E
:1015600006210FE02A49884201D107210AE02949D2
:10157000884201D1082105E02749884201D109218B
:1015800000E00A21B940414514D1D4F80818A94314
:10159000C4F8081821490C689C430C60091D0C68AC
:1015A0009C430C60091D0C689C430C60091D0C6871
:1015B0009C430C60036854000321A1408B430360EB
:1015C000D30800EB83031D6A5407E70E0CFA07F4F7
:1015D000A5431D6283688B4383604368B3434360C4
:1015E000C3688B43C360521C102A87D3BDE8F08FB9
:1015F00000300140000002400004024000080240A8
:10160000000C02400010024000140240001802408A
:10161000001C02400020024000240240003C014027
:101620002DE9F84FDFF8A091002209F1040A0AF130
:10163000040B4FF00F080BF1040E01260B689640C7
:101640003340B34271D14C68022C01D0122C11D11D
:10165000D40800EB84073D6A5407E40E08FA04FC42
:1016600025EA0C05D1F810C00CFA04FC4CEA050C74
:10167000C7F820C007685400032591F804C0A540AE
:101680000CF0030CAF430CFA04FC4CEA070CC0F856
:1016900000C04F68012F05D0022F03D0112F01D0B9
:1016A000122F11D18768D1F80CC0AF430CFA04FC9B
:1016B0004CEA070CC0F808C04768B7430E79C6F378
:1016C000001696403E434660C668AE438D68A5400E
:1016D0003543C5604C68E4006FD53C4C256845F443
:1016E00080452560246822F0030504F480440094BA
:1016F000374C2E19D6F808789407250F08FA05F408
:10170000A743344CA04201D100242EE0324CA04229
:1017100001D1012429E0314CA04201D1022424E06E
:101720002F4CA04202D103241FE046E02D4CA042E2
:1017300001D1042419E02C4CA04201D1052414E06D
:101740002A4CA04201D106240FE0294CA04201D12D
:1017500007240AE0274CA04201D1082405E0264CCA
:10176000A04201D1092400E00A24AC403C43C6F861
:101770000848D9F800404D464E689C43F60300D512
:101780001C432C60DAF8004055464E689C43B60373
:1017900000D51C432C60DBF800405D464E689C433E
:1017A000F60200D51C432C60DEF8004075464E68FA
:1017B0009C43B60200D51C432C60521C102AFFF437
:1017C0003CAFBDE8F88F0000003C014044380240C7
:1017D00000300140000002400004024000080240C6
:1017E000000C0240001002400014024000180240A9
:1017F000001C02400020024000240240426931EAFD
:10180000020200D10904816170470AB18161704709
:101810000904FBE70148806870470000DC000020F5
:10182000024881680278114481607047DC00002022
:101830000B4810B5016841F400710160016841F482
:1018400080610160016841F480710160032000F053
:101850007FF8002000F006F800F024F8002010BD0A
:10186000003C024070B50D4D04464FF47A71287863
:10187000B1FBF0F00A490968B1FBF0F001F020F883
:1018800048B9102C07D200222146501E00F040F823
:1018900000206C6070BD012070BD0000DC000020E5
:1018A000D80000200A4808B5016841F48041016071
:1018B000006800F4804000900548001F016841F076
:1018C00080510160006800F08050009008BD000069
:1018D0004438024000280DDB00F01F020121914036
:1018E0004009800000F1E020C0F88011BFF34F8F65
:1018F000BFF36F8F7047002809DB00F01F02012142
:1019000091404009800000F1E020C0F800117047CC
:10191000F0B40E4B1B68C3F30223C3F10704042C7D
:1019200000D904241D1D072D01D2002300E0DB1E79
:10193000012606FA04F56D1E0D409D409E40761E60
:10194000164045EA0601F0BC03F0BABE0CED00E01B
:10195000064A00F0070110684FF6FF03184040EAFE
:101960000120034908431060704700000CED00E0BF
:101970000000FA052DE9F0470D46040065D0DFF8B8
:101980001491D9F80000EFB200F00F00A84207D27E
:1019900089F80070D9F8000000F00F00A84254D177
:1019A00020683D4E810712D5400703D5306840F4CA
:1019B000E05030602078000703D5306840F4604084
:1019C00030603068A16820F0F00008433060207873
:1019D000C0072DD0304960680839012812D002288C
:1019E00013D0032811D00968890700292DDA31683E
:1019F00021F0030101433160FFF70CFF804641F203
:101A0000883A0EE009688903EFE709688901ECE785
:101A1000FFF700FFA0EB0801514502D90320BDE804
:101A2000F0873068616800F00C00B0EB810FEFD1F7
:101A3000D9F80010484601F00F01A94207D90770F4
:101A4000006800F00F00A84201D00120E7E72078ED
:101A5000400705D53068E16820F4E0500843306065
:101A60002078000706D53068216920F4604040EAFC
:101A7000C100306000F036F83168084AC1F3031144
:101A8000515CC840064908600020FFF7EBFE0020CB
:101A9000C5E70000003C0240083802408C90000876
:101AA000D80000200448054900680968044AC1F3C9
:101AB0008221515CC8407047D8000020083802409D
:101AC0009C9000080448054900680968044AC1F36D
:101AD0004231515CC8407047D800002008380240AD
:101AE0009C900008154810B5006810F00C011448CF
:101AF00013D0144B04290FD008290ED10F4C241FEA
:101B0000216801F03F022168490207D52068C0F32F
:101B10008810A0FB030106E0184610BD2168C1F340
:101B20008811A1FB00010023FEF778FB2168C1F3B7
:101B30000141491C4900B0FBF1F010BD08380240DA
:101B40000024F40000366E012DE9F84F040073D034
:101B50002078BD4DC00748D0BB4808300168C1F3AC
:101B60008101012908D00068C0F3810002280AD150
:101B7000281D0068400206D52868800335D56068B6
:101B80000028E4D031E06068B0F5803F10D0B0F5B7
:101B9000A02F286810D020F480302860286820F416
:101BA000802028606068A0B1FFF734FE06460CE094
:101BB000286840F48030F4E740F480202860F7E79C
:101BC000FFF728FE801B642872D828688003F7D5A9
:101BD0000BE0FFF71FFE064604E0FFF71BFE801B2D
:101BE0006428F1D828688003F7D42078DFF85C9265
:101BF00080074FF0000A3ED593480830016811F085
:101C00000C0F09D00068C0F3810002280BD18E4868
:101C1000001D0068400206D42868800715D5E068DA
:101C2000012809D111E0E068B8B10120C9F800002D
:101C3000FFF7F0FD064605E003E1FFF7EBFD801B33
:101C40000228C1D828688007F7D52868216920F0C4
:101C5000F80040EAC10028600DE0C9F800A0FFF7D5
:101C6000D9FD064604E0FFF7D5FD801B02281FD8EA
:101C700028688007F7D42078000722D5724F74496E
:101C80006069743770B101200860FFF7C3FD064634
:101C900004E0FFF7BFFD801B022809D838688007E1
:101CA000F7D50EE0C1F800A0FFF7B4FD064605E049
:101CB00081E0FFF7AFFD801B02287CD838688007E1
:101CC000F7D42078400769D5DFF87CB14FF00008E1
:101CD0000BF1400BDBF80000C0000CD4DBF8001067
:101CE00041F08051CBF80010DBF800004FF0010804
:101CF00000F080500090574F3868C0050FD4386806
:101D000040F480703860FFF785FD064604E0FFF779
:101D100081FD801B02284ED83868C005F7D54A4F90
:101D2000A068703701280FD00528386810D020F03F
:101D300001003860386820F004003860A068B0B155
:101D4000FFF768FD06460EE0386840F00100F4E752
:101D500040F004003860F7E7FFF75CFD811B41F2BB
:101D60008830814265D838688007F5D50DE0FFF7E7
:101D700051FD064606E0FFF74DFD811B41F288301C
:101D8000814256D838688007F5D4B8F1000F05D0E5
:101D9000DBF8001021F08051CBF80010A069C8B327
:101DA000294908310968C1F38101022949D0022873
:101DB000504607D000E03CE0C9F86000FFF72AFD7C
:101DC000044639E04F46C9F86000FFF723FD064698
:101DD00004E0FFF71FFD801B02282AD82868800135
:101DE000F7D4D4E907010843A16A1B4A490802EB6A
:101DF0000141626A41EA8211084394F82C1040EADA
:101E000001611148001D016001203866FFF702FDE5
:101E1000044605E013E0FFF7FDFC001B022808D88C
:101E200028688001F7D50AE0FFF7F4FC001B0228C0
:101E300002D90320BDE8F88F28688001F4D400207F
:101E4000F8E70120F6E700000038024000004742B2
:101E5000800E4742007000400000FFFF10B5FEF703
:101E6000ACFD10BDFEB5044603200D4684F83400D9
:101E7000606C032820D0B5F5805F1DD0B5F5006FEC
:101E800005D045B1A06B40F00060A06309E020469A
:101E900002F0F4FD02E0204602F0C9FDA16B01430F
:101EA000A163A06B012658B1216840F2FF508863FE
:101EB00084F834600120FEBDA06B40F08050E4E760
:101EC000211DD4E905070EC9CDE90050029720680D
:101ED00002F01CF984F834600020FEBD7047F0B5B4
:101EE000426E120E93090B70C2F383034B7002F023
:101EF00003028A70426E120CCA70B0F86420120A93
:101F00000A7190F864204A71826E4FF6FF73120EC8
:101F100003EA0212CA80826ECB88C2F3074243EA08
:101F20001213CB8002F00F020A72B0F86820C2F3DD
:101F30000722D3094B72C2F380138B72C2F3401392
:101F4000CB72C2F300130B7300244C73456C4FF437
:101F5000007601236DB1012D43D0026840F2FF519C
:101F60009163816B41F08051816380F834300120AE
:101F7000F0BD9207120D0A6190F868200D6945EADC
:101F800082020A61C26E0D69120E45EA92150D6158
:101F9000C2F3C2050D7502F007024A75C26EC2F3A4
:101FA000074255098D75C2F38205CD759207520F10
:101FB0000A76B0F86C200D7EC2F3072245EAD215EE
:101FC0000D760D696D1C45650F7EBF1CBD404565D6
:101FD0000F7A03FA07F787657F0A7D43C0E9175632
:101FE0001CE090F868209206920A0A61C26E0D69A0
:101FF000120E45EA02220A61C26E0D69C2F307425F
:1020000015430D61B0F86C200D69C2F307226D1CF9
:102010004FEA85254565C0E916650666C2F3801559
:1020200001F8195F4FEA82624FEA52624A7010F873
:102030006C2F4D7845EAD2154D7002F07F028A7000
:1020400042684FEA12624FEAD215CD70C2F34115D1
:102050000D71C2F382054D714FEA82724FEA12721E
:102060008A7142688D79C2F3074245EA92158D71F3
:10207000C2F34015CD710C7202F001024A728288DF
:10208000C2F307224FEAD2148C72C2F38014CC72CE
:10209000C2F340140C73C2F300144C73C2F38104F6
:1020A0008C7302F00302CA7300794FEA500008747F
:1020B0004B744FF00000F0BD426C0A60826C4A60C5
:1020C000C26C8A60026DCA60426D0A61826D4A61AB
:1020D000C26D8A61006EC8610020704738B5002566
:1020E00004460095B0F850000104206802F086F91B
:1020F00028B90021206801F0FCFF0090284610B1AB
:10210000A16B0143A1630098C0F3432038BD0000D8
:1021100070B504460068416B40F23A32C9054FF091
:10212000010549D5290281632068C16B9143C163D0
:10213000206B0007206B22D5800702D4206B80061D
:1021400009D5206802F08AF928B1A16B0143A16387
:102150002046FFF7C3FE216840F2FF50886384F8F1
:102160003450206BC00702D1206B800703D5204676
:1021700000F066FA70BD204600F066FA70BD0006F9
:10218000FCD5206B800609D5206802F067F928B1DC
:10219000A16B0143A1632046FFF7A0FE206BC0079F
:1021A000ECD1206B8007E9D42068C16A21F00801D6
:1021B000C16284F83450DEE7416B490410D54FF416
:1021C00080418163266A002506EB8501206801F0C5
:1021D000C6FF6D1C082DF7D3206A2030206270BD29
:1021E000416B090410D54FF400418163A66A0025B4
:1021F000206801F0A1FF46F825006D1C082DF7D3DB
:10220000A06A2030A06270BD416B40F23A231942AF
:10221000F9D0416B890703D5A16B41F00201A1639D
:10222000416B090703D5A16B41F00801A163416B24
:10223000890603D5A16B41F02001A163416BC9065A
:1022400003D5A16B41F01001A163416B890503D552
:10225000A16B41F00801A16340F2FF718163206826
:10226000C16B9143C163206B000623D5206C58B12C
:1022700015490165206CFEF76BFF0028C3D0206C68
:10228000BDE8704002F080BAE06B58B10F490165BB
:10229000E06BFEF75DFF0028B5D0E06BBDE8704055
:1022A00002F04EBA0020A06384F834502046FFF7B5
:1022B000D5FD70BD206B0007FBD584F83450204657
:1022C000FFF70CFE70BD0000894700084147000879
:1022D00070B5040004D094F83400002510B105E076
:1022E000012070BD2577204600F038F8032084F8DF
:1022F0003400204600F008F8A5632563012084F827
:102300003400002070BD0000FEB500250446762094
:102310000095CDE901502B462A462946206801F058
:10232000F5FE0D4E46F8A05F206801F001FF012583
:1023300035600220FFF7C6F8204602F027FB20B9DF
:10234000204602F0B0FA002805D084F83450A16B82
:102350000143A1630120FEBD008025422DE9F04F1D
:1023600087B0044614216846FDF7A2FF4149206862
:1023700088427CD1404800683F4940F400600860D2
:10238000086800F4006005903B48143800683A493A
:1023900040F0040014390860086800F0040005905B
:1023A000086840F0080008600868022600F008008D
:1023B00005904FF4F850CDE9000602AA002003254D
:1023C0004FF00C0882E8210169462C48FFF728F9F4
:1023D00002AA002082E821010427CDE9007669469F
:1023E0002748FFF71DF9284E26484FF00068C6E938
:1023F000000800204FF48069B060C6E90309B80204
:102400004FF4804BC6E9050BC6E909754FF0200A69
:102410000020C6E907A07D05AF10C6E90B5730467E
:10242000FEF7AAFF08B1FEF75EFDE663B463164E41
:10243000144860364838C6E900084020B0600020E3
:10244000C6E90309C6E907A00420706206F1280264
:10245000032082E8A1004FF48051C6E9051B3046F5
:10246000FEF78AFF08B1FEF73EFD2664B46307B0AD
:10247000BDE8F08F002C01404438024000080240C3
:10248000000C0240A0640240D00500202DE9F04F6E
:1024900087B09B4616460D460446109FFFF7BAF9D3
:1024A00081463DB194F83400012807D0A06B40F07C
:1024B00000500DE0A06B40F0006009E00020A06338
:1024C000E26D06EB0B01914204D9A06B40F0007065
:1024D000A06384E0032184F8341021688046C86238
:1024E000606C012800D076024FF40071206801F082
:1024F0006DFE40F2FF5A012140B12368C3F838A0B5
:10250000A26B0243A26384F8341068E04FF0FF30FE
:1025100000904FEA4B200190902002900220CDE9DC
:102520000308059188466946206801F0CCFDBBF19F
:10253000010F06D9022020633146206801F0D2FE47
:1025400005E0C4F830803146206801F0E3FE38B37E
:102550002268C2F838A0A16B0143A1633DE0406B43
:10256000000409D50026206801F0E6FD45F82600A4
:10257000761C082EF7D320352FB1FFF74BF9A0EBCF
:102580000900B8420CD32168C1F838A0A06B40F014
:102590000040A06384F83480032007B0BDE8F08FCA
:1025A0002068416B40F22A321142D8D0416BC905F4
:1025B00009D5BBF1010F06D9616C032903D001F0E5
:1025C0004DFF0028C4D12068416B090709D5C0F828
:1025D00038A0A06B40F0080025E084F8348001208A
:1025E000DBE7416B890705D5C0F838A0A06B40F048
:1025F000020018E0416B890617D5C0F838A0A06B1F
:1026000040F020000FE001F097FD01C52FB1FFF76A
:1026100001F9A0EB0900B84207D32168C1F838A03E
:10262000A06B40F00040A063D7E72068416B8902AF
:10263000E9D42168C1F838A084F834800020ACE7E0
:1026400010B5FEF7F7F910BD10B5FEF705FA10BD8D
:102650002DE9F04F87B09A4615460E460446DDF840
:1026600040B0FFF7D7F806903EB194F83400012847
:1026700007D0A06B40F000500DE0A06B40F0006070
:1026800009E00020A063E26D05EB0A01914204D944
:10269000A06B40F00070A0632EE0032184F834109A
:1026A00021680020C862606C012800D06D024FF4E0
:1026B0000071206801F08AFD40F2FF584FF00109D7
:1026C000002860D1BAF1010F06D9202020632946E5
:1026D000206801F0DDFE05E0102020632946206817
:1026E00001F0EEFE07000BD02168C1F83880A06B26
:1026F00038436AE084F83490012007B0BDE8F08FD9
:102700004FF0FF3000904FEA4A2001909020029055
:102710000020CDE9040903906946206801F0D3FC4C
:102720001FE0406B400409D5002506EB85012068B9
:1027300001F015FD6D1C082DF7D32036BBF1000FFD
:1027400005D0FFF767F80699411A594509D3216862
:10275000C1F83880A06B3843A06384F8349003201C
:10276000CBE72068416B40F21A321142D9D0416B5D
:10277000C9050FD5BAF1010F0CD9616C032909D035
:1027800001F06CFE30B12268C2F83880A16B0143C1
:10279000A163AFE72068416B090705D5C0F8388011
:1027A000A06B40F0080010E0416B890705D5C0F828
:1027B0003880A06B40F0020007E0416BC0F8388021
:1027C000C90604D5A06B40F01000A06392E784F81E
:1027D0003490002091E770B5040005D00025A56273
:1027E00094F8510010B106E0012070BD84F85050FB
:1027F000204600F031F8022084F85100206801687A
:1028000021F040010160D4E901010843D4E9031239
:102810001143084361690843218B01F400710843A7
:10282000E1690843216A0843A16A084321680860F6
:10283000A069042101EA1040616A084321684860E8
:102840002068C16921F40061C1616565012084F8D7
:102850005100002070BD000010B586B00446142160
:102860006846FDF725FD13492068884220D11248AB
:102870000021026842F480520260006800F4805037
:1028800005900D481438026842F0010202600068A9
:1028900000F001000590E02000900220CDE9010148
:1028A000032003900520049069460448FEF7B8FE13
:1028B00006B010BD00300140443802400000024024
:1028C00010B5401EB0F1807F01D3012010BD4FF044
:1028D000E02460610F21601702F0F2FE0020A06189
:1028E00007202061002010BD7047704770B590F838
:1028F0003C20012A19D0012500F83C5F02224270D9
:1029000050F83C2C5368946823F070060B684968B3
:10291000334324F080042143536050F83C2C9160F1
:10292000457000210170084670BD022070BD10B5D1
:10293000040003D094F83D0010B107E0012010BD61
:10294000002084F83C00204600F00CF8022084F8B7
:102950003D00211D206802F06DFB012084F83D0040
:10296000002010BD08B500680649884208D1064815
:10297000016841F010010160006800F01000009053
:1029800008BD000000100040403802400168CA68DD
:1029900042F00102CA600068816801F0070106295F
:1029A00003D0016841F001010160002070477047C9
:1029B00070B50446006801694FF00005C9438907F6
:1029C00015D4C168C943890711D4E91E01610120EA
:1029D0002077206880698007204602D0FFF7E7FF54
:1029E00004E000F098F8204600F096F8257720687B
:1029F0000169C943490717D4C168C943490713D4BA
:102A00006FF004010161022020772068806910F4D2
:102A1000407F204602D0FFF7CAFF04E000F07BF8B9
:102A2000204600F079F8257720680169C943090735
:102A300016D4C168C943090712D46FF008010161B7
:102A4000042020772068C0698007204602D0FFF765
:102A5000AEFF04E000F05FF8204600F05DF8257757
:102A600020680169C943C90617D4C168C943C906AA
:102A700013D46FF010010161082020772068C0692D
:102A800010F4407F204602D0FFF791FF04E000F0F1
:102A900042F8204600F040F8257720680169C943D4
:102AA000C90708D1C168C943C90704D1891E01619A
:102AB000204600F033F820680169C943090609D4AB
:102AC000C168C943090605D46FF080010161204641
:102AD000FFF70AFF20680169C943490609D4C168A4
:102AE000C943490605D46FF040010161204600F05A
:102AF0002FF820680169C94389060BD4C168C9430E
:102B0000890607D46FF0200101612046BDE87040BE
:102B1000FFF7EBBE70BD70477047000010B500684E
:102B2000094988420ED1094A012313705068401C9C
:102B3000506050680A21B0FBF1F401FB140000283A
:102B400000D1537010BD00000010004010000020A4
:102B5000704710B5040013D0242084F83900206891
:102B6000C16821F40051C160204600F0C7F8002080
:102B7000E06384F8390084F83A0084F8380010BD26
:102B8000012010BD7047000070B50268044610684F
:102B9000D168536910F00F0F50D003F0010501F414
:102BA000907635435DD0C20705D0CA0503D5E26BE8
:102BB00042F00102E263420705D5DA0703D0E26B77
:102BC00042F00202E263820705D5DA0703D0E26B26
:102BD00042F00402E263020705D5DA0703D0E26B94
:102BE00042F00802E263E26B002A33D0800604D58B
:102BF000880602D5204602F016FB20684069E16B8A
:102C0000C0F38010090700D428B3204602F0F4FA7C
:102C10002068416949061AD5416921F040014161A6
:102C2000606BA0B11B490165606BFEF791FA00284B
:102C300010D0606B016DBDE870400847830610D569
:102C40008B060ED52046BDE8704002F0ECBA204657
:102C5000FFF798FF70BD2046FFF794FF0020E06368
:102C600070BD030606D50B0604D52046BDE87040AE
:102C700002F07ABC4006F3D54806F1D5D16820466B
:102C800021F04001D160202184F8391000F048FB88
:102C900070BD00002151000870B5040004D094F804
:102CA0003900002510B106E0012070BD84F83850CD
:102CB000204600F097F8242084F839002068C16885
:102CC00021F40051C160204602F0F8FA2068016941
:102CD00021F4904101612068416921F02A0141619C
:102CE0002068C16841F40051C160E563202084F888
:102CF000390084F83A00002070BD000010B5044689
:102D000000682E4A2E4990420CD1086820F4002019
:102D1000086003212B48FEF7E7FB606BFEF72AFAF9
:102D2000342046E0284B294A98420DD1086820F00B
:102D3000804008604FF4C0711046FEF7D5FB606B11
:102D4000FEF718FA522034E0214B98420CD1086863
:102D500020F00040086003211046FEF7C5FB606BC1
:102D6000FEF708FA532024E01A4A90420DD1086871
:102D700020F4802008604FF440711748FEF7B4FB40
:102D8000606BFEF7F7F9272013E01449884214D14D
:102D90000B48001D016821F020010160C02110488E
:102DA000FEF7A2FB206BFEF7E5F9606BFEF7E2F998
:102DB0004720BDE81040FEF78DBD10BD004C00401F
:102DC00040380240000002400078004000100240FD
:102DD000007C004000480040000C0240001401400C
:102DE000000802402DE9F04F87B0044614216846E0
:102DF000FDF75EFAB548DFF8D0821038D4F800C08D
:102E0000DFF8C89203210222012387150025061549
:102E10004FF0080AC44539D1D9F8008048F4002899
:102E2000C9F80080D9F800C00CF4002CCDF814C00B
:102E3000D0F800C04CF0010CC0F800C0006800F0F1
:102E4000010005908DE80E00CDE9031A6946A048FF
:102E5000FEF7E6FBDFF880829E494046C8F8001086
:102E60004905C0E90115C0E90356C8F81450C91254
:102E7000C8F81850C8E90771C8F82450B8E0C4F879
:102E80003480C8F8384007B0BDE8F08FDFF84C82D6
:102E9000DFF84CE24FF0206BC44537D1D9F8008001
:102EA00048F08048C9F80080D9F800C00CF0804C88
:102EB000CDF814C0D0F800C04CF0100CC0F800C021
:102EC0000068CDE9023100F0100005904FF4C070A9
:102ED000CDE90002CDF810A069467046FEF7A0FBD0
:102EE000DFF8F4817B4908F1600818314046C8F8E2
:102EF0000010C0E901B5C0E90356C8F81450C0E994
:102F00000657C8F82050C8F8245071E0DFF8D48183
:102F1000C44533D1D9F8008048F00048C9F8008092
:102F2000D9F800C00CF0004CCDF814C0D0F800C0A7
:102F30004CF0100CC0F800C0006800F010000590C4
:102F40008DE80E00CDE9031A69467046FEF768FB6E
:102F5000DFF884815F4908F1C00860314046C8F855
:102F60000010C0E901B5C0E90356C8F81450C0E923
:102F70000657C8F82050C8F8245039E0DFF86881B7
:102F8000C4453DD1D9F8008048F48028C9F80080B4
:102F9000D9F800C00CF4802CCDF814C0D0F800C0D3
:102FA0004CF0080CC0F800C0006800F00800059064
:102FB0004FF440708DE80D000720CDE903106946FD
:102FC0004A48FEF72DFB4349DFF824811839404673
:102FD000C8F800104FF00061C0E90115C0E90356C0
:102FE000C8F81450C0E90657C8F82050C8F8245053
:102FF000FEF7C2F900283FF442AFFDF774FF3EE749
:10300000DFF8F080C4457FF43EAFDFF8C0C0A946CA
:103010000CF1040CDCF8008048F02008CCF80080AB
:10302000DCF800C00CF0200CCDF814C0D0F800C0C3
:103030004CF0040CC0F800C00068CDE9023100F08B
:1030400004000590C020CDE90002CDF810A069462B
:103050002948FEF7E5FADFF89880284908F160086A
:1030600040464FF4403AE0E8021B402162C040F87D
:1030700014598561C0E9075A4046C8F82450FEF744
:103080007BF908B1FDF72FFF194D1C48C035C4F876
:1030900030809038C8F83840C5E9000BC5F8089072
:1030A000C5E9039605F118014846C5F8149081E872
:1030B00081042846C5F82490FEF75EF908B1FDF7B3
:1030C00012FF6563AC63DEE6004C0040403802400E
:1030D0000000024040600240680800200078004084
:1030E00000100240007C004000480040000C0240FC
:1030F000880900200014014000080240B864024022
:1031000037B5044690F83A0082B0134620283AD1E9
:10311000039AAAB3A3B394F83800012833D001204E
:1031200084F83800A262A3850025E563222084F894
:103130003A00616B1548C863616B15480864616BA0
:103140001448C864606B05652168606B091DFEF753
:103150007DF9206801684168009184F83850C168A1
:1031600041F48071C1602068416941F00101416111
:103170002068416941F040014161002005B030BD47
:10318000FFE70120FAE70220F8E700007B51000882
:10319000B75100083151000810B5044600680D49C8
:1031A000884201D1FDF7C8FF0B492068884201D150
:1031B00000F0BCFD09492068884201D1FDF7E8FD17
:1031C00007492068884203D1BDE8104000F0A0B94B
:1031D00010BD0000004C0040007C00400014014085
:1031E0000048004070472DE9F843044690F8390044
:1031F0001E4617460D46202850D1A5B19FB194F820
:10320000380001284AD0012084F838004FF0000827
:10321000C4F83C80212084F83900FEF7FBFAA7842B
:103220008146E78426E00120BDE8F883E08C401E5B
:10323000E084A0684B46B0F5805F4FF000024FF08D
:1032400080012046009603D002F0BFF9E8B90DE0F6
:1032500002F0BBF9C8B928882168C0F308004860AB
:10326000206908B16D1C05E0AD1C03E0216815F86C
:10327000010B4860E08C0028D8D14B460022402149
:103280002046009602F0A1F908B10320CCE72020E7
:1032900084F8390084F838800020C5E70220C3E7AD
:1032A000F7B5044690F83900202831D1019969B367
:1032B00062B394F8380001282AD0012084F838003D
:1032C0002162A284E2840025E563212084F839008C
:1032D000236B1048D863236B0F481864236B0F4887
:1032E000D864206B134605652668206B321DFEF7F7
:1032F000ADF821686FF04000086084F8385020680D
:10330000416941F0800141610020FEBD0120FEBD08
:103310000220FEBDC1510008EF51000831510008E4
:1033200000680349884201D1FDF73ABD70470000AB
:1033300000140140704708B50A20FEF7C3F870205A
:103340008DF800006B46012200211E2001F0D6FD01
:10335000202000F06DF801208DF8000002466B4639
:1033600002211E2001F0CAFD0A20FEF7ABF808BDBD
:10337000F0B52DED028B044685B0274B06220321C4
:103380001E2001F023FC24490E784D788B7845EA05
:103390000625CA7808792DB2497900EE105A41EA1B
:1033A000002000B2F8EEC01A00EE100A42EA032034
:1033B00000B2F8EEC00A00EE100A17480C38B8EE5A
:1033C000C01A90ED010A80EE808AC1EE808AC1EEBB
:1033D000000AC4ED008A84ED018AC4ED020A10EEF1
:1033E000900AFDF728F906460F4618EE100AFDF779
:1033F00022F904460D4618EE900AFDF71CF98DE8F7
:10340000F00041EC100B05A053EC102B02F030F94A
:1034100005B0BDEC028BF0BD30000020256C6620AD
:103420002C256C66A3AC256C66200D0A00000000FC
:1034300018B504468DF8000001226B4611461E2087
:1034400001F05CFD1349802C0C701AD008DC202C94
:1034500011D0402C12D0602C0CD19FED0F0A07E048
:10346000A02C11D0C02C12D0E02C03D19FED0B0A60
:1034700081ED010A18BD9FED0A0AF9E79FED090ADF
:10348000F6E79FED090AF3E79FED080AF0E79FEDE5
:10349000080AEDE7240000200080194400005B4387
:1034A00000008044000040440080CF430080B443CB
:1034B0000080994308B501208DF8000002466B4654
:1034C00002211E2001F01AFD08BDFEE79FED0A1B38
:1034D00010B553EC112B51EC100BFCF79BFF41EC9A
:1034E000100B02F081FD53EC102B51EC100BFCF78C
:1034F00091FF41EC100B10BD000000000000E03F08
:1035000010B500F043F9BDE8104000F02DB90000FF
:10351000034810B54178034805F09AFC10BD00003F
:1035200080000020781200202DE9F0417A4C794982
:1035300000272DED048B22788854521CD0B22070C5
:103540000A78552A12D10B287DD34878734D50380C
:103550000A280BD2DFE800F0050B3B639BBBC1C719
:10356000CDD351F8020FA0604868E060CCE051F87C
:10357000020F20614868606167481030B0F90010A0
:1035800000EE101AF8EEC00A9FED650A20EE801AD0
:10359000DFED640A21EE201A85ED001AB0F9021061
:1035A00001EE101AB8EEC11A21EE001A21EE201A0F
:1035B00085ED011AB0F9040001EE100AB8EEC11A47
:1035C00021EE000A20EE200A85ED020A9CE051F867
:1035D000020FA0614868E0614F481830B0F9001050
:1035E00000EE101AF8EEC00A9FED4F0A80EE801A26
:1035F00085ED031AB0F9021000EE901AF8EEE00A19
:1036000080EE801A85ED041AB0F9040000EE900AED
:10361000F8EEE00A80EE801A85ED051A74E051F8A4
:10362000020F3D4E2062486820366062B6F9000005
:10363000FCF7D1FF9FED3D8B53EC182BFCF7EAFE16
:103640009FED3C9B00E060E053EC192BFCF7E2FEA1
:10365000C5E90A01B6F90200FCF7BDFF53EC182BCF
:10366000FCF7D8FE53EC192BFCF7D4FEC5E90C018E
:10367000B6F90400FCF7AFFF53EC182BFCF7CAFEB9
:1036800053EC192BFCF7C6FEC5E90E013CE051F8DE
:10369000020FA0624868E0621F482830B0F90010AD
:1036A00000EE101AB8EEC00A85ED060AB0F9021055
:1036B00000EE101AB8EEC00A85ED070AB0F9040052
:1036C00000EE100AB8EEC00A85ED080A1CE051F8B9
:1036D000020F20634868606316E051F8020FA06390
:1036E0004868E06310E051F8020F206448686064A5
:1036F0000AE051F8020FA0644868E06404E051F861
:10370000020F2065486860652770BDEC048BBDE83A
:10371000F08100007C110020800000209017002024
:103720000000003ACDCC1C416F1283410000000024
:103730000000003F00000000008066400349086868
:103740008860C860002088747047000078120020EC
:1037500010B5044805F063FB08B1002010BD01203E
:1037600010BD00007812002003494FF4A062A1F1BF
:10377000140005F04BBB00008C12002010B502486D
:1037800005F055FB10BD000078120020012202490F
:103790000248FFF7B5BC000081000020E8070020C8
:1037A0000D4810B54168491C416040680A21B0FBD2
:1037B000F1F201FB120000280DD10848807C30B1E5
:1037C000FFF7BCFF03E0FFF7D9FFFFF7ADFEFFF700
:1037D000BFFF0028F7D110BD800000207812002024
:1037E00001F024BF08480168491C01600068FA2103
:1037F000B0FBF1F201FB1200002804D14FF480511C
:103800000248FDF7FBBF7047200000200010024077
:10381000F0B52348ADF5057D807C08B100F092FB42
:10382000204D002705F1300600F096FB002833D02C
:1038300000F0A8FB1C4B044603F2111C224629464B
:103840003046CDF800C004F073FD022814D00028E3
:10385000EAD015494FF4807210316846FCF70FFD2D
:103860004FF48872104940A8FCF709FD40AC94E879
:103870000F0000F06FFAD7E7AA783146521CAA7001
:1038800001222F70EA70FE2CCED10222EA70CF7096
:103890004FF6FF703080C7E70DF5057DF0BD0000E5
:1038A000701C002000180020EF2100200A4810B5ED
:1038B0008168491C816080680A21B0FBF1F201FB3C
:1038C0001200002806D10548FFF752FDBDE8104060
:1038D000FFF7F0BD10BD000024000020A80A002062
:1038E000094808B5016841F400110160016801F45C
:1038F00000110091016841F480010160006800F44A
:103900008000009008BD00003038024008B50B4927
:103910000B48FDF7A1FB09490022491E0870491C0C
:10392000084804F03BFA4FF400700090064B002268
:103930000721024803F08CFF08BD00001A00002098
:103940005C9000081C0100204C0300202DE9F04F82
:1039500087B014216846FCF7ABFC3C4800240168A2
:1039600041F004010160016801F004010591016862
:1039700041F080010160016801F08001059101685A
:1039800041F001010160016801F001010591016848
:1039900041F010010160016801F01001059101681A
:1039A00041F008010160016801F00801059101681A
:1039B00041F0020101600068DFF8948000F002002D
:1039C0004AF204050590012229464046FDF71DFFF5
:1039D0000122DFF88090160331464846FDF715FFB7
:1039E000DFF874A0012280215046FDF70EFFDFF8BA
:1039F0006CB04FF44077012239465846FDF705FF79
:103A000000950125CDE90154694640460394FDF730
:103A100007FE0096CDE90154694648460394FDF738
:103A2000FFFD80200090CDE9015469465046039483
:103A3000FDF7F6FD0097CDE9015469465846039419
:103A4000FDF7EEFD07B0BDE8F08F00003038024012
:103A50000008024000100240000C02400004024036
:103A600010B5002211460C20FDF752FF0C20FDF787
:103A700042FF002211460D20FDF74AFF0D20FDF701
:103A80003AFF002211460E20FDF742FF0E20FDF7FF
:103A900032FF002211461120FDF73AFF1120FDF7F9
:103AA0002AFF012211462720FDF732FF2720FDF7CC
:103AB00022FF032202213120FDF72AFF3120FDF7EA
:103AC0001AFF032202213420FDF722FF3420FDF7E4
:103AD00012FF012202213620FDF71AFF3620FDF7E2
:103AE0000AFF002211463920FDF712FF3920FDF7A9
:103AF00002FF002202213B20FDF70AFF3B20FDF7D9
:103B0000FAFE012202214520FDF702FF4520FDF7C4
:103B1000F2FE002211464620FDF7FAFE4620FDF790
:103B2000EAFE002211464720FDF7F2FE4720FDF78E
:103B3000E2FE002211465120FDF7EAFE5120FDF77A
:103B4000DAFE032211465220FDF7E2FE5220FDF775
:103B5000D2FE022201215320FDF7DAFEBDE810401B
:103B60005320FDF7C8BE000006480549016000214A
:103B700041608160C1600161416181617047000005
:103B8000002C01404C050020104810B50E49016082
:103B90004FF482714160002102228160C0E903126A
:103BA000012242615202C0E9062101624162816242
:103BB0000A21C162FEF70FFE002803D0BDE81040C5
:103BC000FDF791B910BD00000030014090060020C3
:103BD0001CB500240E4800940C4901940160532147
:103BE000C0E9011440F2CF718461C160FEF79FFE0D
:103BF00008B1FDF778F90094694605480194FEF78D
:103C000075FE002801D0FDF76EF91CBD00100040C4
:103C1000E80600200C4810B50A4901604FF416511F
:103C20004160002181600C22C160C0E90412816101
:103C3000C161FFF731F8002803D0BDE81040FDF75F
:103C400052B910BD004C0040280700200C4810B5A8
:103C50000A4901604FF4E1314160002181600C228A
:103C6000C160C0E904128161C161FFF715F8002845
:103C700003D0BDE81040FDF736B910BD0078004014
:103C8000680700200C4810B50A4901604FF46141F3
:103C90004160002181600C22C160C0E90412816191
:103CA000C161FEF7F9FF002803D0BDE81040FDF721
:103CB0001AB910BD007C0040A80700200C4810B5C0
:103CC0000A4901604FF4E1314160002181600C221A
:103CD000C160C0E904128161C161FEF7DDFF002807
:103CE00003D0BDE81040FDF7FEB810BD004800400D
:103CF000E80700200C4810B50A4901604FF4E13193
:103D00004160002181600C22C160C0E90412816120
:103D1000C161FEF7C1FF002803D0BDE81040FDF7E8
:103D2000E2B810BD0014014028080020034810B577
:103D30000178034805F08CF810BD0000E800002071
:103D4000701C002010B500F025F9BDE8104000F00F
:103D50000FB900000FB42DE9F043DFF8AC81DFF8B4
:103D6000AC91A8F10A052DED028B83B00EAC9DF845
:103D700037009DF833202C2839D008DC012815D0D5
:103D8000272813D1624E252A44D2174643E04928FA
:103D900079D04B2807D04C2808D15D4E463E212AC9
:103DA0000BD215460AE05BA001F062FC03B0BDEC4B
:103DB000028BBDE8F0035DF814FB2125212130467C
:103DC000FCF776FA2A4621463046FCF758FA504965
:103DD000002046398A8BADF8082003218F22CDE9D7
:103DE00000120B468DF80A0002AA4D2147E0464812
:103DF000042A00D30422002606602146FCF73FFA7D
:103E0000B8F80010E980AE8098F8032098F8021006
:103E1000334674E0252725213046FCF749FA3A4617
:103E200021463046FCF72BFA394CA08B411C89B255
:103E3000A980EA88521E90420AD154F8100FFCF76C
:103E4000FAFB4D46C5E900016068FCF7F4FB48E069
:103E5000ACDA98F8023098F80320ADF808108DF825
:103E60000A308DF80B204FF004014FF0E602CDE947
:103E700000120B464FF0000002AA4FF0280102F09A
:103E80004BFE93E7FFE7224E253E252A01D2174637
:103E900000E0252725213046FCF70AFA3A4621465C
:103EA0003046FCF7ECF91A4C253CA08B411C8BB238
:103EB000AB80E988491E88421CD154F8100FFCF7EA
:103EC0008AFB9FED1E8B53EC182BFCF715FB4D4620
:103ED000C5E900016068FCF77EFB53EC182BFCF78A
:103EE0000BFBC5E902010023627C217C184604F02B
:103EF000CBFA5BE7C5DA94F8212094F820104FF054
:103F0000000004F0D2FA51E7F2000020F017002080
:103F1000CA21002074686973206973206E6176205D
:103F2000776179706F696E7420636F6D6D616E6417
:103F30002066726F6D205147430D0A00000000009B
:103F4000D0126341034908688860C8600020887403
:103F500070470000701C002010B5044804F05FFF9B
:103F600008B1002010BD012010BD0000701C002011
:103F700003494FF4A062A1F1140004F047BF000010
:103F8000841C002010B5024804F051FF10BD000051
:103F9000701C0020012202490248FFF7B1B800005E
:103FA000E8000020A8070020FEE70000044840F2D7
:103FB000DC51018041808180C18001814181704755
:103FC000E01700207047000070B53D4C0346002507
:103FD000E078092869D2DFE800F005161A20292FB9
:103FE00040636C00B52B02D0D32B02D05DE00120E2
:103FF00031E0606980B30921E170C18804684A1C1E
:10400000C280635451E0622B4DD1022023E0184658
:1040100003F07CF9A38103201DE0184603F076F934
:10402000A08940EA0320A081042014E0184603F090
:104030006DF9E38105200EE0184603F067F9E08989
:1040400040EA0320E08104F037FE60BBE08908B15C
:10405000062000E00720E07027E0184603F056F93C
:10406000A089A0F580600A380FD0A0F6F730B0F52F
:10407000005F184606D004F0B7FB002809DA03F009
:1040800043FB0AE004F0F2FBF7E7184604F0C0FB3C
:10409000F3E702DD4FF00700E0704FF0000504E0A9
:1040A000607A984203D003F02FFBE8B270BD08207D
:1040B000D1E7A07A9842F6D104F034FC0546F2E745
:1040C0004000002070470A6842624A688262D1E973
:1040D00002231A43D1E904310B43C16A1A4321F088
:1040E000F7011143C16200207047006800F003002F
:1040F000704708B5084414300090006808BD0000FF
:104100000148FEF705B800004C05002070B50DF120
:10411000100C11439CE87000234319432943426863
:10412000314347F6FF639A430A434260002070BD63
:104130000321016000207047D0F8800070470A68B2
:104140008260D1E901231A43D1E903310B43C168ED
:104150001A436FF30B011143C160002070470968D7
:10416000C0F880100020704710B586B0044600915A
:104170003721019140210020CDE90210080104906F
:1041800069462046FFF7DBFF41F28832372120469F
:1041900000F0AEF906B010BD10B50B4A86B004466B
:1041A00011432920CDE90010402002900020039007
:1041B000500D049069462046FFF7C1FF204600F0ED
:1041C0004DFA06B010BD00000000108010B586B09A
:1041D000044600911021019140210020CDE90210F8
:1041E0000801049069462046FFF7A9FF41F2883292
:1041F0001021204600F07CF906B010BD10B586B045
:10420000044600910621019140210020CDE90210D1
:104210000801049069462046FFF791FF41F2883279
:104220000621204600F064F906B010BD30B585B017
:1042300000250446009501954FF480600295CDE974
:10424000035069462046FFF77AFF0B484FF4FA51B6
:104250000068B0FBF1F141F288304143491E02D2BF
:104260004FF0004505E0606B0006F7D540F2FF50C7
:10427000A06305B0284630BDD800002070B585B0D9
:1042800004464FF4D570009001A90820402500266F
:1042900081E86100C001049069462046FFF74FFFA6
:1042A0000F484FF4FA510068B0FBF1F041F2883149
:1042B0004843401E02D24FF000460DE0616B11F002
:1042C000450FF6D0606B400702D5A563042603E0D6
:1042D000606B400600D5A56305B0304670BD000098
:1042E000D800002010B586B004460091122101913B
:1042F00040210020CDE902100801049069462046C3
:10430000FFF71DFF41F288321221204600F0F0F83D
:1043100006B010BD10B586B0044600911121019180
:1043200040210020CDE90210080104906946204692
:10433000FFF705FF41F288321121204600F0D8F83E
:1043400006B010BD10B586B004460721402000928B
:10435000CDE90110002003904FF48060049069467D
:104360002046FFF7ECFE41F288320721204600F09C
:10437000BFF806B010BD10B586B000210222044679
:10438000C020CDE90201CDE9001250020490694637
:104390002046FFF7D4FE204600F038F906B010BDE5
:1043A00010B586B00446009109210191C02100207A
:1043B000CDE902104FF48060049069462046FFF773
:1043C000BEFE204600F022F906B010BD10B586B042
:1043D0000021044640203322CDE90201CDE900123C
:1043E0000001049069462046FFF7A9FE41F2883299
:1043F0003321204600F07CF806B010BD10B586B021
:10440000044600910D21019140210020CDE90210C8
:104410000801049069462046FFF791FE41F2883278
:104420000D21204600F064F806B010BD30B585B00F
:10443000054600230320CDE900304020CDE90203EA
:1044400000010C46049069462846FFF778FE224694
:104450000321284600F022F905B030BD10B586B022
:104460000021044640200C22CDE90201CDE90012D2
:104470000001049069462046FFF761FE034A0C21C3
:10448000204600F035F806B010BD000000E1F5054B
:1044900010B586B0044600911921019140210020F9
:1044A000CDE902100801049069462046FFF747FE57
:1044B00041F288321921204600F01AF806B010BDEA
:1044C00010B586B0044600911821019140210020CA
:1044D000CDE902100801049069462046FFF72FFE3F
:1044E00041F288321821204600F002F806B010BDD3
:1044F000444B10B51B684FF4FA54B3FBF4F3534329
:104500005B1E02D24FF0004010BD426B12F0450F0F
:10451000F6D0426B520703D504218163084610BDD3
:10452000426BD20702D00121816303E00269D2B25B
:104530008A4201D0012010BD40F2FF518163002169
:10454000FFF7D7FD3049084201D1002010BD0028F7
:1045500002DA4FF0007010BD410001D5402010BDBF
:10456000810001D5802010BDC10002D54FF48070BC
:1045700010BD010102D54FF4007010BD410102D5FC
:104580004FF4806010BDC10102D54FF4006010BD32
:10459000010202D54FF4805010BD410202D54FF404
:1045A000005010BD810202D54FF4804010BDC10201
:1045B00002D54FF4004010BD410302D54FF4003046
:1045C00010BD810302D54FF4802010BDC10302D578
:1045D0004FF4002010BD010402D54FF4801010BD2F
:1045E000410402D54FF4001010BD810402D54FF4F0
:1045F000800010BD000702D54FF4000010BD4FF43D
:10460000803010BDD800002008E0FFFD12494FF4B3
:10461000FA520968B1FBF2F141F288325143491E66
:1046200002D24FF000407047426B12F0450FF6D0B7
:10463000416B490703D50421816308467047416BEC
:10464000C90703D0012181630846704740F2FF513A
:104650008163002070470000D80000200E494FF40D
:10466000FA520968B1FBF2F141F288325143491E16
:1046700002D24FF000407047426B12F0450FF6D067
:10468000416B490703D5042181630846704740F216
:10469000FF51816300207047D80000201F4B10B5E8
:1046A0001B684FF4FA54B3FBF4F341F288346343CC
:1046B0005B1E02D24FF0004010BD446B14F0450F5A
:1046C000F6D0436B5B0703D504218163084610BD18
:1046D000436BDB0702D00121816303E00369DBB296
:1046E0008B4201D0012010BD40F2FF5181630021B7
:1046F000FFF7FFFC10F4604F04D0410406D54FF4DF
:10470000005010BD000C1080002010BD000402D528
:104710004FF4805010BD4FF4803010BDD800002001
:1047200010B5064C01202070FCF74EF918B920781E
:1047300020F001002070207810BD0000180000203B
:1047400070B5846B0025E06B00B1E563206C002838
:1047500016D12046FDF7C2FCA563012184F8341070
:10476000062801D005280BD12068FFF777FEA16B42
:104770000843A063A06B0028204602D0FDF76EFB23
:1047800070BDFDF7ABFB70BD70B5846B0025206C70
:1047900000B12564E06B002816D12046FDF79EFC91
:1047A000A563012184F83410062801D005280BD117
:1047B0002068FFF753FEA16B0843A063A06B00289D
:1047C000204602D0FDF74AFB70BDFDF787FB70BDA8
:1047D0002DE9F04F89B00F460446FDF71BF8002580
:1047E000064606950795A84608212068FFF7EEFCC7
:1047F000002835D1B4F8500001042068FFF7B4FC5C
:1048000000282DD1401E4FF00809CDE900093020C5
:104810004FF0020ACDE9020A0120CDE90480694681
:104820002068FFF750FC2068FFF7D0FD002817D163
:104830000DF1180840F22A4B2068416B11EA0B0F6A
:1048400011D1416B890204D5FFF776FC48F82500A9
:104850006D1CFCF7DFFF801B401CEDD14FF00040CA
:1048600009B0BDE8F08F416B090703D5C0F8389057
:104870000820F5E7416B890703D5C0F838A002206E
:10488000EEE7416B890603D5202181630846E7E7FF
:1048900040F2FF518163069800BA7860079800BA29
:1048A00038600020DCE710B590B004460120ADF878
:1048B00038002068FFF719FC002864D0606C0328DA
:1048C00042D02068FFF757FD00285AD10021206808
:1048D000FFF70FFC606704212068FFF70AFCA06760
:1048E00008212068FFF705FCE0670C212068FFF72E
:1048F00000FCC4F88000606C032825D00EA9206855
:10490000FFF794FD00283CD1606C03281CD0BDF853
:104910003800206501042068FFF742FD002830D1EF
:1049200000212068FFF7E5FB606604212068FFF79F
:10493000E0FBA06608212068FFF7DBFBE0660C21A6
:104940002068FFF7D6FB206704212068FFF7D1FB22
:10495000000DE06403A92046FDF7C1FAB4F8500049
:10496000002302042068FFF7EDFC002809D104F1C0
:10497000100007C88DE8070094E80F00FFF7C6FB9A
:10498000002010B010BD4FF08060FAE72DE9F84329
:104990000025044600950068FFF748FC00281AD15E
:1049A0002068FFF76BFC4FF080784FF6FF76D8B1A8
:1049B0004FF08057A5640098411C0091B0421AD076
:1049C00000212068FFF7D0FB20B900212068FFF705
:1049D000E3FB10B13846BDE8F88300212068FFF7FB
:1049E00088FBC00FE7D01FE00127A7640098411C97
:1049F0000091B04201D14046EDE700212068FFF769
:104A0000B3FB0028E7D14FF080412068FFF7C4FBDB
:104A10000028E0D100212068FFF76BFBC10FE5D033
:104A2000400001D5676400E065640020D3E71CB551
:104A3000044600200090019000212068FFF759FBF8
:104A4000800102D54FF400601CBD69462046FFF787
:104A5000BFFE0028F8D10198C0030CD5B4F850006F
:104A600001042068FFF780FB0028EDD100212068B9
:104A7000FFF7C4FB1CBD4FF080601CBD1CB5044695
:104A800000200090019000212068FFF732FB800198
:104A900002D54FF400601CBD69462046FFF798FE22
:104AA0000028F8D1019840030CD5B4F85000010457
:104AB0002068FFF759FB0028EDD102212068FFF79D
:104AC0009DFB1CBD4FF080601CBD000070B5064C06
:104AD000054601202070FBF783FF18B92846FFF731
:104AE0001FFE2070207870BD1800002010B51248FD
:104AF00088B014460078C00702D0032008B010BD6B
:104B0000C1B1012905D0022908D003290CD0042005
:104B1000F4E76846FBF752FF06980AE06846FBF7A1
:104B20004DFF0798208005E06846FBF747FF079890
:104B3000400A20600020E1E71800002070B51D4603
:104B4000164608460124A31E2A463146FBF762FF9B
:104B500020B9FBF739FF0028FBD10024204670BDA7
:104B6000FFF7DEBD70B51D46164608460124A31E9C
:104B70002A463146FBF760FF20B9FBF725FF0028E6
:104B8000FBD10024204670BD7047000010B50446DC
:104B90000C48FDF7DEFF0B490B4A00200A60C1E913
:104BA00001400C22C860C1E904028861C86108465E
:104BB000FEF772F8002803D0BDE81040FCF793B967
:104BC00010BD000028070020004C0040F0B51D4635
:104BD00014460F46064600F083F87006000E00F0FB
:104BE000F7F800F055F9384600F0F2F800F050F907
:104BF00000F076F8012000EB4600C0B200F0E8F8C3
:104C000000F046F907E0012C0BD000F03BF8641EE1
:104C100005F8010BE4B2002CF5D100F08BF8002070
:104C2000F0BD00F001F8F2E770B51548016821F415
:104C300040210160124C002314341A46261F4FF401
:104C4000C875206820F4807020602846401EFDD181
:104C5000206840F4807020605806030E306810F41D
:104C60000070306001D043F001032946491EFDD198
:104C7000521CD2B2082AE4D300F0E2F8184670BD04
:104C80000004024070B51548016821F4402101601C
:104C9000124C002314341A46261F4FF4C87520689E
:104CA00020F4807020602846401EFDD1206840F42A
:104CB000807020605806030E306810F40070306079
:104CC00001D043F001032946491EFDD1521CD2B246
:104CD000082AE4D300F054F8184670BD00040240DE
:104CE0001348016821F440210160016841F48021EA
:104CF00001600F4A1432106840F4007010601068B0
:104D000040F4807010604FF4C8710846401EFDD119
:104D1000106820F4007010600846401EFDD1106835
:104D200020F480701060491EFDD100207047000003
:104D3000000402401148016821F44021016001682B
:104D400041F4802101600D4A1432106820F4807013
:104D50001060106820F4007010604FF4C8710846AD
:104D6000401EFDD1106840F480701060106840F45F
:104D700000701060491EFDD1704700000004024021
:104D8000124A106820F480701060104814380168CE
:104D900021F440210160016841F480210160106824
:104DA00020F4007010604FF4C8710846401EFDD119
:104DB000106840F4807010600846401EFDD11068F5
:104DC00020F480701060491EFDD170471404024029
:104DD00030B51A490A6822F440220A600A6842F48F
:104DE00080220A60154C1434216821F480712160FE
:104DF00000234FF4C8750106216802D541F4007103
:104E000001E021F4007121604006000E2946491E90
:104E1000FDD1216841F4807121602A462946491E4E
:104E2000FDD1216821F480712160521EFDD15B1CEF
:104E3000DBB2082BDFD3002030BD000000040240AD
:104E4000124A106820F4807010601048143801680D
:104E500021F440210160016841F480210160106863
:104E600040F4007010604FF4C8710846401EFDD138
:104E7000106840F4807010600846401EFDD1106834
:104E800020F480701060491EFDD170471404024068
:104E900008B500208DF800001748016821F4402172
:104EA0000160154A1432106840F4007010604FF42D
:104EB000C8710846401EFDD1106840F48070106033
:104EC000491EFDD10C491031086810F400700860CB
:104ED0000CD09DF80000401C8DF800009DF80000EB
:104EE000FA28F1D9FFF726FF012008BD106820F449
:104EF00080701060002008BD0004024070B51D469F
:104F000016460C460346FFF7EBFE5806000EFFF769
:104F10005FFFFFF7BDFF2046FFF75AFFFFF7B8FF1F
:104F2000002406E0285DFFF753FFFFF7B1FF641C84
:104F3000E4B2B442F6D3FFF7FDFE002070BDFCF7EB
:104F40006FBC000030B593B030216846FBF7B0F974
:104F500014210CA8FBF7ACF91C480025016841F0AE
:104F600080510160006800F080501190184801687D
:104F700041F4404101600068022400F44040119077
:104F800001200090000401908001CDE906400C2032
:104F90000890A820CDE9090407200B906846FCF78B
:104FA000D3FD00B1FEE70CA90F2081E831004FF4DA
:104FB000A0500F904FF48050109005210CA8FCF7E2
:104FC000D9FC002800D0FEE713B030BD40380240C5
:104FD000007000401048016841F4700101600F4802
:104FE000016841F0010101600C4A002108321160A2
:104FF00002680B4B1A400260031D0A4A1A600268DD
:1050000022F48022026005480C30016002495806F3
:10501000803908607047000088ED00E000380240E9
:10502000FFFFF6FE103000240148FDF7C1BC000070
:10503000E8060020F0B50268254D264E264FDFF821
:105040009CC0274B4FF0804EA84209D0704507D036
:10505000B04205D0B84203D0604501D0984203D198
:1050600022F070044A682243A8421BD0704519D030
:10507000B04217D0B84215D0604513D0984211D035
:10508000184CA0420ED0184CA0420BD0174CA04296
:1050900008D0174CA04205D0164CA04202D0164CA6
:1050A000A04203D122F44074CA6822434C6922F022
:1050B0008002224302608A68C2620A688262A84251
:1050C00001D0984201D10969016301214161F0BD1C
:1050D000000001400004004000080040000C0040B7
:1050E00000040140004001400044014000480140EC
:1050F00000180040001C0040002000400148FDF75F
:1051000043BD0000280700200148FDF73DBD000019
:10511000680700200148FDF737BD0000A807002000
:1051200010B5806B0021C185C184FDF72BFD10BD3A
:1051300070B5846B2068406994F83910C0F3C010D2
:105140000025212904D118B1E584204600F062F839
:105150002068406994F83A10C0F38010222904D1E5
:1051600018B1E585204600F047F8E06B40F01000EC
:10517000E0632046FDF706FD70BD10B50146806B6B
:1051800009680968C90513D40021C1850168CA6886
:1051900022F48072CA6001684A6922F001024A6101
:1051A00001684A6922F040024A61202180F83A10E1
:1051B000FDF7F2FF10BD10B5806BFEF713F810BDC0
:1051C00010B50146806B09680968C9050CD4002137
:1051D000C18401684A6922F080024A610068C1689E
:1051E00041F04001C16010BDFEF79AF810BD10B546
:1051F000806BFEF79FF810BD0168CA6822F49072B8
:10520000CA6001684A6922F001024A61202180F8DF
:105210003A1070470168CA6822F0C002CA602021B3
:1052200080F83910704710B590F83A10222901D053
:10523000022010BD8168B1F5805F11D0016900299D
:1052400001681FD0496801F07F03816A4A1C8262AD
:105250000B70C18D491E0904090CC18518D02BE0C3
:105260000269816A002A0268526805D0D2B20A80B7
:10527000816A491C8162ECE7C2F308020A80816AF4
:10528000891CF7E74A68816A4B1C83620A70E0E771
:105290000168CA6822F02002CA600168CA6822F464
:1052A0008072CA6001684A6922F001024A612021C5
:1052B00080F83A10FDF770FF002010BD2DE9F04195
:1052C000044600680169E26821F44051114301611C
:1052D000A1682069E26901436069104301432068C5
:1052E000C26849F20C639A430A43C260206841696C
:1052F000A26921F4407111434161E0696425B0F570
:10530000004F974A974920684FF032083FD08842B3
:1053100001D090427CD1FCF7D5FB00EBC00101EB42
:10532000001061688900B0FBF1F6FCF7CBFB00EBE5
:10533000C00101EB001061688900B0FBF1F0B0FB27
:10534000F5F06FF01801484306EB800108EB0110FF
:10535000B0FBF5F000F0F006FCF7B4FB00EBC00189
:1053600001EB001061688900B0FBF1F0B0FBF5F0D3
:1053700006EB0016FCF7A6FB00EBC00101EB0010EA
:1053800061688900B0FBF1F7FCF79CFBD2E0884232
:1053900001D090423DD1FCF795FB00EBC00101EB41
:1053A000001061684900B0FBF1F0B0FBF5F00601B8
:1053B000FCF788FB00EBC00101EB001061684900BD
:1053C000B0FBF1F7FCF77EFB00EBC00101EB001036
:1053D00061684900B0FBF1F0B0FBF5F06FF0180127
:1053E000484307EB800108EBC100B0FBF5F000F08B
:1053F000F80006EB4006FCF765FB00EBC00101EB93
:10540000001061684900B0FBF1F7FCF75BFB3CE082
:1054100055E0FCF747FB00EBC00101EB00106168B1
:105420004900B0FBF1F0B0FBF5F00601FCF73AFBE8
:1054300000EBC00101EB001061684900B0FBF1F71F
:10544000FCF730FB00EBC00101EB00106168490084
:10545000B0FBF1F0B0FBF5F06FF01801484307EB3B
:10546000800108EBC100B0FBF5F000F0F80006EB9E
:105470004006FCF717FB00EBC00101EB0010616870
:105480004900B0FBF1F7FCF70DFB00EBC00101EBAD
:10549000001061684900B0FBF1F0B0FBF5F06FF06F
:1054A0001801484307EB800108EBC100B0FBF5F0A1
:1054B00000F00700216830448860BDE8F081FCF707
:1054C000F1FA00EBC00101EB001061688900B0FB4C
:1054D000F1F6FCF7E7FA00EBC00101EB00106168A0
:1054E0008900B0FBF1F0B0FBF5F06FF01801484314
:1054F00006EB800108EB0110B0FBF5F000F0F006C0
:10550000FCF7D0FA00EBC00101EB001061688900E4
:10551000B0FBF1F0B0FBF5F006EB0016FCF7C2FAB9
:1055200000EBC00101EB001061688900B0FBF1F7EE
:10553000FCF7B8FA00EBC00101EB001061688900CC
:10554000B0FBF1F0B0FBF5F06FF01801484307EB4A
:10555000800108EB0110B0FBF5F000F00F00A9E7A7
:10556000001401400010014090F83910212901D0A9
:10557000022070478168B1F5805F016A0BD04A1C38
:105580000262026809785160C18C491E0904090C45
:10559000C1840ED017E009880268C1F30801516088
:1055A00001690029016A02D0491C0162ECE7891CEB
:1055B000FBE70168CA6822F08002CA600068C1681F
:1055C00041F04001C160002070472DE9F0411E46C6
:1055D000174688460446069D1CE0681C1AD025B173
:1055E000FCF718F9801BA84214D92068C16821F47F
:1055F000D071C1602068416921F001014161202022
:1056000084F8390084F83A00002084F83800032038
:10561000BDE8F0812068016838EA010004D000206C
:10562000B842DAD00020F3E70120F9E710B50024F2
:10563000FBF774FD40B1FBF751FD002010BDFBF7F7
:1056400073FDFEF7C1FC0443FBF752FD0028F6D1C1
:1056500060B210BD0148FDF797BA0000E8070020CE
:105660000148FDF791BA000028080020FEE700007D
:105670000FB4054B10B503A9044A029801F0AEFA25
:1056800010BC5DF814FB00008180000814010020AC
:1056900003B401984100009850EAC12018BF0420CB
:1056A0004A0D18BF40F0010040F2FF72B2EB515FAB
:1056B00008BF40F00200012808BF052002B0704773
:1056C0000907090E002804DB00F1E02080F800142F
:1056D000704700F00F0000F1E02080F8141D7047C3
:1056E00070B5C1482DED020B2DED0E8B82B0119DD2
:1056F00025F000449FEDBEDB9FEDBFEB84423EDB17
:10570000A4F140511098A1F17F6108430FD0BC482B
:10571000844202DC28D1109830B39DED100B02B00A
:10572000BDEC0E8B02B0BDE8704001F0E9B89DED14
:10573000100B53EC1D2B51EC100BFAF76BFE9DED8B
:10574000100B41EC180B53EC1E2B51EC100BFAF71D
:1057500061FE53EC182BFAF7B6FD41EC100B02B0CA
:10576000BDEC0E8B02B070BD012001F00DF902B04E
:10577000BDEC0E8B02B0BDE8704001F0D5B8A14879
:105780009FEDA18B844256DA9DED100BB4F1795F49
:105790000ADA51EC100BFFF77BFF042808BF01F079
:1057A000D3F89DED100BDAE753EC102B51EC100BF6
:1057B000FAF730FE41EC190B95480621B0EE490A84
:1057C000F0EE690A784400F087FF53EC192B51EC96
:1057D000100BFAF71FFE41EC1A0B8E48B0EE490A87
:1057E000F0EE690A0421784400F076FF53EC192B9F
:1057F00051EC100BFAF70EFE53EC182BFAF763FD81
:1058000041EC100B51EC1A0B53EC102BFAF774FE11
:10581000CDE900019DED000B53EC102B9DED100B1D
:1058200051EC100BFAF7F6FD9DED101B53EC112B0C
:10583000FAF749FDD2E09DED100B51EC100B02F090
:10584000D9FA53EC182BFAF7E2FD9FED730BCDE973
:10585000000153EC102B9DED000B51EC100BFAF7EF
:10586000D9FD41EC190B6E480621B0EE490AF0EE65
:10587000690A784400F030FF53EC192B51EC100BFF
:10588000FAF7C8FD41EC1B0B6648B0EE490AF0EE92
:10589000690A0421784400F01FFF53EC192B51ECE6
:1058A000100BFAF7B7FD53EC182BFAF70CFD41EC8F
:1058B0001C0B51EC190B03F00FFB41EC180B5A4871
:1058C0009FED5BABA04222DC53EC1C2B51EC1B0B7D
:1058D000FAF712FECDE900019DED000B51EC180B1B
:1058E00053EC102BFAF796FD53EC182BFAF7EBFC60
:1058F00053EC1A2BFAF78EFD53EC1D2BFAF784FDAF
:1059000053EC1E2BFAF783FD41EC100B5FE08DED9D
:10591000008B002000909DED000B51EC180B53EC18
:10592000102BFAF7D0FC9DED000B41EC1E0B53EC55
:10593000102B51EC100BFAF76DFD53EC192BFAF705
:1059400066FD53EC1E2BFAF7D7FD41EC190B53EC17
:105950001C2B51EC1B0BFAF7CFFD41EC1B0B53EC4E
:105960001A2B51EC190BFAF755FD53EC1D2BFAF7D6
:105970004EFD41EC190B53EC1A2B51EC180BFAF7B6
:1059800049FD53EC1B2BFAF745FD53EC192BFAF7A5
:105990003BFD9DED000B41EC180B53EC1A2B51EC29
:1059A000100BFAF737FD9FED249B53EC192BFAF7F8
:1059B0002EFD41EC100B51EC180B53EC102BFAF7A9
:1059C00023FD53EC192BFAF722FD41EC100B002DAF
:1059D0003FF7C5AE51EC100B81F0004141EC100BCC
:1059E000BDE60000000000000000F03F00000000E5
:1059F000075C143326A6913C182D4454FB21F93F33
:105A00000000F07F0000E03F000000000000F03FD9
:105A1000903A00009E3A0000000000000000E03FC5
:105A2000E2390000F03900003333EF3F000000009E
:105A30000000000000000040182D4454FB21E93F05
:105A400070B59B482DED020B2DED068B079D25F0C3
:105A50000044A04218DC9748844202DC0AD1069830
:105A600040B19DED060BBDEC068B02B0BDE8704069
:105A700000F046BF002DCCBF9FED8F0B9FED900B2C
:105A8000BDEC068B02B070BD8F48A04215DD8F487B
:105A9000A042D8BF4FF0FF3458DD9DED060B51EC0E
:105AA000100BFFF7F5FD042808BF00F04DFF9DED3A
:105AB000060BBDEC068B02B070BD9DED060B51ECE4
:105AC000100B02F097F9CDE9060181489FED828B1A
:105AD000A0423CDD8248A0421FDD00249FED82AB46
