:020000040800F2
:10000000D81A0020C1010008EF380008CF310008DD
:10001000ED380008F10A0008114F00080000000048
:10002000000000000000000000000000A1440008E3
:10003000150E000800000000F138000817480008FD
:10004000DB010008DB010008DB010008DB01000820
:10005000DB010008DB010008DB010008DB01000810
:10006000DB010008DB010008DB010008DB01000800
:10007000DB0100081D0D0008290D0008DB01000848
:10008000DB010008350D0008DB010008DB0100087A
:10009000DB010008DB010008DB010008DB010008D0
:1000A000DB010008DB010008DB010008DB010008C0
:1000B000DB010008DB010008DB010008DB010008B0
:1000C000DB010008DB010008DB010008DB010008A0
:1000D000DB010008DB010008DB010008DB01000890
:1000E000DB010008DB010008DB010008DB01000880
:1000F000DB010008DB010008DB010008DB01000870
:10010000DB0100082D390008DB010008DB010008D5
:10011000D5490008DB01000801490008DB0100089F
:10012000DB010008410D0008DB0100084D0D00084F
:10013000DB010008DB010008DB010008DB0100082F
:10014000DB010008DB010008DB010008DB0100081F
:10015000DB010008590D0008650D0008054F000877
:10016000DB010008DB010008DB010008DB010008FF
:10017000DB010008DB010008DB01000800000000D3
:10018000DB010008DB010008E1490008ED49000837
:10019000DB010008DB010008DB010008DB010008CF
:1001A0000000000000000000DB010008DFF80CD0B8
:1001B00000F0F6FA004800473D5B0008D81A00201E
:1001C0000648804706480047FEE7FEE7FEE7FEE7F1
:1001D000FEE7FEE7FEE7FEE7FEE7FEE7AD480008C4
:1001E000AD0100082DE9F05F0546002092469B46D0
:1001F00088460646814640241BE02846414647463D
:10020000224600F016F953465A46C01A914110D3BF
:1002100011461846224600F0FDF82D1A67EB01083A
:100220004F4622460120002100F0F4F817EB0009A8
:100230004E41201EA4F10104DFDC484631462A4627
:100240004346BDE8F09F2DE9F0410024061B2546FA
:1002500071F1000605DA01240027D0EB070067EBF7
:100260000101161E73F1000605DA0027D2EB070222
:10027000012567EB0303FFF7B5FF86460E461746D9
:100280009C46AC4204D00025D0EB050E65EB010680
:1002900024B10020D2EB000760EB030C704631461E
:1002A0003A466346BDE8F08140EA01039B0703D06C
:1002B00009E008C9121F08C0042AFAD203E011F8A5
:1002C000013B00F8013B521EF9D27047D2B201E067
:1002D00000F8012B491EFBD270470022F6E710B54B
:1002E00013460A4604461946FFF7F0FF204610BDA4
:1002F00030B504460020034600E05B1C934203D265
:10030000E05CCD5C401BF8D030BD2DE9F04D81EABA
:10031000030404F0004B21F0004514464FF0000A9E
:1003200023F0004150EA050220D054EA01021DD01A
:10033000C5F30A570246C5F31303C1F31300C1F313
:100340000A5640F4801543F48013A7EB0608101BEF
:10035000D64608F2FD3873EB050002D308F1010818
:1003600001E092185B41B8F1000F03DA002001466A
:10037000BDE8F08D00204FF48011064684460EE063
:10038000171B73EB050705D3121B63EB050306432D
:100390004CEA010C49084FEA300092185B4150EAE0
:1003A0000107EDD152EA030012D082EA040083EA89
:1003B0000501084305D0101BAB4106D201220023E2
:1003C00006E000224FF0004302E06FF001025310FC
:1003D0001AEB06004CEB085110EB0A0041EB0B0145
:1003E000BDE8F04D00F035B830B50B4601460020B1
:1003F0002022012409E021FA02F59D4205D303FAE7
:1004000002F5491B04FA02F52844151EA2F1010267
:10041000F1DC30BD202A04DB203A00FA02F1002092
:1004200070479140C2F1200320FA03F31943904032
:100430007047202A04DB203A21FA02F0002170479D
:1004400021FA02F3D040C2F120029140084319463C
:10045000704710B5141E73F1000408DA401C41F116
:10046000000192185B411A4301D120F0010010BD38
:100470002DE9F04D92469B4611B1B1FA81F202E0AE
:10048000B0FA80F220329046FFF7C4FF04460F46D0
:1004900040EA0A0041EA0B0153465A46084313D08A
:1004A000114653EA010019D0C8F140025046FFF747
:1004B000C0FF05460E46504659464246FFF7AAFF82
:1004C000084305D0012004E020463946BDE8F08D00
:1004D0000020054346EAE0762C4337430A9863053B
:1004E000E40AA0EB08000022FD0A44EA47540A305F
:1004F00002D500200146E9E7010510196941DDE94F
:10050000084500196941BDE8F04DA2E72DE9FE4F0D
:10051000804681EA0300C00F0C46009021F00041A4
:1005200023F00045B8EB0200A94105D24046214620
:1005300090461C460B46024623F00040104347D02D
:10054000270DC7F30A00C3F30A510290401A019025
:1005500040286BDAC3F3130040F4801B00989246E6
:1005600020B10023D2EB030A63EB0B0B0198594631
:10057000C0F140025046FFF74DFF06460D4650467B
:100580005946019A00F01EF910EB08006141002461
:1005900087EA115284EAE7731A4340D0009A62B3A3
:1005A000019A012A4FEA075215DC001B61EB020198
:1005B0004FF0004202EA0752CDE90042001C41F52B
:1005C000801132462B46FFF753FF03B0BDE8F08F92
:1005D00040462146F9E7001B61EB0201001C41F592
:1005E000801300185B412018A2F5001747EB0301A8
:1005F00040EAD570B6196D4111E06D084FEA360634
:1006000045EAC0754FEA0752001B61EB0201001C6E
:1006100041F5801149084FEA300000195141324636
:100620002B4603B0BDE8F04FFFF713BF009801223F
:1006300040000023D0EB020263EBE07300982146F8
:100640004FEAE074B8EB000061EB0401E9E783F0E6
:1006500000435BE781F0004158E72DE9FE4F81EA56
:10066000030404F0004421F0004100944FF0000B1B
:1006700023F0004350EA01045ED052EA03045BD049
:10068000C3F30A54C1F30A552C44A4F2F334019481
:10069000A0FB0254C1F3130141F48011C3F313030F
:1006A00043F4801301FB024400FB034E840A970AC3
:1006B00044EA815447EA8357A4FB076802958D0AF0
:1006C00005FB07854FEA932C04FB0C542705029D7C
:1006D0004FEA065847EA1637B5EB08056EEB070CEC
:1006E000870E920E47EA811742EA8312A7FB0201A6
:1006F000B6EB0B0164EB00042B0D43EA0C335E18E0
:1007000044EB1C50DA465146E7FB0201C5F31304E3
:100710004FEA0B3343EA14534FEA0432019C43EA95
:100720000603A4F10C040294009CCDE900B4FFF789
:100730009FFE03B0BDE8F08F00200146F9E7C1F34A
:100740000A52C1F3130140F2FF3341F480119A427F
:1007500002DA00200146704740F233439A42A2F287
:10076000334202DC5242FFF764BEFFF753BE000083
:1007700030B5041E71F1000404DB4FF00044404228
:1007800064EB0101141E73F1000405DB1C464FF0FD
:100790000043524263EB0403994208BF904230BDCC
:1007A000064C074D06E0E06840F0010394E80700BE
:1007B00098471034AC42F6D3FFF7FCFC006E0008FB
:1007C000206E0008202A06DBCB17203A41FA02F0FF
:1007D00043EAE07306E041FA02F3D040C2F120029E
:1007E0009140084319467047704700000146014890
:1007F00001F04CBA6C00002010B5044801F058FA22
:10080000042801D0012010BD002010BD6C00002084
:1008100038B501208DF800009DF80000012801D0B6
:10082000012038BD064801F03DFB040006D14FF41D
:100830000061034801F000F900B10124204638BDF1
:100840006C00002038B50024009313460A46014688
:10085000034801F00FFC00B10124204638BD000020
:100860006C0000207047000038B500240093134648
:100870000A460146034801F0DFFC00B1012420468E
:1008800038BD00006C000020704700002DE9F35FC8
:10089000444D00273B466889404201EB00242989EA
:1008A000E617A1FB040207FB042201FB06218022BC
:1008B000FFF7C9FCAA88130C120410EB020A41EBE3
:1008C0000309E9880023A1FB040207FB042201FBC2
:1008D00006214FF48072FFF7B6FC6A88530CD203EE
:1008E00010EB020B41EB0308A9890023A1FB0402D2
:1008F00007FB042201FB06214FF40002FFF7A3FCD3
:100900004FF4FA6144184FF0000319461A4618468E
:10091000B4F5FA6F0DDAA4F5FA60404300EB8000FD
:1009200000EBD071C2174B1000EB9270D9178210F8
:10093000D01740F2DC55EC4212DA04F2DC54644386
:10094000C4EBC405EB1841EBE57104EB440505EB82
:10095000C40404EBD4744FEA6404A21840EBE470BE
:10096000BAEB030569EB0104BBEB0201009A68EBEB
:100970000003A2FB010607FB016102FB03114FF418
:1009800000120023FFF75FFC401B61EB04014FF4F2
:1009900000420023FFF757FC00EE100AB8EEC00A31
:1009A000BDE8FC9F5C0500203EB504460020104DCC
:1009B0000190024602908021284600F020FDA020F0
:1009C00000EB44008DF8040032200090032302AABB
:1009D00001A9084801F017FE01228021284600F0F5
:1009E0000EFD9DF80A009DF8091000EB01203EBDA8
:1009F000000C0240B001002038B50B4D0446002227
:100A00008021284600F0FBFC40348DF80040322362
:100A100001226946054801F047FD01228021284650
:100A200000F0EDFC38BD0000000C0240B0010020D9
:100A300010B500F03FF800F005F8BDE810401820B0
:100A4000FFF7DABF70B5064D00242046FFF7ACFF74
:100A500025F81400641CE4B2082CF6D370BD000025
:100A60005C0500203EB5114C00228021204600F09C
:100A7000C6FC00218DF8081032210091042301AA40
:100A800002A90B4801F0BFFD01228021204600F0A1
:100A9000B6FC9DF805009DF80610C0EB004000EB89
:100AA00001209DF8071008443EBD0000000C0240E4
:100AB000B001002038B51E200B4C8DF8000000223C
:100AC0008021204600F09BFC322301226946074822
:100AD00001F0EAFC0A2000F08BFB01228021204675
:100AE00000F08DFC38BD0000000C0240B001002079
:100AF000FEE70000034800210170417064210248B4
:100B0000FFF7EBBB480000201C0B00200A460949F8
:100B100010B5CB78012B0BD10023CB7001460648D2
:100B200002F068FA002803D0BDE8104000F073B965
:100B300010BD0000480000200803002010B500F0A0
:100B4000A7F8BDE8104000F0D1B8000010B5104C77
:100B5000AA212170552161700D21A1700221E1703F
:100B60000188A1804188E18081882181C1886181DB
:100B70000189A1814089E0810E21A01C04F066FF5B
:100B800020822046BDE810401221FFF7BFBF0000C1
:100B9000900A0020034908688860C86000208874B3
:100BA00070470000A40A00202DE9F0413048807C05
:100BB00008B1FFF7EFFF2E4F002578372D4C00F0DE
:100BC0005BF8002851D000F077F80646A078052899
:100BD00047D2DFE800F003070E192500AA2EEED158
:100BE000012002E0552E02D10220A070E7E7A57097
:100BF000E5E7FFF77FFF2670657060783918401CC5
:100C000060700E700320F0E760783918401C607047
:100C10000E7061782078401C8142D0D10420E4E736
:100C200060783918401C60700E7061782078C01CA4
:100C30008142C4D120782178384440783944897879
:100C400040EA012621780A48491C783004F0FEFE6B
:100C5000B04203D12178781C04F014FFFFF74AFF5B
:100C6000C5E7A570FFF746FFA9E7BDE8F0810000E2
:100C7000A40A00204800002010B5044805F0F6FB47
:100C800008B1002010BD012010BD0000A40A002002
:100C900002496422A1F1140005F0DFBBB80A00206C
:100CA00010B5044805F0E2FB08B1002010BD01209A
:100CB00010BD0000A40A002010B5024805F0DEFBBC
:100CC00010BD0000A40A002010B50146014805F03F
:100CD000E6FB10BDA40A002010B5FFF7E1FF0028D5
:100CE00003D0BDE81040FFF75FBF10BD01220249ED
:100CF000024802F0B7B800004F00002008030020AF
:100D0000024801210171C079FFF7DEBF48000020D1
:100D100001490120C870704748000020014800F0D8
:100D2000F1B8000048030020014800F0EBB80000D3
:100D3000A8030020014800F0E5B8000008040020E6
:100D4000014800F0DFB80000C8040020014800F0AE
:100D5000D9B8000050010020014800F0D3B80000CD
:100D6000F0000020014800F0CDB800006804002029
:100D700001681823CAB2103AB2FBF3F2054B6FF3C5
:100D80000901032A9B5CC36500D9091D81650846DA
:100D900070470000F064000810B5014600208B6920
:100DA0008A6A4FF0C07453B1B3F5005F15D072B1C9
:100DB000012A0CD0022A0AD0032A09D104E01AB170
:100DC000012A06D0022A03D1C96AC90100D501202F
:100DD00010BDC96AA142FAD010BD002AF7D0012A7D
:100DE000F2D0022AF3D0032AF3D010BD30B5046844
:100DF000256825F480252560046863608368402B9E
:100E0000036803D099600068C26030BD9A600068D2
:100E1000C16030BD7047FEE710B5818802884FF68B
:100E20001254A1EB5202094902F2EE220A80038811
:100E3000828804EB53031A444A8082888A8082881D
:100E4000CA8082880A818088488110BD28050020D8
:100E500010B5FFF741FF07480178012909D10021AA
:100E600001700548FFF7D8FFBDE810400348FFF7C1
:100E70006DBE10BD4E000020800B00202805002014
:100E8000002200F001B8000030B50E4B05460120ED
:100E90005C7A002C14D1587A1C54587A03EB8000E9
:100EA00045605D7A03F108002A54587A421C5A7250
:100EB000303008703A2048702F208870CC700020A5
:100EC00030BD0000CC160020034810B5017803485F
:100ED00005F0E5FA10BD0000400000207C05002070
:100EE00090F83510022903D0802141650120704718
:100EF000052180F835100068016821F001010160CA
:100F0000002070472DE9F84304464FF00009CDF862
:100F1000009063484FF41651A56D0068B0FBF1F7DF
:100F20002E6894F85C20082101FA02F030420FD0BC
:100F30002068026852070BD5026822F004020260A2
:100F400094F85C008140A960606D40F0010060652C
:100F500094F85C104FF0010808FA01F0304208D014
:100F600021684969090604D5A860606D40F0020057
:100F7000606594F85C1004208840304208D02168F5
:100F80000968890704D5A860606D40F004006065B9
:100F900094F85C1010208840304218D0216809680D
:100FA000090714D5A86020680168490304D50068C2
:100FB000000308D5A16C07E00168C90503D40168E6
:100FC00021F008010160216C09B12046884794F89E
:100FD0005C1020208840304231D021680968C90661
:100FE0002DD5A86094F8350005282068016806D042
:100FF000490347D5006800031DD4616C1CE021F053
:10100000160101602068416921F080014161206C76
:1010100008B9A06C20B12068016821F008010160C6
:1010200094F85C103F208840A86084F8349084F8DD
:101030003580216D1FE0E16B09B120468847606D66
:1010400000282BD0606DC00714D0052084F835002F
:101050002068016821F0010101600098401C0090A7
:10106000B84203D820680068C007F6D184F83490ED
:1010700084F83580E16C002910D001B02046BDE82D
:10108000F04308470168C905D5D4016821F0100173
:10109000016084F8349084F83580CCE7BDE8F883AB
:1010A000500000202DE9F041044600F0ADF905465E
:1010B0005CB1002684F83460022084F83500206892
:1010C000016821F0010101600DE00120BDE8F0811F
:1010D00000F09AF9401B052805D9202060650320FF
:1010E00084F83500F2E720680068C007F0D1216875
:1010F0000A6820480240D4E901031843D4E90335C3
:101100002B43184363691843A3691843E3691843E1
:10111000236A18431043626A042A03D1D4E90B23DB
:101120001A431043086020684069656A20F007018F
:1011300028460D43012704280CD1A06A0543E06A24
:1011400040B12046FFF728FE20B14020606584F8BA
:101150003570BAE7206845612046FFF709FE94F82C
:101160005C203F2191408160666584F835700020E5
:10117000ACE700003F8010F02DE9F0410446866D99
:1011800090F83400002501280DD0012084F83400A7
:1011900094F835700020012F07D084F83400022520
:1011A0002846BDE8F0810220FBE7022784F835706D
:1011B00060652046FFF71AFE94F85C103F208840D7
:1011C000B0602068016841F0160101602068416943
:1011D00041F080014161206C20B12068016841F03C
:1011E000080101602068016841F001010160D7E752
:1011F00070B5044600F008F90546601C02D00448AA
:101200000078044400F000F9401BA042FAD370BDFE
:10121000540000202DE9F84FDFF8A091002209F1D9
:10122000040A0AF1040B4FF00F080BF1040E01261B
:101230000B6896403340B34271D14C68022C01D008
:10124000122C11D1D40800EB84073D6A5407E40E38
:1012500008FA04FC25EA0C05D1F810C00CFA04FCCD
:101260004CEA050CC7F820C007685400032591F824
:1012700004C0A5400CF0030CAF430CFA04FC4CEA8C
:10128000070CC0F800C04F68012F05D0022F03D013
:10129000112F01D0122F11D18768D1F80CC0AF43A4
:1012A0000CFA04FC4CEA070CC0F808C04768B743C6
:1012B0000E79C6F3001696403E434660C668AE43BC
:1012C0008D68A5403543C5604C68E4006FD53C4C43
:1012D000256845F480452560246822F0030504F460
:1012E00080440094374C2E19D6F808789407250FBF
:1012F00008FA05F4A743344CA04201D100242EE0A3
:10130000324CA04201D1012429E0314CA04201D14C
:10131000022424E02F4CA04202D103241FE046E027
:101320002D4CA04201D1042419E02C4CA04201D143
:10133000052414E02A4CA04201D106240FE0294CD8
:10134000A04201D107240AE0274CA04201D1082481
:1013500005E0264CA04201D1092400E00A24AC405B
:101360003C43C6F80848D9F800404D464E689C43B7
:10137000F60300D51C432C60DAF8004055464E6851
:101380009C43B60300D51C432C60DBF800405D464F
:101390004E689C43F60200D51C432C60DEF80040EA
:1013A00075464E689C43B60200D51C432C60521C07
:1013B000102AFFF43CAFBDE8F88F0000003C01406C
:1013C0004438024000300140000002400004024066
:1013D00000080240000C02400010024000140240CD
:1013E00000180240001C024000200240002402407D
:1013F000426931EA020200D10904816170470AB1F1
:10140000816170470904FBE701488068704700006C
:1014100054000020024881680278114481607047BE
:10142000540000200B4810B5016841F400710160C0
:10143000016841F480610160016841F480710160DC
:10144000032000F06FF8002000F006F800F024F808
:10145000002010BD003C024070B50D4D04464FF415
:101460007A712878B1FBF0F00A490968B1FBF0F015
:1014700001F0B6F948B9102C07D200222146501EBF
:1014800000F030F800206C6070BD012070BD0000DD
:1014900054000020500000200A4808B5016841F4BB
:1014A00080410160006800F4804000900548001F02
:1014B000016841F080510160006800F080500090A8
:1014C00008BD000044380240002809DB00F01F027C
:1014D000012191404009800000F1E020C0F8001196
:1014E00070470000F0B40E4B1B68C3F30223C3F136
:1014F0000704042C00D904241D1D072D01D200234C
:1015000000E0DB1E012606FA04F56D1E0D409D402D
:101510009E40761E164045EA0601F0BC03F00ABD67
:101520000CED00E0064A00F0070110684FF6FF03DB
:10153000184040EA0120034908431060704700004A
:101540000CED00E00000FA052DE9F0470D4604001F
:1015500065D0DFF81491D9F80000EFB200F00F0069
:10156000A84207D289F80070D9F8000000F00F00F7
:10157000A84254D120683D4E810712D5400703D5BB
:10158000306840F4E05030602078000703D53068C0
:1015900040F4604030603068A16820F0F0000843FB
:1015A00030602078C0072DD03049606808390128A4
:1015B00012D0022813D0032811D009688907002906
:1015C0002DDA316821F0030101433160FFF71CFF80
:1015D000804641F2883A0EE009688903EFE709681E
:1015E0008901ECE7FFF710FFA0EB0801514502D994
:1015F0000320BDE8F0873068616800F00C00B0EBB4
:10160000810FEFD1D9F80010484601F00F01A9422F
:1016100007D90770006800F00F00A84201D0012030
:10162000E7E72078400705D53068E16820F4E0500E
:10163000084330602078000706D53068216920F41F
:10164000604040EAC100306000F036F83168084A76
:10165000C1F30311515CC840064908600020FFF740
:10166000FBFE0020C5E70000003C024008380240B5
:10167000D864000850000020044805490068096843
:10168000044AC1F38221515CC840704750000020D9
:1016900008380240E8640008044805490068096801
:1016A000044AC1F34231515CC840704750000020E9
:1016B00008380240E8640008154810B5006810F0CA
:1016C0000C01144813D0144B04290FD008290ED153
:1016D0000F4C241F216801F03F022168490207D501
:1016E0002068C0F38810A0FB030106E0184610BD77
:1016F0002168C1F38811A1FB00010023FEF772FDF0
:101700002168C1F30141491C4900B0FBF1F010BD53
:10171000083802400024F40000366E012DE9F84F2D
:10172000040073D02078BD4DC00748D0BB480830B6
:101730000168C1F38101012908D00068C0F381006C
:1017400002280AD1281D0068400206D528688003B7
:1017500035D560680028E4D031E06068B0F5803F9E
:1017600010D0B0F5A02F286810D020F48030286069
:10177000286820F4802028606068A0B1FFF744FE4C
:1017800006460CE0286840F48030F4E740F48020FE
:101790002860F7E7FFF738FE801B642872D82868B6
:1017A0008003F7D50BE0FFF72FFE064604E0FFF7B6
:1017B0002BFE801B6428F1D828688003F7D420789A
:1017C000DFF85C9280074FF0000A3ED5934808305E
:1017D000016811F00C0F09D00068C0F381000228E5
:1017E0000BD18E48001D0068400206D4286880078F
:1017F00015D5E068012809D111E0E068B8B10120F1
:10180000C9F80000FFF700FE064605E003E1FFF718
:10181000FBFD801B0228C1D828688007F7D52868FF
:10182000216920F0F80040EAC10028600DE0C9F805
:1018300000A0FFF7E9FD064604E0FFF7E5FD801B89
:1018400002281FD828688007F7D42078000722D5FF
:10185000724F74496069743770B101200860FFF7F6
:10186000D3FD064604E0FFF7CFFD801B022809D810
:1018700038688007F7D50EE0C1F800A0FFF7C4FD77
:10188000064605E081E0FFF7BFFD801B02287CD8FB
:1018900038688007F7D42078400769D5DFF87CB135
:1018A0004FF000080BF1400BDBF80000C0000CD437
:1018B000DBF8001041F08051CBF80010DBF800009D
:1018C0004FF0010800F080500090574F3868C00575
:1018D0000FD4386840F480703860FFF795FD0646F5
:1018E00004E0FFF791FD801B02284ED83868C00540
:1018F000F7D54A4FA068703701280FD005283868FF
:1019000010D020F001003860386820F00400386002
:10191000A068B0B1FFF778FD06460EE0386840F0E9
:101920000100F4E740F004003860F7E7FFF76CFDD2
:10193000811B41F28830814265D838688007F5D52F
:101940000DE0FFF761FD064606E0FFF75DFD811B38
:1019500041F28830814256D838688007F5D4B8F112
:10196000000F05D0DBF8001021F08051CBF80010FB
:10197000A069C8B3294908310968C1F38101022966
:1019800049D00228504607D000E03CE0C9F860008A
:10199000FFF73AFD044639E04F46C9F86000FFF70B
:1019A00033FD064604E0FFF72FFD801B02282AD8EE
:1019B00028688001F7D4D4E907010843A16A1B4ACB
:1019C000490802EB0141626A41EA8211084394F836
:1019D0002C1040EA01611148001D016001203866A9
:1019E000FFF712FD044605E013E0FFF70DFD001BB5
:1019F000022808D828688001F7D50AE0FFF704FD1F
:101A0000001B022802D90320BDE8F88F2868800156
:101A1000F4D40020F8E70120F6E700000038024087
:101A200000004742800E4742007000400000FFFF68
:101A300010B5FEF7D9FE10BDFEB5044603200D46D5
:101A400084F83400606C032820D0B5F5805F1DD089
:101A5000B5F5006F05D045B1A06B40F00060A06304
:101A600009E0204602F020FC02E0204602F0F5FBEF
:101A7000A16B0143A163A06B012658B1216840F21C
:101A8000FF50886384F834600120FEBDA06B40F0F5
:101A90008050E4E7211DD4E905070EC9CDE90050C7
:101AA0000297206801F048FF84F834600020FEBDF2
:101AB0007047F0B5426E120E93090B70C2F38303A8
:101AC0004B7002F003028A70426E120CCA70B0F8BA
:101AD0006420120A0A7190F864204A71826E4FF6EF
:101AE000FF73120E03EA0212CA80826ECB88C2F321
:101AF000074243EA1213CB8002F00F020A72B0F8D9
:101B00006820C2F30722D3094B72C2F380138B7291
:101B1000C2F34013CB72C2F300130B7300244C7357
:101B2000456C4FF4007601236DB1012D43D002685E
:101B300040F2FF519163816B41F08051816380F8E5
:101B400034300120F0BD9207120D0A6190F8682030
:101B50000D6945EA82020A61C26E0D69120E45EAFC
:101B600092150D61C2F3C2050D7502F007024A75A8
:101B7000C26EC2F3074255098D75C2F38205CD7559
:101B80009207520F0A76B0F86C200D7EC2F307223E
:101B900045EAD2150D760D696D1C45650F7EBF1C9B
:101BA000BD4045650F7A03FA07F787657F0A7D43D5
:101BB000C0E917561CE090F868209206920A0A6164
:101BC000C26E0D69120E45EA02220A61C26E0D69EB
:101BD000C2F3074215430D61B0F86C200D69C2F3E2
:101BE00007226D1C4FEA85254565C0E91665066626
:101BF000C2F3801501F8195F4FEA82624FEA526220
:101C00004A7010F86C2F4D7845EAD2154D7002F0ED
:101C10007F028A7042684FEA12624FEAD215CD7095
:101C2000C2F341150D71C2F382054D714FEA827204
:101C30004FEA12728A7142688D79C2F3074245EA0F
:101C400092158D71C2F34015CD710C7202F0010234
:101C50004A728288C2F307224FEAD2148C72C2F30E
:101C60008014CC72C2F340140C73C2F300144C7392
:101C7000C2F381048C7302F00302CA7300794FEA45
:101C8000500008744B744FF00000F0BD426C0A60C5
:101C9000826C4A60C26C8A60026DCA60426D0A61E1
:101CA000826D4A61C26D8A61006EC8610020704712
:101CB00038B5002504460095B0F8500001042068AE
:101CC00001F0B2FF28B90021206801F028FE009041
:101CD000284610B1A16B0143A1630098C0F34320D3
:101CE00038BD000070B504460068416B40F23A32DE
:101CF000C9054FF0010549D5290281632068C16BF0
:101D00009143C163206B0007206B22D5800702D46A
:101D1000206B800609D5206801F0B6FF28B1A16BC1
:101D20000143A1632046FFF7C3FE216840F2FF5044
:101D3000886384F83450206BC00702D1206B800781
:101D400003D5204600F070FA70BD204600F070FA0E
:101D500070BD0006FCD5206B800609D5206801F017
:101D600093FF28B1A16B0143A1632046FFF7A0FEBA
:101D7000206BC007ECD1206B8007E9D42068C16AD2
:101D800021F00801C16284F83450DEE7416B490458
:101D900010D54FF480418163266A002506EB85014A
:101DA000206801F0F2FD6D1C082DF7D3206A203069
:101DB000206270BD416B090410D54FF4004181636E
:101DC000A66A0025206801F0CDFD46F825006D1CAF
:101DD000082DF7D3A06A2030A06270BD416B40F29D
:101DE0003A231942F9D0416B890703D5A16B41F021
:101DF0000201A163416B090703D5A16B41F0080102
:101E0000A163416B890603D5A16B41F02001A16359
:101E1000416BC90603D5A16B41F01001A163416B71
:101E2000890503D5A16B41F00801A16340F2FF7160
:101E300081632068C16B9143C163206B000623D589
:101E4000206C58B115490165206CFFF749F800284E
:101E5000C3D0206CBDE8704002F0ACB8E06B58B164
:101E60000F490165E06BFFF73BF80028B5D0E06B48
:101E7000BDE8704002F07AB80020A06384F83450C6
:101E80002046FFF7D5FD70BD206B0007FBD584F819
:101E900034502046FFF70CFE70BD0000B53F00082F
:101EA0006D3F000870B5040004D094F8340000259C
:101EB00010B105E0012070BD2577204600F038F80C
:101EC000032084F83400204600F008F8A563256359
:101ED000012084F83400002070BD0000FEB500250C
:101EE000044676200095CDE901502B462A46294626
:101EF000206801F021FD0D4E46F8A05F206801F03A
:101F00002DFD012535600220FFF772F9204602F011
:101F100053F920B9204602F0DCF8002805D084F8F7
:101F20003450A16B0143A1630120FEBD0080254216
:101F30002DE9F04F87B0044614216846FEF7CDF92D
:101F40004649206888427DD145480068444940F4AC
:101F500000600860086800F400600590404814388C
:101F600000683F4940F0040014390860086800F038
:101F700004000590086840F0080008600868022620
:101F800000F0080005904FF4F850CDE9000602AAD1
:101F9000002003254FF00C0882E8210169463148F2
:101FA000FFF738F902AA002082E821010427CDE9D1
:101FB000007669462C48FFF72DF92D4E2B484FF03F
:101FC0000068C6E9000800204FF48069B060C6E9E7
:101FD0000309B8024FF4804BC6E9050BC6E9097541
:101FE0004FF0200A0020C6E907A07D05AF10C6E922
:101FF0000B573046FFF756F808B1FEF70CFFE663C3
:10200000B4631B4E194860364838C6E900084020C2
:10201000B0600020C6E90309C6E907A00420706289
:1020200006F12802032082E8A1004FF48051C6E99E
:10203000051B3046FFF736F808B1FEF7ECFE2664C4
:10204000002200E007E011463120B463FFF74AFAAE
:102050003120FFF739FA07B0BDE8F08F002C0140BE
:102060004438024000080240000C0240A0640240D4
:10207000F00000202DE9F04F87B09B4616460D4634
:102080000446109FFFF7C0F981463DB194F8340033
:10209000012807D0A06B40F000500DE0A06B40F08D
:1020A000006009E00020A063E26D06EB0B019142A5
:1020B00004D9A06B40F00070A06384E0032184F891
:1020C000341021688046C862606C012800D0760216
:1020D0004FF40071206801F08FFC40F2FF5A01219B
:1020E00040B12368C3F838A0A26B0243A26384F80E
:1020F000341068E04FF0FF3000904FEA4B20019021
:10210000902002900220CDE9030805918846694697
:10211000206801F0EEFBBBF1010F06D9022020631D
:102120003146206801F0F4FC05E0C4F83080314607
:10213000206801F005FD38B32268C2F838A0A16B11
:102140000143A1633DE0406B000409D500262068EF
:1021500001F008FC45F82600761C082EF7D3203540
:102160002FB1FFF751F9A0EB0900B8420CD3216859
:10217000C1F838A0A06B40F00040A06384F8348020
:10218000032007B0BDE8F08F2068416B40F22A328F
:102190001142D8D0416BC90509D5BBF1010F06D951
:1021A000616C032903D001F06FFD0028C4D12068C1
:1021B000416B090709D5C0F838A0A06B40F00800B2
:1021C00025E084F834800120DBE7416B890705D5E1
:1021D000C0F838A0A06B40F0020018E0416B8906FF
:1021E00017D5C0F838A0A06B40F020000FE001F038
:1021F000B9FB01C52FB1FFF707F9A0EB0900B84201
:1022000007D32168C1F838A0A06B40F00040A0635C
:10221000D7E72068416B8902E9D42168C1F838A06A
:1022200084F834800020ACE710B5FEF71BFB10BD2E
:1022300010B5FEF729FB10BD2DE9F04F87B09A4687
:1022400015460E460446DDF840B0FFF7DDF806906F
:102250003EB194F83400012807D0A06B40F0005044
:102260000DE0A06B40F0006009E00020A063E26D8B
:1022700005EB0A01914204D9A06B40F00070A06305
:102280002EE0032184F8341021680020C862606CBD
:10229000012800D06D024FF40071206801F0ACFB02
:1022A00040F2FF584FF00109002860D1BAF1010F48
:1022B00006D9202020632946206801F0FFFC05E0B4
:1022C000102020632946206801F010FD07000BD084
:1022D0002168C1F83880A06B38436AE084F83490F4
:1022E000012007B0BDE8F08F4FF0FF3000904FEABB
:1022F0004A200190902002900020CDE9040903902B
:102300006946206801F0F5FA1FE0406B400409D5EA
:10231000002506EB8501206801F037FB6D1C082DB8
:10232000F7D32036BBF1000F05D0FFF76DF8069903
:10233000411A594509D32168C1F83880A06B384348
:10234000A06384F834900320CBE72068416B40F20F
:102350001A321142D9D0416BC9050FD5BAF1010F1C
:102360000CD9616C032909D001F08EFC30B12268D0
:10237000C2F83880A16B0143A163AFE72068416BCD
:10238000090705D5C0F83880A06B40F0080010E0C0
:10239000416B890705D5C0F83880A06B40F002007A
:1023A00007E0416BC0F83880C90604D5A06B40F047
:1023B0001000A06392E784F83490002091E770B594
:1023C000040005D00025A56294F8510010B106E084
:1023D000012070BD84F85050204600F031F80220F2
:1023E00084F851002068016821F040010160D4E9BF
:1023F00001010843D4E9031211430843616908430A
:10240000218B01F400710843E1690843216A084304
:10241000A16A084321680860A069042101EA10400C
:10242000616A0843216848602068C16921F400613D
:10243000C1616565012084F85100002070BD000075
:1024400010B586B0044614216846FDF746FF1349CF
:102450002068884220D112480021026842F480524C
:102460000260006800F4805005900D48143802683E
:1024700042F001020260006800F001000590E020D7
:1024800000900220CDE90101032003900520049073
:1024900069460448FEF7BEFE06B010BD003001409C
:1024A00044380240000002402DE9F84F044690F8FD
:1024B000500000261D469046894601280ED04FF058
:1024C000010B84F850B0FEF79FFF074694F85100C7
:1024D0004146B246012804D002268EE00220BDE823
:1024E000F88FB9F1000F6FD0B8F1000F6CD0032056
:1024F00084F85100C4F854A0C4F83090A4F8348093
:10250000A4F83680C4F838A0A4F83CA0A4F83EA0F3
:10251000C4F844A0C4F840A0A068B0F5004F04D1AE
:102520002068026842F48042026020680268520615
:1025300003D4026842F040020260E068B0F5006F28
:10254000606803D028B3012923D03FE008B10129F6
:102550001BD1206B21680088C86006E02068816874
:10256000890709D5216B0988C160206B801C206315
:10257000E08E401EE08608E0FEF746FFC01BA84242
:1025800002D3681C01D02FE075B3E08E0028E5D19E
:102590001FE0206B21680078087306E020688168DE
:1025A000890709D5216B09780173206B401C2063D2
:1025B000E08E401EE08609E0FEF726FFC01BA84221
:1025C00003D3681C02D00FE016E06DB1E08E002846
:1025D000E4D13A462946204601F0ECFE08B120201D
:1025E0006065A06810B105E0032606E02068C168B8
:1025F00080680090606D00B1012684F851B084F8C5
:1026000050A030466BE72DE9F84F044690F8500093
:1026100001250A9E1F4692468B464FF0000801286E
:102620000ED0012084F85000FEF7EEFE814694F8AB
:102630005100616801280CD0B1F5827F07D102E01A
:102640000220BDE8F88FA16809B9042801D0022052
:10265000B6E0BBF1000F27D0BAF1000F24D01FB3B2
:1026600094F85100042802D0052084F8510000207D
:102670006065C4F838A0E787A787C4F830B0E7865C
:10268000A7862064606420680168490603D4016855
:1026900041F040010160E068B0F5006F606805D06E
:1026A000E8B3012F43D079E0012089E008B1012F80
:1026B00034D1206B21680088C860206B801C2063A7
:1026C000E08E401EE08629E02068816889070DD5EC
:1026D000E18E59B1012D09D1216B0988C160206BB0
:1026E000801C2063E08E401EE08600252068816803
:1026F000C9070BD0E18F49B1C068A16B0880A06BFE
:10270000801CA063E08F401EE0870125FEF77CFE61
:10271000A0EB0900B04201D3701C50D100E006E0EC
:10272000E08E0028D0D1E08F0028CDD13CE0206B96
:10273000216800780873206B401C2063E08E401EE7
:10274000E0862BE02068816889070DD5E18E59B1BC
:10275000012D09D1216B09780173206B401C206386
:10276000E08E401EE086002520688168C9070BD0F6
:10277000E18F49B1C068A16B0870A06B401CA063D9
:10278000E08F401EE0870125FEF73EFEA0EB09002A
:10279000B04202D3701C01D011E086B1E08E002857
:1027A000D0D1E08F0028CDD14A463146204601F0F5
:1027B00001FE38B120204FF00108606508E00320D9
:1027C000804605E0A06818B92068C168806800905C
:1027D000012084F85100002084F85000404630E782
:1027E00010B5401EB0F1807F01D3012010BD4FF025
:1027F000E02460610F21601702F09CFB0020A061C3
:1028000007202061002010BD7047704770B590F818
:102810003C20012A19D0012500F83C5F02224270B9
:1028200050F83C2C5368946823F070060B68496894
:10283000334324F080042143536050F83C2C9160D2
:10284000457000210170084670BD022070BD10B5B2
:10285000040003D094F83D0010B107E0012010BD42
:10286000002084F83C00204600F00CF8022084F898
:102870003D00211D206802F049F8012084F83D0048
:10288000002010BD08B500680649884208D10648F6
:10289000016841F010010160006800F01000009034
:1028A00008BD000000100040403802400168CA68BE
:1028B00042F00102CA600068816801F00701062940
:1028C00003D0016841F001010160002070477047AA
:1028D00070B50446006801694FF00005C9438907D7
:1028E00015D4C168C943890711D4E91E01610120CB
:1028F0002077206880698007204602D0FFF7E7FF35
:1029000004E000F098F8204600F096F8257720685B
:102910000169C943490717D4C168C943490713D49A
:102920006FF004010161022020772068806910F4B3
:10293000407F204602D0FFF7CAFF04E000F07BF89A
:10294000204600F079F8257720680169C943090716
:1029500016D4C168C943090712D46FF00801016198
:10296000042020772068C0698007204602D0FFF746
:10297000AEFF04E000F05FF8204600F05DF8257738
:1029800020680169C943C90617D4C168C943C9068B
:1029900013D46FF010010161082020772068C0690E
:1029A00010F4407F204602D0FFF791FF04E000F0D2
:1029B00042F8204600F040F8257720680169C943B5
:1029C000C90708D1C168C943C90704D1891E01617B
:1029D000204600F033F820680169C943090609D48C
:1029E000C168C943090605D46FF080010161204622
:1029F000FFF70AFF20680169C943490609D4C16885
:102A0000C943490605D46FF040010161204600F03A
:102A100021F820680169C94389060BD4C168C943FC
:102A2000890607D46FF0200101612046BDE870409F
:102A3000FFF7EBBE70BD70477047000000680349A8
:102A4000884202D1024901200870704700100040FE
:102A5000080000207047704770B50268044610688F
:102A6000D168536910F00F0F50D003F0010501F445
:102A7000907635435DD0C20705D0CA0503D5E26B19
:102A800042F00102E263420705D5DA0703D0E26BA8
:102A900042F00202E263820705D5DA0703D0E26B57
:102AA00042F00402E263020705D5DA0703D0E26BC5
:102AB00042F00802E263E26B002A33D0800604D5BC
:102AC000880602D5204602F01AF820684069E16BBA
:102AD000C0F38010090700D428B3204601F0F8FFA6
:102AE0002068416949061AD5416921F040014161D8
:102AF000606BA0B11B490165606BFEF7F1F900281E
:102B000010D0606B016DBDE870400847830610D59A
:102B10008B060ED52046BDE8704001F0F0BF204680
:102B2000FFF799FF70BD2046FFF795FF0020E06397
:102B300070BD030606D50B0604D52046BDE87040DF
:102B400002F07EB94006F3D54806F1D5D16820469B
:102B500021F04001D160202184F8391000F08AFA78
:102B600070BD0000F949000870B5040004D094F865
:102B70003900002510B106E0012070BD84F83850FE
:102B8000204600F023F8242084F839002068C1682A
:102B900021F40051C160204601F0FCFF206801696A
:102BA00021F4904101612068416921F02A014161CD
:102BB0002068C16841F40051C160E563202084F8B9
:102BC000390084F83A00002070BD00002DE9F04F74
:102BD00087B0044614216846FDF77FFB9648DFF86E
:102BE00054821038D4F800C0DFF84CB2032102221E
:102BF00001230826002507154FF48079C44536D1F6
:102C0000DBF8008048F40028CBF80080DBF800C037
:102C10000CF4002CCDF814C0D0F800C04CF0010C1E
:102C2000C0F800C0006800F0010005908DE80E00BB
:102C3000CDE9031669468148FEF7ECFA814E8048DB
:102C400030604005C6E90105C6E903577561C6E96C
:102C50000659C012C6E908053046FEF723FA08B146
:102C6000FEF7D9F86663B46307B0BDE8F08FDFF80C
:102C7000D881DFF8D8E14FF0206AC4453DD1DBF8B8
:102C8000008048F08048CBF80080DBF800C00CF0F2
:102C9000804CCDF814C0D0F800C04CF0100CC0F837
:102CA00000C00068CDE9023100F0100005904FF43B
:102CB000C070CDE90002049669467046FEF7AAFA94
:102CC000604E5F48603618303060C6E901A5C6E93D
:102CD00003577561C6E90659356230467562FEF7DD
:102CE000E1F908B1FEF797F8666303221146522016
:102CF000B463FEF7F7FB52203DE0DFF85481C44592
:102D00003CD1DBF8008048F00048CBF80080DBF8CD
:102D100000C00CF0004CCDF814C0D0F800C04CF04E
:102D2000100CC0F800C0006800F0100005908DE89D
:102D30000E00CDE9031669467046FEF76BFA414E68
:102D40003F48C03660303060C6E901A5C6E9035788
:102D50007561C6E90659356230467562FEF7A2F91B
:102D600008B1FEF758F86663022201215320B463CC
:102D7000FEF7B8FB5320FEF7A7FB75E7DFF8D4801A
:102D8000C445FAD1DFF8B0C00CF1040CDCF80080C7
:102D900048F02008CCF80080DCF800C00CF0200CD3
:102DA000CDF814C0D0F800C04CF0040CC0F800C03E
:102DB0000068CDE9023100F004000590C020CDE9A3
:102DC0000002049669462448FEF724FA244E23485C
:102DD0004FF44038E6E8020A4020A1C6204846F8F1
:102DE0001459B561C6E907587562FEF75BF908B179
:102DF000FEF711F82663B463194E18486036903810
:102E00003060C6E901A5C6E903577561C6E90659F0
:102E1000C6E908853046FEF745F908B1FDF7FBFF26
:102E20006663002211464720B463FEF75BFB472030
:102E3000A1E70000004C0040403802400000024082
:102E4000406002404803002000780040001002402B
:102E5000007C00400014014000080240B8640240B9
:102E60006804002037B5044690F83A0082B0134653
:102E700020283AD1039AAAB3A3B394F838000128C2
:102E800033D0012084F83800A262A3850025E563D1
:102E9000222084F83A00616B1548C863616B1548BD
:102EA0000864616B1448C864606B05652168606BD9
:102EB000091DFEF761F9206801684168009184F8F6
:102EC0003850C16841F48071C1602068416941F0A7
:102ED000010141612068416941F0400141610020E8
:102EE00005B030BDFFE70120FAE70220F8E7000057
:102EF000534A00088F4A0008094A000810B50446E2
:102F000000680A49884201D1FDF7DEFF08492068C0
:102F1000884201D100F08EFC06492068884203D126
:102F2000BDE81040FDF7ECBE10BD0000004C0040B5
:102F3000007C00400014014070472DE9F84304462E
:102F400090F839001E4617460D46202850D1A5B1ED
:102F50009FB194F8380001284AD0012084F8380045
:102F60004FF00008C4F83C80212084F83900FEF7B7
:102F70004BFAA7848146E78426E00120BDE8F88368
:102F8000E08C401EE084A0684B46B0F5805F4FF0B7
:102F900000024FF080012046009603D001F081FF2F
:102FA000E8B90DE001F07DFFC8B928882168C0F3B9
:102FB00008004860206908B16D1C05E0AD1C03E005
:102FC000216815F8010B4860E08C0028D8D14B46E9
:102FD000002240212046009601F063FF08B1032043
:102FE000CCE7202084F8390084F838800020C5E739
:102FF0000220C3E7F7B5044690F83900202831D104
:10300000019969B362B394F8380001282AD00120ED
:1030100084F838002162A284E2840025E56321203F
:1030200084F83900236B1048D863236B0F48186469
:10303000236B0F48D864206B134605652668206B08
:10304000321DFEF799F821686FF04000086084F89F
:1030500038502068416941F0800141610020FEBD87
:103060000120FEBD0220FEBD994A0008C74A0008A3
:10307000094A000800680349884201D1FDF748BEAB
:103080007047000000140140704708B50A20FEF7A1
:10309000AFF870208DF800006B46012200211E2041
:1030A00001F098FB202000F045F801208DF8000089
:1030B00002466B4602211E2001F08CFB0A20FEF71F
:1030C00097F808BD70B50446194B062203211E204F
:1030D00001F0E7F916490E784D788B7845EA062518
:1030E000CA7808792DB2497900EE105A41EA0020D9
:1030F00000B2F8EEC01A00EE100A42EA032000B255
:10310000B8EEC01A00EE100A09480C38F8EEC00AF2
:1031100090ED010A81EE802AC1EE001A84ED002AAA
:1031200080EE801AC4ED011A84ED021A70BD000011
:103130003800002018B504468DF8000001226B46C7
:1031400011461E2001F046FB1349802C0C701AD04A
:1031500008DC202C11D0402C12D0602C0CD19FED1B
:103160000F0A07E0A02C11D0C02C12D0E02C03D104
:103170009FED0B0A81ED010A18BD9FED0A0AF9E7E0
:103180009FED090AF6E79FED090AF3E79FED080AAC
:10319000F0E79FED080AEDE72C00002000801944BD
:1031A00000005B4300008044000040440080CF43A7
:1031B0000080B4430080994308B501208DF80000D9
:1031C00002466B4602211E2001F004FB08BDFEE70B
:1031D000014900204870704700000020084801683D
:1031E000491C01600068FA21B0FBF1F201FB1200FA
:1031F000002804D14FF480510248FEF7F9B8704717
:1032000010000020001002402DE9F0432C48ADF5DD
:103210000F7D807C08B100F037FBDFF8A8904FF0FD
:10322000000800F03BFB002846D000F04DFB264F85
:103230000546002007F5927602F046FE01464C4610
:1032400048463B462A46009602F0D4FC022820D08D
:1032500003281ED00028E4D040F21312A6F58A718C
:103260006846FDF721F84FF49272394645A8FDF7FC
:103270001BF845AC94E80F0000F0F0FA3846C1792D
:103280000091037A82798068010A104801F042FEB9
:10329000C7E74746404602F017FE064602F02AF806
:1032A00001203770F070FD2DBBD10220F070E77067
:1032B0004FF6FF702080B4E70DF50F7DBDE8F08379
:1032C0007C100020F00B002090150020B46D000849
:1032D00010B5154C6068401C606060680521B0FB4B
:1032E000F1F201FB120000281CD1207898B10020D7
:1032F0002070FDF7B7FBA060E168A068FDF7C6FA93
:10330000BDEEC00A04F1100080ED010A1820BDE8EE
:103310001040FDF771BB01202070FDF7A3FBE060BA
:103320000820F4E710BD000014000020014800F060
:103330001DB80000340500200A4800B58168491C0A
:10334000816080680A21B0FBF1F201FB12000028C5
:1033500006D10548FFF7B6FE5DF804EBFFF72CBF7A
:1033600000BD00002C0000206C05002030B589B0A5
:10337000044600200590069007900890BB20244D3D
:103380008DF81400002204212846FEF738F8322078
:1033900000900F2301AA05A91E48FFF734F9012266
:1033A00004212846FEF72BF89DF806009DF805102D
:1033B00000EB012020809DF808009DF8071000EB2D
:1033C000012060809DF80A009DF8091000EB0120A3
:1033D000A0809DF80C009DF80B1000EB0120A0844C
:1033E0009DF80E009DF80D1000EB0120E0809DF887
:1033F00010009DF80F1000EB012020819DF81200B5
:103400009DF8111000EB0120608109B030BD000073
:1034100000080240B001002010B580216B2000F0B0
:1034200041F80A20FDF7E4FE0721682000F03AF891
:103430000A20FDF7DDFE01216B2000F033F80A20A1
:10344000FDF7D6FE00216C2000F02CF80A20FDF7D5
:10345000CFFE0021192000F025F80A20FDF7C8FE54
:1034600003211A2000F01EF80A20FDF7C1FE0321F7
:103470001D2000F017F80A20FDF7BAFE18211B20C6
:1034800000F010F80A20FDF7B3FE08211C2000F020
:1034900009F80A20FDF7ACFEBDE810406420FDF7F6
:1034A000A7BE00003EB50F4C8DF804008DF8051046
:1034B000002204212046FDF7A2FF0120FDF798FE1F
:1034C0004FF4FA710091022302AA01A90648FFF7FE
:1034D0009AF8012204212046FDF791FF9DF809008A
:1034E0003EBD000000080240B0010020214808B5A0
:1034F000016841F400110160016801F400110091BC
:10350000016841F4800101600068002200F480003D
:10351000009011460E20FDF7E5FF0E20FDF7D4FFC9
:10352000002211461120FDF7DDFF1120FDF7CCFF31
:10353000002211463920FDF7D5FF3920FDF7C4FFE1
:10354000002202213B20FDF7CDFF3B20FDF7BCFF11
:10355000012202214520FDF7C5FF4520FDF7B4FFFC
:10356000002211464620FDF7BDFFBDE80840462079
:10357000FDF7AABF3038024010B504490448FDF7F2
:103580007FFC0249491E087010BD00000B0000209E
:10359000C46400082DE9F04F87B014216846FCF799
:1035A0009CFE3C480024016841F004010160016870
:1035B00001F004010591016841F08001016001689A
:1035C00001F080010591016841F00101016001688D
:1035D00001F001010591016841F0100101600168ED
:1035E00001F010010591016841F0080101600168D6
:1035F00001F008010591016841F0020101600068D5
:10360000DFF8948000F002004AF2040505900122E0
:1036100029464046FDF7F3FE0122DFF880901603AD
:1036200031464846FDF7EBFEDFF874A00122802109
:103630005046FDF7E4FEDFF86CB04FF4407701220E
:1036400039465846FDF7DBFE00950125CDE90154CA
:10365000694640460394FDF7DDFD0096CDE901542F
:10366000694648460394FDF7D5FD80200090CDE9DA
:103670000154694650460394FDF7CCFD0097CDE90F
:103680000154694658460394FDF7C4FD07B0BDE8F0
:10369000F08F000030380240000802400010024065
:1036A000000C024000040240064805490160002168
:1036B00041608160C16001614161816170470000CA
:1036C000002C01406C000020104810B50E4901602C
:1036D0004FF482714160002102228160C0E903122F
:1036E000012242615202C0E9062101624162816207
:1036F0000A21C162FEF763FE002803D0BDE8104036
:10370000FDF789BB10BD000000300140B001002072
:103710001CB500240E4800940C490194016053210B
:10372000C0E9011440F2CF718461C160FFF78FF8E6
:1037300008B1FDF770FB0094694605480194FFF756
:1037400065F8002801D0FDF766FB1CBD00100040A5
:10375000080200200C4810B50A4901604FF41651C8
:103760004160002181600C22C160C0E904128161C6
:10377000C161FFF7F9F9002803D0BDE81040FDF75B
:103780004ABB10BD004C0040480200200C4810B558
:103790000A4901604FF4E1314160002181600C224F
:1037A000C160C0E904128161C161FFF7DDF9002841
:1037B00003D0BDE81040FDF72EBB10BD00780040DF
:1037C000880200200C4810B50A4901604FF461419D
:1037D0004160002181600C22C160C0E90412816156
:1037E000C161FFF7C1F9002803D0BDE81040FDF723
:1037F00012BB10BD007C0040C80200200C4810B570
:103800000A4901604FF4E1314160002181600C22DE
:10381000C160C0E904128161C161FFF7A5F9002808
:1038200003D0BDE81040FDF7F6BA10BD001401400A
:1038300008030020034810B50178034802F02FFE6A
:1038400010BD0000600000207C10002010B500F0CA
:1038500043F8BDE8104000F02DB80000100A02D176
:1038600001A001F057BB7047746869732069732029
:103870006865617274626561742066726F6D205153
:1038800047430D0A00000000034908688860C860CB
:1038900000208874704700007C10002010B5044898
:1038A00002F0E4FD08B1002010BD012010BD0000B1
:1038B0007C10002003494FF4A062A1F1140002F033
:1038C000CCBD00009010002010B5024802F0D6FDDB
:1038D00010BD00007C100020012202490248FFF7C1
:1038E000C1BA000060000020C8020020FEE7704757
:1038F00070470A6842624A688262D1E902231A4329
:10390000D1E904310B43C16A1A4321F0F701114395
:10391000C16200207047006800F00300704708B5DE
:10392000084414300090006808BD00000148FEF70C
:10393000D9B900006C00002070B50DF1100C1143D6
:103940009CE870002343194329434268314347F6FA
:10395000FF639A430A434260002070BD0321016067
:1039600000207047D0F8800070470A688260D1E973
:1039700001231A43D1E903310B43C1681A436FF3A2
:103980000B011143C160002070470968C0F8801026
:103990000020704710B586B0044600913721019190
:1039A00040210020CDE9021008010490694620461C
:1039B000FFF7DBFF41F288323721204600F0AEF9F5
:1039C00006B010BD10B50B4A86B00446114329203D
:1039D000CDE900104020029000200390500D04908B
:1039E00069462046FFF7C1FF204600F04DFA06B0B9
:1039F00010BD00000000108010B586B00446009194
:103A00001021019140210020CDE90210080104900D
:103A100069462046FFF7A9FF41F28832102120466F
:103A200000F07CF906B010BD10B586B004460091D8
:103A30000621019140210020CDE9021008010490E7
:103A400069462046FFF791FF41F288320621204661
:103A500000F064F906B010BD30B585B0002504460D
:103A6000009501954FF480600295CDE903506946B9
:103A70002046FFF77AFF0B484FF4FA510068B0FB7D
:103A8000F1F141F288304143491E02D24FF0004526
:103A900005E0606B0006F7D540F2FF50A06305B06B
:103AA000284630BD5000002070B585B004464FF464
:103AB000D570009001A908204025002681E861000A
:103AC000C001049069462046FFF74FFF0F484FF4AE
:103AD000FA510068B0FBF1F041F288314843401ED2
:103AE00002D24FF000460DE0616B11F0450FF6D0A9
:103AF000606B400702D5A563042603E0606B4006B7
:103B000000D5A56305B0304670BD00005000002010
:103B100010B586B004460091122101914021002089
:103B2000CDE902100801049069462046FFF71DFF09
:103B300041F288321221204600F0F0F806B010BDA4
:103B400010B586B00446009111210191402100205A
:103B5000CDE902100801049069462046FFF705FFF1
:103B600041F288321121204600F0D8F806B010BD8D
:103B700010B586B00446072140200092CDE901101F
:103B8000002003904FF48060049069462046FFF7C0
:103B9000ECFE41F288320721204600F0BFF806B063
:103BA00010BD10B586B0002102220446C020CDE928
:103BB0000201CDE900125002049069462046FFF749
:103BC000D4FE204600F038F906B010BD10B586B01E
:103BD0000446009109210191C0210020CDE9021085
:103BE0004FF48060049069462046FFF7BEFE2046F1
:103BF00000F022F906B010BD10B586B000210446D1
:103C000040203322CDE90201CDE9001200010490E9
:103C100069462046FFF7A9FE41F28832332120464B
:103C200000F07CF806B010BD10B586B004460091D7
:103C30000D21019140210020CDE9021008010490DE
:103C400069462046FFF791FE41F288320D21204659
:103C500000F064F806B010BD30B585B0054600230D
:103C60000320CDE900304020CDE9020300010C46DD
:103C7000049069462846FFF778FE2246032128462D
:103C800000F022F905B030BD10B586B00021044621
:103C900040200C22CDE90201CDE900120001049080
:103CA00069462046FFF761FE034A0C21204600F0DA
:103CB00035F806B010BD000000E1F50510B586B07E
:103CC000044600911921019140210020CDE9021004
:103CD0000801049069462046FFF747FE41F288320A
:103CE0001921204600F01AF806B010BD10B586B0B4
:103CF000044600911821019140210020CDE90210D5
:103D00000801049069462046FFF72FFE41F28832F1
:103D10001821204600F002F806B010BD444B10B543
:103D20001B684FF4FA54B3FBF4F353435B1E02D207
:103D30004FF0004010BD426B12F0450FF6D0426BC1
:103D4000520703D504218163084610BD426BD20798
:103D500002D00121816303E00269D2B28A4201D01C
:103D6000012010BD40F2FF5181630021FFF7D7FD14
:103D70003049084201D1002010BD002802DA4FF07E
:103D8000007010BD410001D5402010BD810001D55B
:103D9000802010BDC10002D54FF4807010BD01011C
:103DA00002D54FF4007010BD410102D54FF4806080
:103DB00010BDC10102D54FF4006010BD010202D553
:103DC0004FF4805010BD410202D54FF4005010BD99
:103DD000810202D54FF4804010BDC10202D54FF4DC
:103DE000004010BD410302D54FF4003010BD8103E7
:103DF00002D54FF4802010BDC10302D54FF400203E
:103E000010BD010402D54FF4801010BD410402D54D
:103E10004FF4001010BD810402D54FF4800010BD96
:103E2000000702D54FF4000010BD4FF4803010BDE4
:103E30005000002008E0FFFD12494FF4FA520968D3
:103E4000B1FBF2F141F288325143491E02D24FF0E8
:103E500000407047426B12F0450FF6D0416B4907A6
:103E600003D50421816308467047416BC90703D01D
:103E7000012181630846704740F2FF5181630020B1
:103E800070470000500000200E494FF4FA520968B4
:103E9000B1FBF2F141F288325143491E02D24FF098
:103EA00000407047426B12F0450FF6D0416B490756
:103EB00003D5042181630846704740F2FF518163B6
:103EC00000207047500000201F4B10B51B684FF4B6
:103ED000FA54B3FBF4F341F2883463435B1E02D21D
:103EE0004FF0004010BD446B14F0450FF6D0436B0B
:103EF0005B0703D504218163084610BD436BDB07D4
:103F000002D00121816303E00369DBB28B4201D05F
:103F1000012010BD40F2FF5181630021FFF7FFFC3B
:103F200010F4604F04D0410406D54FF4005010BD8A
:103F3000000C1080002010BD000402D54FF480500A
:103F400010BD4FF4803010BD5000002010B5064C5D
:103F500001202070FCF750FC18B9207820F00100F7
:103F60002070207810BD00000900002070B5846B1F
:103F70000025E06B00B1E563206C002816D12046D7
:103F8000FDF796FEA563012184F83410062801D0C0
:103F900005280BD12068FFF777FEA16B0843A063CB
:103FA000A06B0028204602D0FDF742FD70BDFDF752
:103FB0007FFD70BD70B5846B0025206C00B1256459
:103FC000E06B002816D12046FDF772FEA5630121A3
:103FD00084F83410062801D005280BD12068FFF79B
:103FE00053FEA16B0843A063A06B0028204602D0BB
:103FF000FDF71EFD70BDFDF75BFD70BD2DE9F04FB7
:1040000089B00F460446FDF7FFF9002506460695E0
:104010000795A84608212068FFF7EEFC002835D157
:10402000B4F8500001042068FFF7B4FC00282DD13B
:10403000401E4FF00809CDE9000930204FF0020A78
:10404000CDE9020A0120CDE9048069462068FFF726
:1040500050FC2068FFF7D0FD002817D10DF118089B
:1040600040F22A4B2068416B11EA0B0F11D1416BD2
:10407000890204D5FFF776FC48F825006D1CFDF792
:10408000C3F9801B401CEDD14FF0004009B0BDE8E2
:10409000F08F416B090703D5C0F838900820F5E789
:1040A000416B890703D5C0F838A00220EEE7416BC9
:1040B000890603D5202181630846E7E740F2FF51D6
:1040C0008163069800BA7860079800BA38600020CB
:1040D000DCE710B590B004460120ADF83800206848
:1040E000FFF719FC002864D0606C032842D02068D8
:1040F000FFF757FD00285AD100212068FFF70FFC79
:10410000606704212068FFF70AFCA0670821206887
:10411000FFF705FCE0670C212068FFF700FCC4F8FE
:104120008000606C032825D00EA92068FFF794FD5D
:1041300000283CD1606C03281CD0BDF838002065F5
:1041400001042068FFF742FD002830D100212068DB
:10415000FFF7E5FB606604212068FFF7E0FBA0663F
:1041600008212068FFF7DBFBE0660C212068FFF7E1
:10417000D6FB206704212068FFF7D1FB000DE06427
:1041800003A92046FDF795FCB4F850000023020473
:104190002068FFF7EDFC002809D104F1100007C8E2
:1041A0008DE8070094E80F00FFF7C6FB002010B071
:1041B00010BD4FF08060FAE72DE9F8430025044672
:1041C00000950068FFF748FC00281AD12068FFF727
:1041D0006BFC4FF080784FF6FF76D8B14FF08057E8
:1041E000A5640098411C0091B0421AD000212068BB
:1041F000FFF7D0FB20B900212068FFF7E3FB10B1E7
:104200003846BDE8F88300212068FFF788FBC00F1F
:10421000E7D01FE00127A7640098411C0091B0423D
:1042200001D14046EDE700212068FFF7B3FB0028ED
:10423000E7D14FF080412068FFF7C4FB0028E0D1B0
:1042400000212068FFF76BFBC10FE5D0400001D5CE
:10425000676400E065640020D3E71CB504460020D5
:104260000090019000212068FFF759FB800102D5E2
:104270004FF400601CBD69462046FFF7BFFE0028D2
:10428000F8D10198C0030CD5B4F85000010420689F
:10429000FFF780FB0028EDD100212068FFF7C4FB69
:1042A0001CBD4FF080601CBD1CB504460020009072
:1042B000019000212068FFF732FB800102D54FF406
:1042C00000601CBD69462046FFF798FE0028F8D123
:1042D000019840030CD5B4F8500001042068FFF7A2
:1042E00059FB0028EDD102212068FFF79DFB1CBD82
:1042F0004FF080601CBD000070B5064C05460120E3
:104300002070FCF785FA18B92846FFF71FFE2070C9
:10431000207870BD0900002010B5124888B01446FE
:104320000078C00702D0032008B010BDC1B1012938
:1043300005D0022908D003290CD00420F4E76846F0
:10434000FCF754FA06980AE06846FCF74FFA07981B
:10435000208005E06846FCF749FA0798400A20608B
:104360000020E1E70900002070B51D46164608460A
:104370000124A31E2A463146FCF764FA20B9FCF753
:104380003BFA0028FBD10024204670BDFFF7DEBDBC
:1043900070B51D46164608460124A31E2A4631461E
:1043A000FCF762FA20B9FCF727FA0028FBD10024B9
:1043B000204670BD38B504461248134D4FF47A7349
:1043C0000068B0FBF5F0584300906068B0F5827F5C
:1043D0000DD10B46009200228021204600F016F8F5
:1043E00070B1606D40F020006065032038BD00981A
:1043F00030B1401E009020688068C0430006F6D5AA
:10440000002038BD5000002000366E012DE9F0413B
:104410001D4617460E460446DDF8188008E0681C65
:1044200006D0FCF7F1FFA0EB0800A8420BD255B173
:104430002068806836EA000030D00020B842EED113
:104440000020BDE8F0812068416821F0E001416072
:104450006068B0F5827F0BD1A068B0F5004F02D044
:10446000B0F5806F04D12068016821F0400101603F
:10447000A06AB0F5005F09D12068016821F40051FD
:1044800001602068016841F400510160012084F856
:104490005100002084F850000320D2E70120CDE72E
:1044A0007047F0B51D4614460F46064600F084F8E6
:1044B0007006000E00F0F8F800F056F9384600F0EB
:1044C000F3F800F051F900F077F8012000EB460016
:1044D000C0B200F0E9F800F047F907E0012C0BD07A
:1044E00000F03CF8641E05F8010BE4B2002CF5D195
:1044F00000F08CF80020F0BD00F002F8F2E70000B8
:1045000070B51548016821F440210160124C002368
:1045100014341A46261F4FF4C875206820F48070A2
:1045200020602846401EFDD1206840F48070206045
:104530005806030E306810F40070306001D043F06C
:1045400001032946491EFDD1521CD2B2082AE4D3E8
:1045500000F0E2F8184670BD0004024070B515483E
:10456000016821F440210160124C002314341A46E2
:10457000261F4FF4C875206820F4807020602846FC
:10458000401EFDD1206840F4807020605806030E64
:10459000306810F40070306001D043F00103294608
:1045A000491EFDD1521CD2B2082AE4D300F054F8BF
:1045B000184670BD000402401348016821F44021F0
:1045C0000160016841F4802101600F4A14321068D3
:1045D00040F400701060106840F4807010604FF478
:1045E000C8710846401EFDD1106820F400701060AC
:1045F0000846401EFDD1106820F480701060491EEE
:10460000FDD10020704700000004024011480168FD
:1046100021F440210160016841F4802101600D4ACC
:104620001432106820F480701060106820F400705C
:1046300010604FF4C8710846401EFDD1106840F468
:1046400080701060106840F400701060491EFDD149
:104650007047000000040240124A106820F4807085
:10466000106010481438016821F44021016001688D
:1046700041F480210160106820F4007010604FF454
:10468000C8710846401EFDD1106840F4807010606B
:104690000846401EFDD1106820F480701060491E4D
:1046A000FDD170471404024030B51A490A6822F45B
:1046B00040220A600A6842F480220A60154C1434D1
:1046C000216821F48071216000234FF4C875010630
:1046D000216802D541F4007101E021F400712160EC
:1046E0004006000E2946491EFDD1216841F4807123
:1046F00021602A462946491EFDD1216821F4807196
:104700002160521EFDD15B1CDBB2082BDFD30020E1
:1047100030BD000000040240124A106820F480708E
:10472000106010481438016821F4402101600168CC
:1047300041F480210160106840F4007010604FF473
:10474000C8710846401EFDD1106840F480701060AA
:104750000846401EFDD1106820F480701060491E8C
:10476000FDD170471404024008B500208DF8000008
:104770001748016821F440210160154A143210687D
:1047800040F4007010604FF4C8710846401EFDD11F
:10479000106840F480701060491EFDD10C49103142
:1047A000086810F4007008600CD09DF80000401CF0
:1047B0008DF800009DF80000FA28F1D9FFF726FFD8
:1047C000012008BD106820F480701060002008BD32
:1047D0000004024070B51D4616460C460346FFF71E
:1047E000EBFE5806000EFFF75FFFFFF7BDFF204608
:1047F000FFF75AFFFFF7B8FF002406E0285DFFF738
:1048000053FFFFF7B1FF641CE4B2B442F6D3FFF7E5
:10481000FDFE002070BDFCF7FDBD000030B593B07B
:1048200030216846FBF759FD14210CA8FBF755FD14
:104830001C480025016841F080510160006800F0CB
:10484000805011901848016841F4404101600068AF
:10485000022400F4404011900120009000040190D7
:104860008001CDE906400C200890A820CDE909047C
:1048700007200B906846FCF751FF00B1FEE70CA93A
:104880000F2081E831004FF4A0500F904FF480507A
:10489000109005210CA8FCF757FE002800D0FEE779
:1048A00013B030BD4038024000700040104801682D
:1048B00041F4700101600F48016841F0010101609D
:1048C0000C4A00210832116002680B4B1A4002604A
:1048D000031D0A4A1A60026822F480220260054819
:1048E0000C300160024958068039086070470000AA
:1048F00088ED00E000380240FFFFF6FE1030002493
:104900000148FDF7E5BF000008020020F0B502688D
:10491000254D264E264FDFF89CC0274B4FF0804E8A
:10492000A84209D0704507D0B04205D0B84203D0A4
:10493000604501D0984203D122F070044A682243B6
:10494000A8421BD0704519D0B04217D0B84215D03C
:10495000604513D0984211D0184CA0420ED0184C8C
:10496000A0420BD0174CA04208D0174CA04205D053
:10497000164CA04202D0164CA04203D122F440743F
:10498000CA6822434C6922F08002224302608A688E
:10499000C2620A688262A84201D0984201D10969C4
:1049A000016301214161F0BD0000014000040040AD
:1049B00000080040000C004000040140004001409D
:1049C000004401400048014000180040001C004025
:1049D000002000400148FEF73FB8000048020020D8
:1049E0000148FEF739B80000880200200148FEF7B0
:1049F00033B80000C802002010B5806B0021C185CB
:104A0000C184FEF728F810BD70B5846B206840693A
:104A100094F83910C0F3C0100025212904D118B131
:104A2000E584204600F062F82068406994F83A1066
:104A3000C0F38010222904D118B1E585204600F08A
:104A400047F8E06B40F01000E0632046FEF703F803
:104A500070BD10B50146806B09680968C90513D49B
:104A60000021C1850168CA6822F48072CA600168A9
:104A70004A6922F001024A6101684A6922F0400253
:104A80004A61202180F83A10FEF738FA10BD10B5BF
:104A9000806BFEF751FA10BD10B50146806B0968B6
:104AA0000968C9050CD40021C18401684A6922F053
:104AB00080024A610068C16841F04001C16010BDD8
:104AC000FEF7D8FA10BD10B5806BFEF7DDFA10BD09
:104AD0000168CA6822F49072CA6001684A6922F0CB
:104AE00001024A61202180F83A1070470168CA68C3
:104AF00022F0C002CA60202180F83910704710B53A
:104B000090F83A10222901D0022010BD8168B1F539
:104B1000805F11D00169002901681FD0496801F048
:104B20007F03816A4A1C82620B70C18D491E090491
:104B3000090CC18518D02BE00269816A002A02683D
:104B4000526805D0D2B20A80816A491C8162ECE7C2
:104B5000C2F308020A80816A891CF7E74A68816A01
:104B60004B1C83620A70E0E70168CA6822F02002E9
:104B7000CA600168CA6822F48072CA6001684A6922
:104B800022F001024A61202180F83A10FEF7B6F9BE
:104B9000002010BD2DE9F041044600680169E2687B
:104BA00021F4405111430161A1682069E269014388
:104BB0006069104301432068C26849F20C639A435C
:104BC0000A43C26020684169A26921F4407111431F
:104BD0004161E0696425B0F5004F974A9749206824
:104BE0004FF032083FD0884201D090427CD1FCF790
:104BF00053FD00EBC00101EB001061688900B0FBC0
:104C0000F1F6FCF749FD00EBC00101EB0010616813
:104C10008900B0FBF1F0B0FBF5F06FF018014843EC
:104C200006EB800108EB0110B0FBF5F000F0F00698
:104C3000FCF732FD00EBC00101EB00106168890058
:104C4000B0FBF1F0B0FBF5F006EB0016FCF724FD2D
:104C500000EBC00101EB001061688900B0FBF1F7C7
:104C6000FCF71AFDD2E0884201D090423DD1FCF71A
:104C700013FD00EBC00101EB001061684900B0FBBF
:104C8000F1F0B0FBF5F00601FCF706FD00EBC0010A
:104C900001EB001061684900B0FBF1F7FCF7FCFC88
:104CA00000EBC00101EB001061684900B0FBF1F0BE
:104CB000B0FBF5F06FF01801484307EB800108EBFB
:104CC000C100B0FBF5F000F0F80006EB4006FCF781
:104CD000E3FC00EBC00101EB001061684900B0FB90
:104CE000F1F7FCF7D9FC3CE055E0FCF7C5FC00EB24
:104CF000C00101EB001061684900B0FBF1F0B0FBAE
:104D0000F5F00601FCF7B8FC00EBC00101EB001068
:104D100061684900B0FBF1F7FCF7AEFC00EBC001A5
:104D200001EB001061684900B0FBF1F0B0FBF5F059
:104D30006FF01801484307EB800108EBC100B0FB9E
:104D4000F5F000F0F80006EB4006FCF795FC00EBF0
:104D5000C00101EB001061684900B0FBF1F7FCF7FE
:104D60008BFC00EBC00101EB001061684900B0FB57
:104D7000F1F0B0FBF5F06FF01801484307EB80014C
:104D800008EBC100B0FBF5F000F0070021683044EB
:104D90008860BDE8F081FCF76FFC00EBC00101EB1F
:104DA000001061688900B0FBF1F6FCF765FC00EBD0
:104DB000C00101EB001061688900B0FBF1F0B0FBAD
:104DC000F5F06FF01801484306EB800108EB011085
:104DD000B0FBF5F000F0F006FCF74EFC00EBC00174
:104DE00001EB001061688900B0FBF1F0B0FBF5F059
:104DF00006EB0016FCF740FC00EBC00101EB0010D5
:104E000061688900B0FBF1F7FCF736FC00EBC001EC
:104E100001EB001061688900B0FBF1F0B0FBF5F028
:104E20006FF01801484307EB800108EB0110B0FB5D
:104E3000F5F000F00F00A9E7001401400010014058
:104E400090F83910212901D0022070478168B1F50E
:104E5000805F016A0BD04A1C0262026809785160C7
:104E6000C18C491E0904090CC1840ED017E00988C1
:104E70000268C1F30801516001690029016A02D08A
:104E8000491C0162ECE7891CFBE70168CA6822F053
:104E90008002CA600068C16841F04001C160002022
:104EA00070472DE9F0411E46174688460446069D88
:104EB0001CE0681C1AD025B1FCF7A6FA801BA8429A
:104EC00014D92068C16821F4D071C160206841699B
:104ED00021F001014161202084F8390084F83A0072
:104EE000002084F838000320BDE8F08120680168C4
:104EF00038EA010004D00020B842DAD00020F3E7FD
:104F00000120F9E70148FDF7A7BD000008030020D4
:104F1000FEE700000FB4054B10B503A9044A029840
:104F200000F0EEF910BC5DF814FB0000255B0008F2
:104F3000680000200907090E002804DB00F1E020CA
:104F400080F80014704700F00F0000F1E02080F8B6
:104F5000141D704702E008C8121F08C1002AFAD1C8
:104F600070477047002001E001C1121F002AFBD1E9
:104F7000704700002DE9FF5F82B00021DDE90430B9
:104F8000020DDDF840B0034318D044F61050A2F2F1
:104F9000FF3242431514119801281FD0A5EB0B00D6
:104FA000401C5FEA000A4FF000064E4FDFF83891D0
:104FB000B046504615D5CAF1000413E011980124FB
:104FC0004AA3012801D16FEA0B010298119AC0E9A6
:104FD0000031C0E9024206B0BDE8F09FCBF100000D
:104FE000DFE704460021404A491842EB0450CDE96E
:104FF000001012E0E00707D032463B4640464946E3
:10500000FBF72BFB8046894632463B461046194645
:10501000FBF723FB06460F466410002CEAD1DDE9BE
:105020000401DDE90023BAF1000F06DAFBF715FBF6
:1050300042464B46FBF711FB05E0FBF766F942469B
:105040004B46FBF762F904460E460022284BFBF75D
:105050008FFB03D84FF0FF30014607E00022254BBD
:1050600020463146FBF752FAFBF769FB102409E0B2
:10507000002C0ADB0A220023FBF7B4F8039B303232
:105080001A55641E50EA0102F2D1641C039AC4F15D
:1050900011031444119A012A03D0012208430DD1AF
:1050A0000AE0084304D000204FF0110B119072E782
:1050B000A3EB0B056D1E0DE05B4504DD4FF0000218
:1050C00005F1010504E003DA4FF00002A5F1010546
:1050D000002AECD002981199C0E90231C0E90045DC
:1050E00079E70000000014400000F03F30000000AD
:1050F0000000F0430000E03F2DE9FF4FA7B01C4641
:1051000091460E46349F279800F0DEFE0546007B50
:105110004FF009084FF0000AC0F3400030B9296988
:1051200021B10978C90701D0012100E000218B4697
:105130006F4AF1B2D0B1FF2E05D9284600F0DAF857
:105140002BB0BDE8F08FFE208DF868008DF8694027
:10515000A8798DF86A0010788DF86B0050788DF87A
:105160006C004FF005088DF86D102BE00023BBF1AB
:10517000000F00D0012348463C4601E0641EE4B223
:10518000012C04D9071917F8017C002FF6D0FD2057
:105190008DF868008DF869408DF86A3000208DF830
:1051A0006B00A8798DF86C0010788DF86D00507840
:1051B0008DF86E00300A8DF87000300C8DF86F108D
:1051C0008DF87100A8790DF16907401CA8714FF6A0
:1051D000FF704646ADF8000004E017F8010B694681
:1051E00000F025FC761EB6B2F7D2BDF80000ADF88F
:1051F000840021A84E462746009004E016F8010BD3
:10520000009900F014FC7F1EBFB2F7D221A9359897
:1052100000F00DFCBDF884008DF88800000A8DF8C0
:105220008900BBF1000F45D02D691AA80DF1740A51
:1052300008F101064F460DF1880B2390F5B328784D
:10524000C00753D068788DF87400D5E90201CDE924
:105250002401CDF87500BDF89400ADF87900D5E9CA
:105260000201401C41F10001C5E90201684600F05D
:1052700011FF202205F11001684600F02FFF324691
:105280006846239900F02AFF22463946684600F016
:1052900025FF02225946684600F020FF07225146AA
:1052A000684600F01BFF0AF10701684600F0ACFEFB
:1052B0000D20824608F101021AA900E016E02798A5
:1052C00000F01CF822464946279800F017F8022201
:1052D00022A9279800F012F8BAF100003FF430AF8D
:1052E00002461DA9279800F009F829E70020E0E709
:1052F000610000208178491C8170704700F0ECBD8E
:105300002DE9FF4F95B09B468946064600250FE2E2
:10531000252877D100242746F84A0121059400E08A
:10532000044316F8013F203B01FA03F01042F7D185
:1053300030782A2811D06FF02F033078A0F1300296
:10534000092A16D8059A44F0020402EB820203EB04
:1053500042021044761C0590EFE759F8042B0592A1
:10536000002A03DA504244F40054059044F0020449
:10537000761C30782E2816D116F8010F44F004045C
:105380002A280DD06FF02F023078A0F13003092BBE
:1053900009D807EB870302EB4303C718761CF3E732
:1053A00059F8047B761C30786C280FD006DC4C282A
:1053B00017D068280DD06A2814D104E0742810D0C2
:1053C0007A280FD10DE044F400140AE044F480146C
:1053D00001E044F440147278824202D104F5801452
:1053E000761C761C307866280BD013DC582877D0D2
:1053F00009DC002875D04528F6D04628F4D0472887
:105400001AD19DE118E0632835D0642879D0652849
:1054100012D195E1702873D008DC6728F1D0692893
:105420006FD06E280DD06F2806D1B5E073282CD030
:10543000752875D0782874D05A46179990476D1CF6
:1054400075E1C4F30250022809D003280DD0D9F821
:10545000001004280DD00D6009F1040967E1D9F8A6
:105460000010EA17C1E90052F6E7D9F800100D80E4
:10547000F2E70D70F0E719F8041B8DF8001000201A
:105480008DF80100EA46012003E059F804AB4FF023
:10549000FF3061074FF0000102D40DE008F1010177
:1054A0008846B9420FDA8045F8DB1AF8081000295F
:1054B000F4D108E008F1010188468142FADB1AF8CC
:1054C00008100029F6D105985B46A0EB0807214695
:1054D0003846179A00F094FA284400EB080507E0D4
:1054E0004DE029E10DE01AF8010B5A461799904753
:1054F000B8F10108F7D25B4621463846179A13E106
:1055000042E00A220092C4F302524FF0000A022A3B
:1055100008D059F804CB032A4FEAEC710AD00DE009
:1055200029E02AE009F1070121F00702F2E802C1AF
:10553000914609E00FFA8CFC4FEAEC71042A03D182
:105540004FFA8CFC4FEAEC71002907DA0A46002179
:10555000DCF1000C61EB02012D2202E0220504D5F2
:105560002B228DF80420012203E0E20701D0202243
:10557000F7E7904659E00A2102E010220DE01021E1
:105580004FF0000A00910BE010224FF0000A44F0A7
:1055900004040827009203E008224FF0000A00925A
:1055A000C4F30252022A05D059F804CB0021032A81
:1055B00008D009E009F1070121F00702F2E802C171
:1055C000914605E01FFA8CFC042A01D10CF0FF0C77
:1055D0004FF00008220728D5702806D0009B83F0E2
:1055E000100353EA0A0305D00EE040228DF8042090
:1055F000012208E05CEA010206D030228DF8042086
:105600008DF8050002229046009B83F0080353EAC0
:105610000A030AD15CEA010201D1620705D53022F2
:105620008DF804204FF001087F1E582804D034A0C4
:1056300003900EA802900DE036A0F9E753466046AD
:10564000009AFAF7CFFD84460398825C0298401EC8
:10565000029002705CEA0100F0D1029806A9081AD3
:1056600000F1200A600702D524F4803400E001270D
:10567000574502DDA7EB0A0000E0002000EB0A011D
:10568000009005984144401A0590E00306D45B461B
:105690002146179A059800F0B3F90544002706E063
:1056A00001A85A46C05D179990476D1C7F1C47455D
:1056B000F6DBE0030CD55B462146179A059800F00F
:1056C0009FF9054404E030205A46179990476D1C15
:1056D0000099481E00900029F5DC08E00298029924
:1056E0005A460078491C0291179990476D1CBAF1EF
:1056F0000001AAF1010AF1DC65E1000009280100BE
:105700003031323334353637383961626364656637
:1057100000000000303132333435363738394142F9
:10572000434445460000000000F058F90544761C4B
:10573000307800287FF4ECAD19B02846BDE8F08F32
:10574000620700D4062709F1070222F0070CFCE8E3
:105750000223E14603F000485FEA080C02D00FF292
:10576000702C0DE05FEA045C02D50FF2682C07E0B4
:105770005FEAC47C02D00FF2602C01E0AFF2700C43
:105780004FF0FF3823F00043CDF850C065280CD00F
:1057900006DC452809D046281DD047283DD13DE0EC
:1057A000662818D067287ED138E00021112F01DB50
:1057B000112000E0781CCDE9000106A90EA8FFF732
:1057C000D9FBDDE90F010E9A03910021009207F148
:1057D000010A04914DE04FF000400097CDE901101F
:1057E00006A90EA8FFF7C6FBDDE90F0203920E9B88
:1057F00011990022DDF80CA00093049211B9791CD4
:1058000000EB010AB7EB0A0004D4C0F1FF3007F146
:10581000010A0490AAEB0700019044E0012F00DA8E
:1058200001270021112F01DD112000E03846CDE9CC
:10583000000106A90EA8FFF79DFBDDE90F010E9AF6
:105840000391002104910092BA4621070CD40399D8
:10585000514500DA8A46BAF1010F05DD009AAAF136
:105860000101515C302908D0B84202DA10F1040F6E
:1058700006DA0121CDE9011015E0AAF10101E9E7FD
:10588000002805DC049901440491AAEB000102E020
:10589000411C514500DD8A460499401A401C019084
:1058A0004FF000400290200704D40198504501DBDE
:1058B000CDF8048000208DF84F0002980DF14F07BD
:1058C000B0F1004F25D02B200E9002984FF0020827
:1058D00000280CDA404202902D200E9007E00A21A9
:1058E0000298FAF781FD3031029007F8011DB8F1F6
:1058F0000001A8F10108F2DC02980028EFD1791E1E
:105900000E980870307800F0200040F0450007F84D
:10591000020D12A8C01B00F107081498007800B10E
:10592000012000EB0A01019801EBE0710598414468
:10593000401A401E0590E00306D45B462146179AA4
:10594000059800F05DF805441498007818B15A469F
:10595000179990476D1CE00324D55B462146179AA2
:10596000059800F04DF805441CE00498002807DB7A
:10597000DDE90301884203DD0098405C179901E0EE
:10598000179930205A469047049805F10105401CAC
:1059900004900198401E019004D12E205A46179978
:1059A00090476D1CBAF10001AAF1010ADDDC05E0A7
:1059B00017F8010B5A46179990476D1CB8F1000172
:1059C000A8F10108F4DC5B462146179A0598ABE67E
:1059D0002D0000002B000000200000002DE9F04108
:1059E000044600251E461746880404D405E03946BF
:1059F0002020B0476D1C641EF9D52846BDE8F08113
:105A00002DE9F041044600251E469046C80301D505
:105A1000302700E02027880404D505E041463846B9
:105A2000B0476D1C641EF9D52846BDE8F0810A8890
:105A30001346424082EA0210C0B21A0A82EA0022E9
:105A400082EAC00282EA10100880704718B54FF64B
:105A5000FF72491EADF8002089B210D3BDF80030A6
:105A600010F8012B1C46534083EA0312D2B2230ADA
:105A700083EA022383EAC20383EA1212E9E7BDF84C
:105A8000000018BD017821B1012905D1401C00F0AA
:105A900007B802494078487170470000480000206C
:105AA000017861F30702417861F30F221B490A80F4
:105AB000837863F30702C37863F30F224A80037984
:105AC00063F30702437963F30F228A80837963F3D8
:105AD0000702C37963F30F22CA80037A63F30702D4
